{
	"data": {
		"bytecode": {
			"linkReferences": {},
			"object": "60a06040523073ffffffffffffffffffffffffffffffffffffffff1660809073ffffffffffffffffffffffffffffffffffffffff1681525034801562000043575f80fd5b50620000546200005a60201b60201c565b620001c4565b5f6200006b6200015e60201b60201c565b9050805f0160089054906101000a900460ff1615620000b6576040517ff92ee8a900000000000000000000000000000000000000000000000000000000815260040160405180910390fd5b67ffffffffffffffff8016815f015f9054906101000a900467ffffffffffffffff1667ffffffffffffffff16146200015b5767ffffffffffffffff815f015f6101000a81548167ffffffffffffffff021916908367ffffffffffffffff1602179055507fc7f505b2f371ae2175ee4913f4499e1f2633a7b5936321eed1cdaeb6115181d267ffffffffffffffff604051620001529190620001a9565b60405180910390a15b50565b5f7ff0c57e16840df040f15088dc2f81fe391c3923bec73e23a9662efc9c229c6a00905090565b5f67ffffffffffffffff82169050919050565b620001a38162000185565b82525050565b5f602082019050620001be5f83018462000198565b92915050565b608051615b8f620001eb5f395f81816116380152818161168d01526118470152615b8f5ff3fe6080604052600436106101d7575f3560e01c806370a0823111610101578063a22cb46511610094578063c87b56dd11610063578063c87b56dd14610635578063dbf5132514610671578063e985e9c514610699578063f2fde38b146106d5576101d7565b8063a22cb46514610593578063ad3cb1cc146105bb578063b88d4fde146105e5578063c4d66de81461060d576101d7565b80638da5cb5b116100d05780638da5cb5b146104ed57806395d89b4114610517578063961a7eae14610541578063a14481941461056b576101d7565b806370a082311461045b578063715018a6146104975780637b103999146104ad5780638456cb59146104d7576101d7565b806342842e0e116101795780635c975abb116101485780635c975abb146103a15780635dab2420146103cb5780636352211e146103f55780636c0360eb14610431576101d7565b806342842e0e1461030b57806342966c68146103335780634f1ef2861461035b57806352d1902d14610377576101d7565b8063095ea7b3116101b5578063095ea7b31461027d57806323b872dd146102a55780632a9abcb9146102cd5780633f4ba83a146102f5576101d7565b806301ffc9a7146101db57806306fdde0314610217578063081812fc14610241575b5f80fd5b3480156101e6575f80fd5b5061020160048036038101906101fc9190612bb7565b6106fd565b60405161020e9190612bfc565b60405180910390f35b348015610222575f80fd5b5061022b6107de565b6040516102389190612c9f565b60405180910390f35b34801561024c575f80fd5b5061026760048036038101906102629190612cf2565b61087b565b6040516102749190612d5c565b60405180910390f35b348015610288575f80fd5b506102a3600480360381019061029e9190612d9f565b610896565b005b3480156102b0575f80fd5b506102cb60048036038101906102c69190612ddd565b6108ac565b005b3480156102d8575f80fd5b506102f360048036038101906102ee9190612f83565b6109ab565b005b348015610300575f80fd5b50610309610a15565b005b348015610316575f80fd5b50610331600480360381019061032c9190612ddd565b610a27565b005b34801561033e575f80fd5b5061035960048036038101906103549190612cf2565b610a46565b005b6103756004803603810190610370919061308d565b610a5c565b005b348015610382575f80fd5b5061038b610a7b565b60405161039891906130ff565b60405180910390f35b3480156103ac575f80fd5b506103b5610aac565b6040516103c29190612bfc565b60405180910390f35b3480156103d6575f80fd5b506103df610ace565b6040516103ec9190613173565b60405180910390f35b348015610400575f80fd5b5061041b60048036038101906104169190612cf2565b610af3565b6040516104289190612d5c565b60405180910390f35b34801561043c575f80fd5b50610445610b04565b6040516104529190612c9f565b60405180910390f35b348015610466575f80fd5b50610481600480360381019061047c919061318c565b610b90565b60405161048e91906131c6565b60405180910390f35b3480156104a2575f80fd5b506104ab610c54565b005b3480156104b8575f80fd5b506104c1610c67565b6040516104ce9190613210565b60405180910390f35b3480156104e2575f80fd5b506104eb610c8a565b005b3480156104f8575f80fd5b50610501610c9c565b60405161050e9190612d5c565b60405180910390f35b348015610522575f80fd5b5061052b610cd1565b6040516105389190612c9f565b60405180910390f35b34801561054c575f80fd5b50610555610d6f565b6040516105629190612bfc565b60405180910390f35b348015610576575f80fd5b50610591600480360381019061058c9190612d9f565b610d81565b005b34801561059e575f80fd5b506105b960048036038101906105b49190613229565b610df5565b005b3480156105c6575f80fd5b506105cf610e0b565b6040516105dc9190612c9f565b60405180910390f35b3480156105f0575f80fd5b5061060b60048036038101906106069190613267565b610e44565b005b348015610618575f80fd5b50610633600480360381019061062e919061318c565b610e61565b005b348015610640575f80fd5b5061065b60048036038101906106569190612cf2565b611137565b6040516106689190612c9f565b60405180910390f35b34801561067c575f80fd5b5061069760048036038101906106929190612cf2565b611282565b005b3480156106a4575f80fd5b506106bf60048036038101906106ba91906132e7565b611296565b6040516106cc9190612bfc565b60405180910390f35b3480156106e0575f80fd5b506106fb60048036038101906106f6919061318c565b611332565b005b5f7f80ac58cd000000000000000000000000000000000000000000000000000000007bffffffffffffffffffffffffffffffffffffffffffffffffffffffff1916827bffffffffffffffffffffffffffffffffffffffffffffffffffffffff191614806107c757507f5b5e139f000000000000000000000000000000000000000000000000000000007bffffffffffffffffffffffffffffffffffffffffffffffffffffffff1916827bffffffffffffffffffffffffffffffffffffffffffffffffffffffff1916145b806107d757506107d6826113b6565b5b9050919050565b60605f6107e961141f565b9050805f0180546107f990613352565b80601f016020809104026020016040519081016040528092919081815260200182805461082590613352565b80156108705780601f1061084757610100808354040283529160200191610870565b820191905f5260205f20905b81548152906001019060200180831161085357829003601f168201915b505050505091505090565b5f61088582611446565b5061088f826114cc565b9050919050565b6108a882826108a3611513565b61151a565b5050565b5f73ffffffffffffffffffffffffffffffffffffffff168273ffffffffffffffffffffffffffffffffffffffff160361091c575f6040517f64a0ae920000000000000000000000000000000000000000000000000000000081526004016109139190612d5c565b60405180910390fd5b5f61092f838361092a611513565b61152c565b90508373ffffffffffffffffffffffffffffffffffffffff168173ffffffffffffffffffffffffffffffffffffffff16146109a5578382826040517f64283d7b00000000000000000000000000000000000000000000000000000000815260040161099c93929190613382565b60405180910390fd5b50505050565b6109b3611541565b8160025f8581526020019081526020015f2090816109d1919061354b565b508060035f6101000a81548160ff02191690831515021790555060035f9054906101000a900460ff1615610a10578160049081610a0e919061354b565b505b505050565b610a1d611541565b610a256115c8565b565b610a4183838360405180602001604052805f815250610e44565b505050565b610a585f82610a53611513565b61152c565b5050565b610a64611636565b610a6d8261171c565b610a778282611727565b5050565b5f610a84611845565b7f360894a13ba1a3210667c828492db98dca3e2076cc3735a920a3ca505d382bbc5f1b905090565b5f80610ab66118cc565b9050805f015f9054906101000a900460ff1691505090565b60015f9054906101000a900473ffffffffffffffffffffffffffffffffffffffff1681565b5f610afd82611446565b9050919050565b60048054610b1190613352565b80601f0160208091040260200160405190810160405280929190818152602001828054610b3d90613352565b8015610b885780601f10610b5f57610100808354040283529160200191610b88565b820191905f5260205f20905b815481529060010190602001808311610b6b57829003601f168201915b505050505081565b5f80610b9a61141f565b90505f73ffffffffffffffffffffffffffffffffffffffff168373ffffffffffffffffffffffffffffffffffffffff1603610c0c575f6040517f89c62b64000000000000000000000000000000000000000000000000000000008152600401610c039190612d5c565b60405180910390fd5b806003015f8473ffffffffffffffffffffffffffffffffffffffff1673ffffffffffffffffffffffffffffffffffffffff1681526020019081526020015f2054915050919050565b610c5c611541565b610c655f6118f3565b565b5f8054906101000a900473ffffffffffffffffffffffffffffffffffffffff1681565b610c92611541565b610c9a6119c4565b565b5f80610ca6611a33565b9050805f015f9054906101000a900473ffffffffffffffffffffffffffffffffffffffff1691505090565b60605f610cdc61141f565b9050806001018054610ced90613352565b80601f0160208091040260200160405190810160405280929190818152602001828054610d1990613352565b8015610d645780601f10610d3b57610100808354040283529160200191610d64565b820191905f5260205f20905b815481529060010190602001808311610d4757829003601f168201915b505050505091505090565b60035f9054906101000a900460ff1681565b610d89611541565b610d938282611a5a565b5f610d9e3083611a77565b90508073ffffffffffffffffffffffffffffffffffffffff167fa0038d61ac7f17fe47f8776a0cf1e4845408cdca012144f1b7a61bc084e2eaa53084604051610de892919061361a565b60405180910390a2505050565b610e07610e00611513565b8383611b44565b5050565b6040518060400160405280600581526020017f352e302e3000000000000000000000000000000000000000000000000000000081525081565b610e4f8484846108ac565b610e5b84848484611cbb565b50505050565b5f610e6a611e6d565b90505f815f0160089054906101000a900460ff161590505f825f015f9054906101000a900467ffffffffffffffff1690505f808267ffffffffffffffff16148015610eb25750825b90505f60018367ffffffffffffffff16148015610ee557505f3073ffffffffffffffffffffffffffffffffffffffff163b145b905081158015610ef3575080155b15610f2a576040517ff92ee8a900000000000000000000000000000000000000000000000000000000815260040160405180910390fd5b6001855f015f6101000a81548167ffffffffffffffff021916908367ffffffffffffffff1602179055508315610f77576001855f0160086101000a81548160ff0219169083151502179055505b610feb6040518060400160405280600a81526020017f436f72654d6f64756c65000000000000000000000000000000000000000000008152506040518060400160405280600581526020017f53454e5453000000000000000000000000000000000000000000000000000000815250611e94565b610ff3611eaa565b610ffc86611ebc565b611004611ed0565b61100c611eda565b60405161101890612b37565b604051809103905ff080158015611031573d5f803e3d5ffd5b505f806101000a81548173ffffffffffffffffffffffffffffffffffffffff021916908373ffffffffffffffffffffffffffffffffffffffff16021790555060405161107c90612b44565b604051809103905ff080158015611095573d5f803e3d5ffd5b5060015f6101000a81548173ffffffffffffffffffffffffffffffffffffffff021916908373ffffffffffffffffffffffffffffffffffffffff160217905550831561112f575f855f0160086101000a81548160ff0219169083151502179055507fc7f505b2f371ae2175ee4913f4499e1f2633a7b5936321eed1cdaeb6115181d26001604051611126919061368d565b60405180910390a15b505050505050565b606060035f9054906101000a900460ff16156111dd576004805461115a90613352565b80601f016020809104026020016040519081016040528092919081815260200182805461118690613352565b80156111d15780601f106111a8576101008083540402835291602001916111d1565b820191905f5260205f20905b8154815290600101906020018083116111b457829003601f168201915b5050505050905061127d565b5f60025f8481526020019081526020015f2080546111fa90613352565b80601f016020809104026020016040519081016040528092919081815260200182805461122690613352565b80156112715780601f1061124857610100808354040283529160200191611271565b820191905f5260205f20905b81548152906001019060200180831161125457829003601f168201915b50505050509050809150505b919050565b61128a611541565b61129381611ee4565b50565b5f806112a061141f565b9050806005015f8573ffffffffffffffffffffffffffffffffffffffff1673ffffffffffffffffffffffffffffffffffffffff1681526020019081526020015f205f8473ffffffffffffffffffffffffffffffffffffffff1673ffffffffffffffffffffffffffffffffffffffff1681526020019081526020015f205f9054906101000a900460ff1691505092915050565b61133a611541565b5f73ffffffffffffffffffffffffffffffffffffffff168173ffffffffffffffffffffffffffffffffffffffff16036113aa575f6040517f1e4fbdf70000000000000000000000000000000000000000000000000000000081526004016113a19190612d5c565b60405180910390fd5b6113b3816118f3565b50565b5f7f01ffc9a7000000000000000000000000000000000000000000000000000000007bffffffffffffffffffffffffffffffffffffffffffffffffffffffff1916827bffffffffffffffffffffffffffffffffffffffffffffffffffffffff1916149050919050565b5f7f80bb2b638cc20bc4d0a60d66940f3ab4a00c1d7b313497ca82fb0b4ab0079300905090565b5f8061145183611f66565b90505f73ffffffffffffffffffffffffffffffffffffffff168173ffffffffffffffffffffffffffffffffffffffff16036114c357826040517f7e2732890000000000000000000000000000000000000000000000000000000081526004016114ba91906131c6565b60405180910390fd5b80915050919050565b5f806114d661141f565b9050806004015f8481526020019081526020015f205f9054906101000a900473ffffffffffffffffffffffffffffffffffffffff16915050919050565b5f33905090565b6115278383836001611fad565b505050565b5f61153884848461217a565b90509392505050565b611549611513565b73ffffffffffffffffffffffffffffffffffffffff16611567610c9c565b73ffffffffffffffffffffffffffffffffffffffff16146115c65761158a611513565b6040517f118cdaa70000000000000000000000000000000000000000000000000000000081526004016115bd9190612d5c565b60405180910390fd5b565b6115d0612197565b5f6115d96118cc565b90505f815f015f6101000a81548160ff0219169083151502179055507f5db9ee0a495bf2e6ff9c91a7834c1ba4fdd244a5e8aa4e537bd38aeae4b073aa61161e611513565b60405161162b9190612d5c565b60405180910390a150565b7f000000000000000000000000000000000000000000000000000000000000000073ffffffffffffffffffffffffffffffffffffffff163073ffffffffffffffffffffffffffffffffffffffff1614806116e357507f000000000000000000000000000000000000000000000000000000000000000073ffffffffffffffffffffffffffffffffffffffff166116ca6121d7565b73ffffffffffffffffffffffffffffffffffffffff1614155b1561171a576040517fe07c8dba00000000000000000000000000000000000000000000000000000000815260040160405180910390fd5b565b611724611541565b50565b8173ffffffffffffffffffffffffffffffffffffffff166352d1902d6040518163ffffffff1660e01b8152600401602060405180830381865afa92505050801561178f57506040513d601f19601f8201168201806040525081019061178c91906136d0565b60015b6117d057816040517f4c9c8ce30000000000000000000000000000000000000000000000000000000081526004016117c79190612d5c565b60405180910390fd5b7f360894a13ba1a3210667c828492db98dca3e2076cc3735a920a3ca505d382bbc5f1b811461183657806040517faa1d49a400000000000000000000000000000000000000000000000000000000815260040161182d91906130ff565b60405180910390fd5b611840838361222a565b505050565b7f000000000000000000000000000000000000000000000000000000000000000073ffffffffffffffffffffffffffffffffffffffff163073ffffffffffffffffffffffffffffffffffffffff16146118ca576040517fe07c8dba00000000000000000000000000000000000000000000000000000000815260040160405180910390fd5b565b5f7fcd5ed15c6e187e77e9aee88184c21f4f2182ab5827cb3b7e07fbedcd63f03300905090565b5f6118fc611a33565b90505f815f015f9054906101000a900473ffffffffffffffffffffffffffffffffffffffff16905082825f015f6101000a81548173ffffffffffffffffffffffffffffffffffffffff021916908373ffffffffffffffffffffffffffffffffffffffff1602179055508273ffffffffffffffffffffffffffffffffffffffff168173ffffffffffffffffffffffffffffffffffffffff167f8be0079c531659141344cd1fd0a4f28419497f9722a3daafe3b4186f6b6457e060405160405180910390a3505050565b6119cc61229c565b5f6119d56118cc565b90506001815f015f6101000a81548160ff0219169083151502179055507f62e78cea01bee320cd4e420270b5ea74000d11b0c9f74754ebdbfc544b05a258611a1b611513565b604051611a289190612d5c565b60405180910390a150565b5f7f9016d09d72d40fdae2fd8ceac6b6234c7706214fd39c1cd1e609a0528c199300905090565b611a73828260405180602001604052805f8152506122dd565b5050565b5f805f9054906101000a900473ffffffffffffffffffffffffffffffffffffffff1673ffffffffffffffffffffffffffffffffffffffff16638a54c52f60015f9054906101000a900473ffffffffffffffffffffffffffffffffffffffff165f801b4687876040518663ffffffff1660e01b8152600401611afc9594939291906136fb565b6020604051808303815f875af1158015611b18573d5f803e3d5ffd5b505050506040513d601f19601f82011682018060405250810190611b3c9190613760565b905092915050565b5f611b4d61141f565b90505f73ffffffffffffffffffffffffffffffffffffffff168373ffffffffffffffffffffffffffffffffffffffff1603611bbf57826040517f5b08ba18000000000000000000000000000000000000000000000000000000008152600401611bb69190612d5c565b60405180910390fd5b81816005015f8673ffffffffffffffffffffffffffffffffffffffff1673ffffffffffffffffffffffffffffffffffffffff1681526020019081526020015f205f8573ffffffffffffffffffffffffffffffffffffffff1673ffffffffffffffffffffffffffffffffffffffff1681526020019081526020015f205f6101000a81548160ff0219169083151502179055508273ffffffffffffffffffffffffffffffffffffffff168473ffffffffffffffffffffffffffffffffffffffff167f17307eab39ab6107e8899845ad3d59bd9653f200f220920489ca2b5937696c3184604051611cad9190612bfc565b60405180910390a350505050565b5f8373ffffffffffffffffffffffffffffffffffffffff163b1115611e67578273ffffffffffffffffffffffffffffffffffffffff1663150b7a02611cfe611513565b8685856040518563ffffffff1660e01b8152600401611d2094939291906137dd565b6020604051808303815f875af1925050508015611d5b57506040513d601f19601f82011682018060405250810190611d58919061383b565b60015b611ddc573d805f8114611d89576040519150601f19603f3d011682016040523d82523d5f602084013e611d8e565b606091505b505f815103611dd457836040517f64a0ae92000000000000000000000000000000000000000000000000000000008152600401611dcb9190612d5c565b60405180910390fd5b805181602001fd5b63150b7a0260e01b7bffffffffffffffffffffffffffffffffffffffffffffffffffffffff1916817bffffffffffffffffffffffffffffffffffffffffffffffffffffffff191614611e6557836040517f64a0ae92000000000000000000000000000000000000000000000000000000008152600401611e5c9190612d5c565b60405180910390fd5b505b50505050565b5f7ff0c57e16840df040f15088dc2f81fe391c3923bec73e23a9662efc9c229c6a00905090565b611e9c6122f8565b611ea68282612338565b5050565b611eb26122f8565b611eba612373565b565b611ec46122f8565b611ecd816123a3565b50565b611ed86122f8565b565b611ee26122f8565b565b5f611ef05f835f61152c565b90505f73ffffffffffffffffffffffffffffffffffffffff168173ffffffffffffffffffffffffffffffffffffffff1603611f6257816040517f7e273289000000000000000000000000000000000000000000000000000000008152600401611f5991906131c6565b60405180910390fd5b5050565b5f80611f7061141f565b9050806002015f8481526020019081526020015f205f9054906101000a900473ffffffffffffffffffffffffffffffffffffffff16915050919050565b5f611fb661141f565b90508180611ff057505f73ffffffffffffffffffffffffffffffffffffffff168373ffffffffffffffffffffffffffffffffffffffff1614155b15612122575f611fff85611446565b90505f73ffffffffffffffffffffffffffffffffffffffff168473ffffffffffffffffffffffffffffffffffffffff161415801561206957508373ffffffffffffffffffffffffffffffffffffffff168173ffffffffffffffffffffffffffffffffffffffff1614155b801561207c575061207a8185611296565b155b156120be57836040517fa9fbf51f0000000000000000000000000000000000000000000000000000000081526004016120b59190612d5c565b60405180910390fd5b821561212057848673ffffffffffffffffffffffffffffffffffffffff168273ffffffffffffffffffffffffffffffffffffffff167f8c5be1e5ebec7d5bd14f71427d1e84f3dd0314c0f7b2291e5b200ac8c7c3b92560405160405180910390a45b505b84816004015f8681526020019081526020015f205f6101000a81548173ffffffffffffffffffffffffffffffffffffffff021916908373ffffffffffffffffffffffffffffffffffffffff1602179055505050505050565b5f61218361229c565b61218e848484612427565b90509392505050565b61219f610aac565b6121d5576040517f8dfc202b00000000000000000000000000000000000000000000000000000000815260040160405180910390fd5b565b5f6122037f360894a13ba1a3210667c828492db98dca3e2076cc3735a920a3ca505d382bbc5f1b612644565b5f015f9054906101000a900473ffffffffffffffffffffffffffffffffffffffff16905090565b6122338261264d565b8173ffffffffffffffffffffffffffffffffffffffff167fbc7cd75a20ee27fd9adebab32041f755214dbc6bffa90cc0225b39da2e5c2d3b60405160405180910390a25f8151111561228f576122898282612716565b50612298565b612297612796565b5b5050565b6122a4610aac565b156122db576040517fd93c066500000000000000000000000000000000000000000000000000000000815260040160405180910390fd5b565b6122e783836127d2565b6122f35f848484611cbb565b505050565b6123006128c5565b612336576040517fd7e6bcf800000000000000000000000000000000000000000000000000000000815260040160405180910390fd5b565b6123406122f8565b5f61234961141f565b905082815f01908161235b919061354b565b508181600101908161236d919061354b565b50505050565b61237b6122f8565b5f6123846118cc565b90505f815f015f6101000a81548160ff02191690831515021790555050565b6123ab6122f8565b5f73ffffffffffffffffffffffffffffffffffffffff168173ffffffffffffffffffffffffffffffffffffffff160361241b575f6040517f1e4fbdf70000000000000000000000000000000000000000000000000000000081526004016124129190612d5c565b60405180910390fd5b612424816118f3565b50565b5f8061243161141f565b90505f61243d85611f66565b90505f73ffffffffffffffffffffffffffffffffffffffff168473ffffffffffffffffffffffffffffffffffffffff161461247e5761247d8185876128e3565b5b5f73ffffffffffffffffffffffffffffffffffffffff168173ffffffffffffffffffffffffffffffffffffffff161461250b576124bd5f865f80611fad565b6001826003015f8373ffffffffffffffffffffffffffffffffffffffff1673ffffffffffffffffffffffffffffffffffffffff1681526020019081526020015f205f82825403925050819055505b5f73ffffffffffffffffffffffffffffffffffffffff168673ffffffffffffffffffffffffffffffffffffffff161461258c576001826003015f8873ffffffffffffffffffffffffffffffffffffffff1673ffffffffffffffffffffffffffffffffffffffff1681526020019081526020015f205f82825401925050819055505b85826002015f8781526020019081526020015f205f6101000a81548173ffffffffffffffffffffffffffffffffffffffff021916908373ffffffffffffffffffffffffffffffffffffffff160217905550848673ffffffffffffffffffffffffffffffffffffffff168273ffffffffffffffffffffffffffffffffffffffff167fddf252ad1be2c89b69c2b068fc378daa952ba7f163c4a11628f55a4df523b3ef60405160405180910390a480925050509392505050565b5f819050919050565b5f8173ffffffffffffffffffffffffffffffffffffffff163b036126a857806040517f4c9c8ce300000000000000000000000000000000000000000000000000000000815260040161269f9190612d5c565b60405180910390fd5b806126d47f360894a13ba1a3210667c828492db98dca3e2076cc3735a920a3ca505d382bbc5f1b612644565b5f015f6101000a81548173ffffffffffffffffffffffffffffffffffffffff021916908373ffffffffffffffffffffffffffffffffffffffff16021790555050565b60605f808473ffffffffffffffffffffffffffffffffffffffff168460405161273f91906138a0565b5f60405180830381855af49150503d805f8114612777576040519150601f19603f3d011682016040523d82523d5f602084013e61277c565b606091505b509150915061278c8583836129a6565b9250505092915050565b5f3411156127d0576040517fb398979f00000000000000000000000000000000000000000000000000000000815260040160405180910390fd5b565b5f73ffffffffffffffffffffffffffffffffffffffff168273ffffffffffffffffffffffffffffffffffffffff1603612842575f6040517f64a0ae920000000000000000000000000000000000000000000000000000000081526004016128399190612d5c565b60405180910390fd5b5f61284e83835f61152c565b90505f73ffffffffffffffffffffffffffffffffffffffff168173ffffffffffffffffffffffffffffffffffffffff16146128c0575f6040517f73c6ac6e0000000000000000000000000000000000000000000000000000000081526004016128b79190612d5c565b60405180910390fd5b505050565b5f6128ce611e6d565b5f0160089054906101000a900460ff16905090565b6128ee838383612a33565b6129a1575f73ffffffffffffffffffffffffffffffffffffffff168373ffffffffffffffffffffffffffffffffffffffff160361296257806040517f7e27328900000000000000000000000000000000000000000000000000000000815260040161295991906131c6565b60405180910390fd5b81816040517f177e802f00000000000000000000000000000000000000000000000000000000815260040161299892919061361a565b60405180910390fd5b505050565b6060826129bb576129b682612af3565b612a2b565b5f82511480156129e157505f8473ffffffffffffffffffffffffffffffffffffffff163b145b15612a2357836040517f9996b315000000000000000000000000000000000000000000000000000000008152600401612a1a9190612d5c565b60405180910390fd5b819050612a2c565b5b9392505050565b5f8073ffffffffffffffffffffffffffffffffffffffff168373ffffffffffffffffffffffffffffffffffffffff1614158015612aea57508273ffffffffffffffffffffffffffffffffffffffff168473ffffffffffffffffffffffffffffffffffffffff161480612aab5750612aaa8484611296565b5b80612ae957508273ffffffffffffffffffffffffffffffffffffffff16612ad1836114cc565b73ffffffffffffffffffffffffffffffffffffffff16145b5b90509392505050565b5f81511115612b055780518082602001fd5b6040517f1425ea4200000000000000000000000000000000000000000000000000000000815260040160405180910390fd5b61035f806138b783390190565b611f4480613c1683390190565b5f604051905090565b5f80fd5b5f80fd5b5f7fffffffff0000000000000000000000000000000000000000000000000000000082169050919050565b612b9681612b62565b8114612ba0575f80fd5b50565b5f81359050612bb181612b8d565b92915050565b5f60208284031215612bcc57612bcb612b5a565b5b5f612bd984828501612ba3565b91505092915050565b5f8115159050919050565b612bf681612be2565b82525050565b5f602082019050612c0f5f830184612bed565b92915050565b5f81519050919050565b5f82825260208201905092915050565b5f5b83811015612c4c578082015181840152602081019050612c31565b5f8484015250505050565b5f601f19601f8301169050919050565b5f612c7182612c15565b612c7b8185612c1f565b9350612c8b818560208601612c2f565b612c9481612c57565b840191505092915050565b5f6020820190508181035f830152612cb78184612c67565b905092915050565b5f819050919050565b612cd181612cbf565b8114612cdb575f80fd5b50565b5f81359050612cec81612cc8565b92915050565b5f60208284031215612d0757612d06612b5a565b5b5f612d1484828501612cde565b91505092915050565b5f73ffffffffffffffffffffffffffffffffffffffff82169050919050565b5f612d4682612d1d565b9050919050565b612d5681612d3c565b82525050565b5f602082019050612d6f5f830184612d4d565b92915050565b612d7e81612d3c565b8114612d88575f80fd5b50565b5f81359050612d9981612d75565b92915050565b5f8060408385031215612db557612db4612b5a565b5b5f612dc285828601612d8b565b9250506020612dd385828601612cde565b9150509250929050565b5f805f60608486031215612df457612df3612b5a565b5b5f612e0186828701612d8b565b9350506020612e1286828701612d8b565b9250506040612e2386828701612cde565b9150509250925092565b5f80fd5b5f80fd5b7f4e487b71000000000000000000000000000000000000000000000000000000005f52604160045260245ffd5b612e6b82612c57565b810181811067ffffffffffffffff82111715612e8a57612e89612e35565b5b80604052505050565b5f612e9c612b51565b9050612ea88282612e62565b919050565b5f67ffffffffffffffff821115612ec757612ec6612e35565b5b612ed082612c57565b9050602081019050919050565b828183375f83830152505050565b5f612efd612ef884612ead565b612e93565b905082815260208101848484011115612f1957612f18612e31565b5b612f24848285612edd565b509392505050565b5f82601f830112612f4057612f3f612e2d565b5b8135612f50848260208601612eeb565b91505092915050565b612f6281612be2565b8114612f6c575f80fd5b50565b5f81359050612f7d81612f59565b92915050565b5f805f60608486031215612f9a57612f99612b5a565b5b5f612fa786828701612cde565b935050602084013567ffffffffffffffff811115612fc857612fc7612b5e565b5b612fd486828701612f2c565b9250506040612fe586828701612f6f565b9150509250925092565b5f67ffffffffffffffff82111561300957613008612e35565b5b61301282612c57565b9050602081019050919050565b5f61303161302c84612fef565b612e93565b90508281526020810184848401111561304d5761304c612e31565b5b613058848285612edd565b509392505050565b5f82601f83011261307457613073612e2d565b5b813561308484826020860161301f565b91505092915050565b5f80604083850312156130a3576130a2612b5a565b5b5f6130b085828601612d8b565b925050602083013567ffffffffffffffff8111156130d1576130d0612b5e565b5b6130dd85828601613060565b9150509250929050565b5f819050919050565b6130f9816130e7565b82525050565b5f6020820190506131125f8301846130f0565b92915050565b5f819050919050565b5f61313b61313661313184612d1d565b613118565b612d1d565b9050919050565b5f61314c82613121565b9050919050565b5f61315d82613142565b9050919050565b61316d81613153565b82525050565b5f6020820190506131865f830184613164565b92915050565b5f602082840312156131a1576131a0612b5a565b5b5f6131ae84828501612d8b565b91505092915050565b6131c081612cbf565b82525050565b5f6020820190506131d95f8301846131b7565b92915050565b5f6131e982613121565b9050919050565b5f6131fa826131df565b9050919050565b61320a816131f0565b82525050565b5f6020820190506132235f830184613201565b92915050565b5f806040838503121561323f5761323e612b5a565b5b5f61324c85828601612d8b565b925050602061325d85828601612f6f565b9150509250929050565b5f805f806080858703121561327f5761327e612b5a565b5b5f61328c87828801612d8b565b945050602061329d87828801612d8b565b93505060406132ae87828801612cde565b925050606085013567ffffffffffffffff8111156132cf576132ce612b5e565b5b6132db87828801613060565b91505092959194509250565b5f80604083850312156132fd576132fc612b5a565b5b5f61330a85828601612d8b565b925050602061331b85828601612d8b565b9150509250929050565b7f4e487b71000000000000000000000000000000000000000000000000000000005f52602260045260245ffd5b5f600282049050600182168061336957607f821691505b60208210810361337c5761337b613325565b5b50919050565b5f6060820190506133955f830186612d4d565b6133a260208301856131b7565b6133af6040830184612d4d565b949350505050565b5f819050815f5260205f209050919050565b5f6020601f8301049050919050565b5f82821b905092915050565b5f600883026134137fffffffffffffffffffffffffffffffffffffffffffffffffffffffffffffffff826133d8565b61341d86836133d8565b95508019841693508086168417925050509392505050565b5f61344f61344a61344584612cbf565b613118565b612cbf565b9050919050565b5f819050919050565b61346883613435565b61347c61347482613456565b8484546133e4565b825550505050565b5f90565b613490613484565b61349b81848461345f565b505050565b5b818110156134be576134b35f82613488565b6001810190506134a1565b5050565b601f821115613503576134d4816133b7565b6134dd846133c9565b810160208510156134ec578190505b6135006134f8856133c9565b8301826134a0565b50505b505050565b5f82821c905092915050565b5f6135235f1984600802613508565b1980831691505092915050565b5f61353b8383613514565b9150826002028217905092915050565b61355482612c15565b67ffffffffffffffff81111561356d5761356c612e35565b5b6135778254613352565b6135828282856134c2565b5f60209050601f8311600181146135b3575f84156135a1578287015190505b6135ab8582613530565b865550613612565b601f1984166135c1866133b7565b5f5b828110156135e8578489015182556001820191506020850194506020810190506135c3565b868310156136055784890151613601601f891682613514565b8355505b6001600288020188555050505b505050505050565b5f60408201905061362d5f830185612d4d565b61363a60208301846131b7565b9392505050565b5f819050919050565b5f67ffffffffffffffff82169050919050565b5f61367761367261366d84613641565b613118565b61364a565b9050919050565b6136878161365d565b82525050565b5f6020820190506136a05f83018461367e565b92915050565b6136af816130e7565b81146136b9575f80fd5b50565b5f815190506136ca816136a6565b92915050565b5f602082840312156136e5576136e4612b5a565b5b5f6136f2848285016136bc565b91505092915050565b5f60a08201905061370e5f830188612d4d565b61371b60208301876130f0565b61372860408301866131b7565b6137356060830185612d4d565b61374260808301846131b7565b9695505050505050565b5f8151905061375a81612d75565b92915050565b5f6020828403121561377557613774612b5a565b5b5f6137828482850161374c565b91505092915050565b5f81519050919050565b5f82825260208201905092915050565b5f6137af8261378b565b6137b98185613795565b93506137c9818560208601612c2f565b6137d281612c57565b840191505092915050565b5f6080820190506137f05f830187612d4d565b6137fd6020830186612d4d565b61380a60408301856131b7565b818103606083015261381c81846137a5565b905095945050505050565b5f8151905061383581612b8d565b92915050565b5f602082840312156138505761384f612b5a565b5b5f61385d84828501613827565b91505092915050565b5f81905092915050565b5f61387a8261378b565b6138848185613866565b9350613894818560208601612c2f565b80840191505092915050565b5f6138ab8284613870565b91508190509291505056fe608060405234801561000f575f80fd5b506103428061001d5f395ff3fe608060405234801561000f575f80fd5b5060043610610034575f3560e01c8063246a0021146100385780638a54c52f14610068575b5f80fd5b610052600480360381019061004d919061026d565b610098565b60405161005f91906102f3565b60405180910390f35b610082600480360381019061007d919061026d565b6100f7565b60405161008f91906102f3565b60405180910390f35b5f60806024608c376e5af43d82803e903d91602b57fd5bf3606c5285605d52733d60ad80600a3d3981f3363d3d373d3d3d363d7360495260ff5f5360b76055206035523060601b6001528460155260555f2060601b60601c5f5260205ff35b5f60806024608c376e5af43d82803e903d91602b57fd5bf3606c5285605d52733d60ad80600a3d3981f3363d3d373d3d3d363d7360495260ff5f5360b76055206035523060601b6001528460155260555f20803b61019b578560b760555ff580610168576320188a595f526004601cfd5b80606c528385897f79f19b3655ee38b1ce526556b7731a20c8f218fbda4a3990b6cc4172fdf887226060606ca46020606cf35b8060601b60601c5f5260205ff35b5f80fd5b5f73ffffffffffffffffffffffffffffffffffffffff82169050919050565b5f6101d6826101ad565b9050919050565b6101e6816101cc565b81146101f0575f80fd5b50565b5f81359050610201816101dd565b92915050565b5f819050919050565b61021981610207565b8114610223575f80fd5b50565b5f8135905061023481610210565b92915050565b5f819050919050565b61024c8161023a565b8114610256575f80fd5b50565b5f8135905061026781610243565b92915050565b5f805f805f60a08688031215610286576102856101a9565b5b5f610293888289016101f3565b95505060206102a488828901610226565b94505060406102b588828901610259565b93505060606102c6888289016101f3565b92505060806102d788828901610259565b9150509295509295909350565b6102ed816101cc565b82525050565b5f6020820190506103065f8301846102e4565b9291505056fea2646970667358221220db37514216d137bf7fdb2cbb5ed2d4de8f672d3b5ba89a1ec5741f636706774764736f6c63430008140033608060405234801561000f575f80fd5b50611f278061001d5f395ff3fe60806040526004361061009f575f3560e01c8063523e326011610063578063523e3260146101b65780638da5cb5b146101f2578063bc197c811461021c578063c19d93fb14610258578063f23a6e6114610282578063fc0c546a146102be576100a6565b806301ffc9a7146100aa5780630900f010146100e6578063150b7a021461010e5780631626ba7e1461014a5780635194544714610186576100a6565b366100a657005b5f80fd5b3480156100b5575f80fd5b506100d060048036038101906100cb9190611088565b6102ea565b6040516100dd91906110cd565b60405180910390f35b3480156100f1575f80fd5b5061010c60048036038101906101079190611140565b6104f3565b005b348015610119575f80fd5b50610134600480360381019061012f91906112da565b61062b565b6040516101419190611369565b60405180910390f35b348015610155575f80fd5b50610170600480360381019061016b91906113b5565b610648565b60405161017d9190611369565b60405180910390f35b6101a0600480360381019061019b91906114a2565b610682565b6040516101ad91906115a0565b60405180910390f35b3480156101c1575f80fd5b506101dc60048036038101906101d791906115c0565b6107e4565b6040516101e99190611369565b60405180910390f35b3480156101fd575f80fd5b50610206610810565b604051610213919061162c565b60405180910390f35b348015610227575f80fd5b50610242600480360381019061023d9190611705565b6108b5565b60405161024f9190611369565b60405180910390f35b348015610263575f80fd5b5061026c6108c9565b60405161027991906117df565b60405180910390f35b34801561028d575f80fd5b506102a860048036038101906102a391906117f8565b6108ce565b6040516102b59190611369565b60405180910390f35b3480156102c9575f80fd5b506102d26108e2565b6040516102e19392919061188b565b60405180910390f35b5f7f6faff5f1000000000000000000000000000000000000000000000000000000007bffffffffffffffffffffffffffffffffffffffffffffffffffffffff1916827bffffffffffffffffffffffffffffffffffffffffffffffffffffffff191614806103b457507f51945447000000000000000000000000000000000000000000000000000000007bffffffffffffffffffffffffffffffffffffffffffffffffffffffff1916827bffffffffffffffffffffffffffffffffffffffffffffffffffffffff1916145b8061041c57507f4e2312e0000000000000000000000000000000000000000000000000000000007bffffffffffffffffffffffffffffffffffffffffffffffffffffffff1916827bffffffffffffffffffffffffffffffffffffffffffffffffffffffff1916145b8061048457507f150b7a02000000000000000000000000000000000000000000000000000000007bffffffffffffffffffffffffffffffffffffffffffffffffffffffff1916827bffffffffffffffffffffffffffffffffffffffffffffffffffffffff1916145b806104ec57507f01ffc9a7000000000000000000000000000000000000000000000000000000007bffffffffffffffffffffffffffffffffffffffffffffffffffffffff1916827bffffffffffffffffffffffffffffffffffffffffffffffffffffffff1916145b9050919050565b6104fc336108f8565b61053b576040517f08c379a00000000000000000000000000000000000000000000000000000000081526004016105329061191a565b60405180910390fd5b5f73ffffffffffffffffffffffffffffffffffffffff168173ffffffffffffffffffffffffffffffffffffffff16036105a9576040517f08c379a00000000000000000000000000000000000000000000000000000000081526004016105a090611982565b60405180910390fd5b5f8081546105b6906119cd565b91905081905550806105e97f360894a13ba1a3210667c828492db98dca3e2076cc3735a920a3ca505d382bbc5f1b610936565b5f015f6101000a81548173ffffffffffffffffffffffffffffffffffffffff021916908373ffffffffffffffffffffffffffffffffffffffff16021790555050565b5f610636338461093f565b63150b7a0260e01b9050949350505050565b5f8061065c610655610810565b8585610ca3565b9050801561067457631626ba7e60e01b91505061067c565b5f60e01b9150505b92915050565b606061068d336108f8565b6106cc576040517f08c379a00000000000000000000000000000000000000000000000000000000081526004016106c39061191a565b60405180910390fd5b5f8260ff1614610711576040517f08c379a000000000000000000000000000000000000000000000000000000000815260040161070890611a84565b60405180910390fd5b5f80815461071e906119cd565b919050819055505f8673ffffffffffffffffffffffffffffffffffffffff1686868660405161074e929190611ad0565b5f6040518083038185875af1925050503d805f8114610788576040519150601f19603f3d011682016040523d82523d5f602084013e61078d565b606091505b5080935081925050508082906107d9576040517f08c379a00000000000000000000000000000000000000000000000000000000081526004016107d09190611b2a565b60405180910390fd5b505095945050505050565b5f6107ee846108f8565b156108025763523e326060e01b9050610809565b5f60e01b90505b9392505050565b5f805f8061081c6108e2565b925092509250468314610834575f93505050506108b2565b8173ffffffffffffffffffffffffffffffffffffffff16636352211e826040518263ffffffff1660e01b815260040161086d91906117df565b602060405180830381865afa158015610888573d5f803e3d5ffd5b505050506040513d601f19601f820116820180604052508101906108ac9190611b5e565b93505050505b90565b5f63bc197c8160e01b905095945050505050565b5f5481565b5f63f23a6e6160e01b905095945050505050565b5f805f6108ed610d30565b925092509250909192565b5f610901610810565b73ffffffffffffffffffffffffffffffffffffffff168273ffffffffffffffffffffffffffffffffffffffff16149050919050565b5f819050919050565b5f805f61094a6108e2565b925092509250468314158061098b57508173ffffffffffffffffffffffffffffffffffffffff168573ffffffffffffffffffffffffffffffffffffffff1614155b806109965750808414155b6109d5576040517f08c379a00000000000000000000000000000000000000000000000000000000081526004016109cc90611bd3565b60405180910390fd5b5f6109de610810565b90503073ffffffffffffffffffffffffffffffffffffffff168173ffffffffffffffffffffffffffffffffffffffff1603610a4e576040517f08c379a0000000000000000000000000000000000000000000000000000000008152600401610a4590611c3b565b60405180910390fd5b5f5b5f8273ffffffffffffffffffffffffffffffffffffffff163b1115610c9a578173ffffffffffffffffffffffffffffffffffffffff1663fc0c546a6040518163ffffffff1660e01b8152600401606060405180830381865afa925050508015610ad757506040513d601f19601f82011682018060405250810190610ad49190611c6d565b60015b15610c9a574683141580610b1757508973ffffffffffffffffffffffffffffffffffffffff168273ffffffffffffffffffffffffffffffffffffffff1614155b80610b225750888114155b610b61576040517f08c379a0000000000000000000000000000000000000000000000000000000008152600401610b5890611c3b565b60405180910390fd5b8173ffffffffffffffffffffffffffffffffffffffff16636352211e826040518263ffffffff1660e01b8152600401610b9a91906117df565b602060405180830381865afa158015610bb5573d5f803e3d5ffd5b505050506040513d601f19601f82011682018060405250810190610bd99190611b5e565b94503073ffffffffffffffffffffffffffffffffffffffff168573ffffffffffffffffffffffffffffffffffffffff1603610c49576040517f08c379a0000000000000000000000000000000000000000000000000000000008152600401610c4090611c3b565b60405180910390fd5b50505080600101905060058103610c95576040517f08c379a0000000000000000000000000000000000000000000000000000000008152600401610c8c90611d07565b60405180910390fd5b610a50565b50505050505050565b5f805f610cb08585610d47565b50915091505f6003811115610cc857610cc7611d25565b5b816003811115610cdb57610cda611d25565b5b148015610d1357508573ffffffffffffffffffffffffffffffffffffffff168273ffffffffffffffffffffffffffffffffffffffff16145b80610d255750610d24868686610d9c565b5b925050509392505050565b5f805f610d3c30610ebb565b925092509250909192565b5f805f6041845103610d87575f805f602087015192506040870151915060608701515f1a9050610d7988828585610f3b565b955095509550505050610d95565b5f600285515f1b9250925092505b9250925092565b5f805f8573ffffffffffffffffffffffffffffffffffffffff168585604051602401610dc9929190611d61565b604051602081830303815290604052631626ba7e60e01b6020820180517bffffffffffffffffffffffffffffffffffffffffffffffffffffffff8381831617835250505050604051610e1b9190611dbf565b5f60405180830381855afa9150503d805f8114610e53576040519150601f19603f3d011682016040523d82523d5f602084013e610e58565b606091505b5091509150818015610e6c57506020815110155b8015610eb05750631626ba7e60e01b7bffffffffffffffffffffffffffffffffffffffffffffffffffffffff191681806020019051810190610eae9190611de9565b145b925050509392505050565b5f805f80606067ffffffffffffffff811115610eda57610ed96111b6565b5b6040519080825280601f01601f191660200182016040528015610f0c5781602001600182028036833780820191505090505b5090506060604d60208301873c80806020019051810190610f2d9190611e4f565b935093509350509193909250565b5f805f7f7fffffffffffffffffffffffffffffff5d576e7357a4501ddfe92f46681b20a0845f1c1115610f77575f600385925092509250611018565b5f6001888888886040515f8152602001604052604051610f9a9493929190611eae565b6020604051602081039080840390855afa158015610fba573d5f803e3d5ffd5b5050506020604051035190505f73ffffffffffffffffffffffffffffffffffffffff168173ffffffffffffffffffffffffffffffffffffffff160361100b575f60015f801b93509350935050611018565b805f805f1b935093509350505b9450945094915050565b5f604051905090565b5f80fd5b5f80fd5b5f7fffffffff0000000000000000000000000000000000000000000000000000000082169050919050565b61106781611033565b8114611071575f80fd5b50565b5f813590506110828161105e565b92915050565b5f6020828403121561109d5761109c61102b565b5b5f6110aa84828501611074565b91505092915050565b5f8115159050919050565b6110c7816110b3565b82525050565b5f6020820190506110e05f8301846110be565b92915050565b5f73ffffffffffffffffffffffffffffffffffffffff82169050919050565b5f61110f826110e6565b9050919050565b61111f81611105565b8114611129575f80fd5b50565b5f8135905061113a81611116565b92915050565b5f602082840312156111555761115461102b565b5b5f6111628482850161112c565b91505092915050565b5f819050919050565b61117d8161116b565b8114611187575f80fd5b50565b5f8135905061119881611174565b92915050565b5f80fd5b5f80fd5b5f601f19601f8301169050919050565b7f4e487b71000000000000000000000000000000000000000000000000000000005f52604160045260245ffd5b6111ec826111a6565b810181811067ffffffffffffffff8211171561120b5761120a6111b6565b5b80604052505050565b5f61121d611022565b905061122982826111e3565b919050565b5f67ffffffffffffffff821115611248576112476111b6565b5b611251826111a6565b9050602081019050919050565b828183375f83830152505050565b5f61127e6112798461122e565b611214565b90508281526020810184848401111561129a576112996111a2565b5b6112a584828561125e565b509392505050565b5f82601f8301126112c1576112c061119e565b5b81356112d184826020860161126c565b91505092915050565b5f805f80608085870312156112f2576112f161102b565b5b5f6112ff8782880161112c565b94505060206113108782880161112c565b93505060406113218782880161118a565b925050606085013567ffffffffffffffff8111156113425761134161102f565b5b61134e878288016112ad565b91505092959194509250565b61136381611033565b82525050565b5f60208201905061137c5f83018461135a565b92915050565b5f819050919050565b61139481611382565b811461139e575f80fd5b50565b5f813590506113af8161138b565b92915050565b5f80604083850312156113cb576113ca61102b565b5b5f6113d8858286016113a1565b925050602083013567ffffffffffffffff8111156113f9576113f861102f565b5b611405858286016112ad565b9150509250929050565b5f80fd5b5f80fd5b5f8083601f84011261142c5761142b61119e565b5b8235905067ffffffffffffffff8111156114495761144861140f565b5b60208301915083600182028301111561146557611464611413565b5b9250929050565b5f60ff82169050919050565b6114818161146c565b811461148b575f80fd5b50565b5f8135905061149c81611478565b92915050565b5f805f805f608086880312156114bb576114ba61102b565b5b5f6114c88882890161112c565b95505060206114d98882890161118a565b945050604086013567ffffffffffffffff8111156114fa576114f961102f565b5b61150688828901611417565b935093505060606115198882890161148e565b9150509295509295909350565b5f81519050919050565b5f82825260208201905092915050565b5f5b8381101561155d578082015181840152602081019050611542565b5f8484015250505050565b5f61157282611526565b61157c8185611530565b935061158c818560208601611540565b611595816111a6565b840191505092915050565b5f6020820190508181035f8301526115b88184611568565b905092915050565b5f805f604084860312156115d7576115d661102b565b5b5f6115e48682870161112c565b935050602084013567ffffffffffffffff8111156116055761160461102f565b5b61161186828701611417565b92509250509250925092565b61162681611105565b82525050565b5f60208201905061163f5f83018461161d565b92915050565b5f67ffffffffffffffff82111561165f5761165e6111b6565b5b602082029050602081019050919050565b5f61168261167d84611645565b611214565b905080838252602082019050602084028301858111156116a5576116a4611413565b5b835b818110156116ce57806116ba888261118a565b8452602084019350506020810190506116a7565b5050509392505050565b5f82601f8301126116ec576116eb61119e565b5b81356116fc848260208601611670565b91505092915050565b5f805f805f60a0868803121561171e5761171d61102b565b5b5f61172b8882890161112c565b955050602061173c8882890161112c565b945050604086013567ffffffffffffffff81111561175d5761175c61102f565b5b611769888289016116d8565b935050606086013567ffffffffffffffff81111561178a5761178961102f565b5b611796888289016116d8565b925050608086013567ffffffffffffffff8111156117b7576117b661102f565b5b6117c3888289016112ad565b9150509295509295909350565b6117d98161116b565b82525050565b5f6020820190506117f25f8301846117d0565b92915050565b5f805f805f60a086880312156118115761181061102b565b5b5f61181e8882890161112c565b955050602061182f8882890161112c565b94505060406118408882890161118a565b93505060606118518882890161118a565b925050608086013567ffffffffffffffff8111156118725761187161102f565b5b61187e888289016112ad565b9150509295509295909350565b5f60608201905061189e5f8301866117d0565b6118ab602083018561161d565b6118b860408301846117d0565b949350505050565b5f82825260208201905092915050565b7f43616c6c6572206973206e6f74206f776e6572000000000000000000000000005f82015250565b5f6119046013836118c0565b915061190f826118d0565b602082019050919050565b5f6020820190508181035f830152611931816118f8565b9050919050565b7f496e76616c696420696d706c656d656e746174696f6e206164647265737300005f82015250565b5f61196c601e836118c0565b915061197782611938565b602082019050919050565b5f6020820190508181035f83015261199981611960565b9050919050565b7f4e487b71000000000000000000000000000000000000000000000000000000005f52601160045260245ffd5b5f6119d78261116b565b91507fffffffffffffffffffffffffffffffffffffffffffffffffffffffffffffffff8203611a0957611a086119a0565b5b600182019050919050565b7f4f6e6c792063616c6c206f7065726174696f6e732061726520737570706f72745f8201527f6564000000000000000000000000000000000000000000000000000000000000602082015250565b5f611a6e6022836118c0565b9150611a7982611a14565b604082019050919050565b5f6020820190508181035f830152611a9b81611a62565b9050919050565b5f81905092915050565b5f611ab78385611aa2565b9350611ac483858461125e565b82840190509392505050565b5f611adc828486611aac565b91508190509392505050565b5f81519050919050565b5f611afc82611ae8565b611b0681856118c0565b9350611b16818560208601611540565b611b1f816111a6565b840191505092915050565b5f6020820190508181035f830152611b428184611af2565b905092915050565b5f81519050611b5881611116565b92915050565b5f60208284031215611b7357611b7261102b565b5b5f611b8084828501611b4a565b91505092915050565b7f43616e6e6f74206f776e20796f757273656c66000000000000000000000000005f82015250565b5f611bbd6013836118c0565b9150611bc882611b89565b602082019050919050565b5f6020820190508181035f830152611bea81611bb1565b9050919050565b7f546f6b656e20696e206f776e65727368697020636861696e00000000000000005f82015250565b5f611c256018836118c0565b9150611c3082611bf1565b602082019050919050565b5f6020820190508181035f830152611c5281611c19565b9050919050565b5f81519050611c6781611174565b92915050565b5f805f60608486031215611c8457611c8361102b565b5b5f611c9186828701611c59565b9350506020611ca286828701611b4a565b9250506040611cb386828701611c59565b9150509250925092565b7f4f776e65727368697020636861696e20746f6f206465657000000000000000005f82015250565b5f611cf16018836118c0565b9150611cfc82611cbd565b602082019050919050565b5f6020820190508181035f830152611d1e81611ce5565b9050919050565b7f4e487b71000000000000000000000000000000000000000000000000000000005f52602160045260245ffd5b611d5b81611382565b82525050565b5f604082019050611d745f830185611d52565b8181036020830152611d868184611568565b90509392505050565b5f611d9982611526565b611da38185611aa2565b9350611db3818560208601611540565b80840191505092915050565b5f611dca8284611d8f565b915081905092915050565b5f81519050611de38161138b565b92915050565b5f60208284031215611dfe57611dfd61102b565b5b5f611e0b84828501611dd5565b91505092915050565b5f611e1e826110e6565b9050919050565b611e2e81611e14565b8114611e38575f80fd5b50565b5f81519050611e4981611e25565b92915050565b5f805f60608486031215611e6657611e6561102b565b5b5f611e7386828701611c59565b9350506020611e8486828701611e3b565b9250506040611e9586828701611c59565b9150509250925092565b611ea88161146c565b82525050565b5f608082019050611ec15f830187611d52565b611ece6020830186611e9f565b611edb6040830185611d52565b611ee86060830184611d52565b9594505050505056fea2646970667358221220f75ff5210aff3be1a4540b1aa3fd5e70189ffe3ac6d8f285e2a9d58a65b47ab864736f6c63430008140033a264697066735822122014a5305c342e051623fe4b7b12f5a4efb15fe5a421a33d97191b2892eda02f5f64736f6c63430008140033",
			"opcodes": "PUSH1 0xA0 PUSH1 0x40 MSTORE ADDRESS PUSH20 0xFFFFFFFFFFFFFFFFFFFFFFFFFFFFFFFFFFFFFFFF AND PUSH1 0x80 SWAP1 PUSH20 0xFFFFFFFFFFFFFFFFFFFFFFFFFFFFFFFFFFFFFFFF AND DUP2 MSTORE POP CALLVALUE DUP1 ISZERO PUSH3 0x43 JUMPI PUSH0 DUP1 REVERT JUMPDEST POP PUSH3 0x54 PUSH3 0x5A PUSH1 0x20 SHL PUSH1 0x20 SHR JUMP JUMPDEST PUSH3 0x1C4 JUMP JUMPDEST PUSH0 PUSH3 0x6B PUSH3 0x15E PUSH1 0x20 SHL PUSH1 0x20 SHR JUMP JUMPDEST SWAP1 POP DUP1 PUSH0 ADD PUSH1 0x8 SWAP1 SLOAD SWAP1 PUSH2 0x100 EXP SWAP1 DIV PUSH1 0xFF AND ISZERO PUSH3 0xB6 JUMPI PUSH1 0x40 MLOAD PUSH32 0xF92EE8A900000000000000000000000000000000000000000000000000000000 DUP2 MSTORE PUSH1 0x4 ADD PUSH1 0x40 MLOAD DUP1 SWAP2 SUB SWAP1 REVERT JUMPDEST PUSH8 0xFFFFFFFFFFFFFFFF DUP1 AND DUP2 PUSH0 ADD PUSH0 SWAP1 SLOAD SWAP1 PUSH2 0x100 EXP SWAP1 DIV PUSH8 0xFFFFFFFFFFFFFFFF AND PUSH8 0xFFFFFFFFFFFFFFFF AND EQ PUSH3 0x15B JUMPI PUSH8 0xFFFFFFFFFFFFFFFF DUP2 PUSH0 ADD PUSH0 PUSH2 0x100 EXP DUP2 SLOAD DUP2 PUSH8 0xFFFFFFFFFFFFFFFF MUL NOT AND SWAP1 DUP4 PUSH8 0xFFFFFFFFFFFFFFFF AND MUL OR SWAP1 SSTORE POP PUSH32 0xC7F505B2F371AE2175EE4913F4499E1F2633A7B5936321EED1CDAEB6115181D2 PUSH8 0xFFFFFFFFFFFFFFFF PUSH1 0x40 MLOAD PUSH3 0x152 SWAP2 SWAP1 PUSH3 0x1A9 JUMP JUMPDEST PUSH1 0x40 MLOAD DUP1 SWAP2 SUB SWAP1 LOG1 JUMPDEST POP JUMP JUMPDEST PUSH0 PUSH32 0xF0C57E16840DF040F15088DC2F81FE391C3923BEC73E23A9662EFC9C229C6A00 SWAP1 POP SWAP1 JUMP JUMPDEST PUSH0 PUSH8 0xFFFFFFFFFFFFFFFF DUP3 AND SWAP1 POP SWAP2 SWAP1 POP JUMP JUMPDEST PUSH3 0x1A3 DUP2 PUSH3 0x185 JUMP JUMPDEST DUP3 MSTORE POP POP JUMP JUMPDEST PUSH0 PUSH1 0x20 DUP3 ADD SWAP1 POP PUSH3 0x1BE PUSH0 DUP4 ADD DUP5 PUSH3 0x198 JUMP JUMPDEST SWAP3 SWAP2 POP POP JUMP JUMPDEST PUSH1 0x80 MLOAD PUSH2 0x5B8F PUSH3 0x1EB PUSH0 CODECOPY PUSH0 DUP2 DUP2 PUSH2 0x1638 ADD MSTORE DUP2 DUP2 PUSH2 0x168D ADD MSTORE PUSH2 0x1847 ADD MSTORE PUSH2 0x5B8F PUSH0 RETURN INVALID PUSH1 0x80 PUSH1 0x40 MSTORE PUSH1 0x4 CALLDATASIZE LT PUSH2 0x1D7 JUMPI PUSH0 CALLDATALOAD PUSH1 0xE0 SHR DUP1 PUSH4 0x70A08231 GT PUSH2 0x101 JUMPI DUP1 PUSH4 0xA22CB465 GT PUSH2 0x94 JUMPI DUP1 PUSH4 0xC87B56DD GT PUSH2 0x63 JUMPI DUP1 PUSH4 0xC87B56DD EQ PUSH2 0x635 JUMPI DUP1 PUSH4 0xDBF51325 EQ PUSH2 0x671 JUMPI DUP1 PUSH4 0xE985E9C5 EQ PUSH2 0x699 JUMPI DUP1 PUSH4 0xF2FDE38B EQ PUSH2 0x6D5 JUMPI PUSH2 0x1D7 JUMP JUMPDEST DUP1 PUSH4 0xA22CB465 EQ PUSH2 0x593 JUMPI DUP1 PUSH4 0xAD3CB1CC EQ PUSH2 0x5BB JUMPI DUP1 PUSH4 0xB88D4FDE EQ PUSH2 0x5E5 JUMPI DUP1 PUSH4 0xC4D66DE8 EQ PUSH2 0x60D JUMPI PUSH2 0x1D7 JUMP JUMPDEST DUP1 PUSH4 0x8DA5CB5B GT PUSH2 0xD0 JUMPI DUP1 PUSH4 0x8DA5CB5B EQ PUSH2 0x4ED JUMPI DUP1 PUSH4 0x95D89B41 EQ PUSH2 0x517 JUMPI DUP1 PUSH4 0x961A7EAE EQ PUSH2 0x541 JUMPI DUP1 PUSH4 0xA1448194 EQ PUSH2 0x56B JUMPI PUSH2 0x1D7 JUMP JUMPDEST DUP1 PUSH4 0x70A08231 EQ PUSH2 0x45B JUMPI DUP1 PUSH4 0x715018A6 EQ PUSH2 0x497 JUMPI DUP1 PUSH4 0x7B103999 EQ PUSH2 0x4AD JUMPI DUP1 PUSH4 0x8456CB59 EQ PUSH2 0x4D7 JUMPI PUSH2 0x1D7 JUMP JUMPDEST DUP1 PUSH4 0x42842E0E GT PUSH2 0x179 JUMPI DUP1 PUSH4 0x5C975ABB GT PUSH2 0x148 JUMPI DUP1 PUSH4 0x5C975ABB EQ PUSH2 0x3A1 JUMPI DUP1 PUSH4 0x5DAB2420 EQ PUSH2 0x3CB JUMPI DUP1 PUSH4 0x6352211E EQ PUSH2 0x3F5 JUMPI DUP1 PUSH4 0x6C0360EB EQ PUSH2 0x431 JUMPI PUSH2 0x1D7 JUMP JUMPDEST DUP1 PUSH4 0x42842E0E EQ PUSH2 0x30B JUMPI DUP1 PUSH4 0x42966C68 EQ PUSH2 0x333 JUMPI DUP1 PUSH4 0x4F1EF286 EQ PUSH2 0x35B JUMPI DUP1 PUSH4 0x52D1902D EQ PUSH2 0x377 JUMPI PUSH2 0x1D7 JUMP JUMPDEST DUP1 PUSH4 0x95EA7B3 GT PUSH2 0x1B5 JUMPI DUP1 PUSH4 0x95EA7B3 EQ PUSH2 0x27D JUMPI DUP1 PUSH4 0x23B872DD EQ PUSH2 0x2A5 JUMPI DUP1 PUSH4 0x2A9ABCB9 EQ PUSH2 0x2CD JUMPI DUP1 PUSH4 0x3F4BA83A EQ PUSH2 0x2F5 JUMPI PUSH2 0x1D7 JUMP JUMPDEST DUP1 PUSH4 0x1FFC9A7 EQ PUSH2 0x1DB JUMPI DUP1 PUSH4 0x6FDDE03 EQ PUSH2 0x217 JUMPI DUP1 PUSH4 0x81812FC EQ PUSH2 0x241 JUMPI JUMPDEST PUSH0 DUP1 REVERT JUMPDEST CALLVALUE DUP1 ISZERO PUSH2 0x1E6 JUMPI PUSH0 DUP1 REVERT JUMPDEST POP PUSH2 0x201 PUSH1 0x4 DUP1 CALLDATASIZE SUB DUP2 ADD SWAP1 PUSH2 0x1FC SWAP2 SWAP1 PUSH2 0x2BB7 JUMP JUMPDEST PUSH2 0x6FD JUMP JUMPDEST PUSH1 0x40 MLOAD PUSH2 0x20E SWAP2 SWAP1 PUSH2 0x2BFC JUMP JUMPDEST PUSH1 0x40 MLOAD DUP1 SWAP2 SUB SWAP1 RETURN JUMPDEST CALLVALUE DUP1 ISZERO PUSH2 0x222 JUMPI PUSH0 DUP1 REVERT JUMPDEST POP PUSH2 0x22B PUSH2 0x7DE JUMP JUMPDEST PUSH1 0x40 MLOAD PUSH2 0x238 SWAP2 SWAP1 PUSH2 0x2C9F JUMP JUMPDEST PUSH1 0x40 MLOAD DUP1 SWAP2 SUB SWAP1 RETURN JUMPDEST CALLVALUE DUP1 ISZERO PUSH2 0x24C JUMPI PUSH0 DUP1 REVERT JUMPDEST POP PUSH2 0x267 PUSH1 0x4 DUP1 CALLDATASIZE SUB DUP2 ADD SWAP1 PUSH2 0x262 SWAP2 SWAP1 PUSH2 0x2CF2 JUMP JUMPDEST PUSH2 0x87B JUMP JUMPDEST PUSH1 0x40 MLOAD PUSH2 0x274 SWAP2 SWAP1 PUSH2 0x2D5C JUMP JUMPDEST PUSH1 0x40 MLOAD DUP1 SWAP2 SUB SWAP1 RETURN JUMPDEST CALLVALUE DUP1 ISZERO PUSH2 0x288 JUMPI PUSH0 DUP1 REVERT JUMPDEST POP PUSH2 0x2A3 PUSH1 0x4 DUP1 CALLDATASIZE SUB DUP2 ADD SWAP1 PUSH2 0x29E SWAP2 SWAP1 PUSH2 0x2D9F JUMP JUMPDEST PUSH2 0x896 JUMP JUMPDEST STOP JUMPDEST CALLVALUE DUP1 ISZERO PUSH2 0x2B0 JUMPI PUSH0 DUP1 REVERT JUMPDEST POP PUSH2 0x2CB PUSH1 0x4 DUP1 CALLDATASIZE SUB DUP2 ADD SWAP1 PUSH2 0x2C6 SWAP2 SWAP1 PUSH2 0x2DDD JUMP JUMPDEST PUSH2 0x8AC JUMP JUMPDEST STOP JUMPDEST CALLVALUE DUP1 ISZERO PUSH2 0x2D8 JUMPI PUSH0 DUP1 REVERT JUMPDEST POP PUSH2 0x2F3 PUSH1 0x4 DUP1 CALLDATASIZE SUB DUP2 ADD SWAP1 PUSH2 0x2EE SWAP2 SWAP1 PUSH2 0x2F83 JUMP JUMPDEST PUSH2 0x9AB JUMP JUMPDEST STOP JUMPDEST CALLVALUE DUP1 ISZERO PUSH2 0x300 JUMPI PUSH0 DUP1 REVERT JUMPDEST POP PUSH2 0x309 PUSH2 0xA15 JUMP JUMPDEST STOP JUMPDEST CALLVALUE DUP1 ISZERO PUSH2 0x316 JUMPI PUSH0 DUP1 REVERT JUMPDEST POP PUSH2 0x331 PUSH1 0x4 DUP1 CALLDATASIZE SUB DUP2 ADD SWAP1 PUSH2 0x32C SWAP2 SWAP1 PUSH2 0x2DDD JUMP JUMPDEST PUSH2 0xA27 JUMP JUMPDEST STOP JUMPDEST CALLVALUE DUP1 ISZERO PUSH2 0x33E JUMPI PUSH0 DUP1 REVERT JUMPDEST POP PUSH2 0x359 PUSH1 0x4 DUP1 CALLDATASIZE SUB DUP2 ADD SWAP1 PUSH2 0x354 SWAP2 SWAP1 PUSH2 0x2CF2 JUMP JUMPDEST PUSH2 0xA46 JUMP JUMPDEST STOP JUMPDEST PUSH2 0x375 PUSH1 0x4 DUP1 CALLDATASIZE SUB DUP2 ADD SWAP1 PUSH2 0x370 SWAP2 SWAP1 PUSH2 0x308D JUMP JUMPDEST PUSH2 0xA5C JUMP JUMPDEST STOP JUMPDEST CALLVALUE DUP1 ISZERO PUSH2 0x382 JUMPI PUSH0 DUP1 REVERT JUMPDEST POP PUSH2 0x38B PUSH2 0xA7B JUMP JUMPDEST PUSH1 0x40 MLOAD PUSH2 0x398 SWAP2 SWAP1 PUSH2 0x30FF JUMP JUMPDEST PUSH1 0x40 MLOAD DUP1 SWAP2 SUB SWAP1 RETURN JUMPDEST CALLVALUE DUP1 ISZERO PUSH2 0x3AC JUMPI PUSH0 DUP1 REVERT JUMPDEST POP PUSH2 0x3B5 PUSH2 0xAAC JUMP JUMPDEST PUSH1 0x40 MLOAD PUSH2 0x3C2 SWAP2 SWAP1 PUSH2 0x2BFC JUMP JUMPDEST PUSH1 0x40 MLOAD DUP1 SWAP2 SUB SWAP1 RETURN JUMPDEST CALLVALUE DUP1 ISZERO PUSH2 0x3D6 JUMPI PUSH0 DUP1 REVERT JUMPDEST POP PUSH2 0x3DF PUSH2 0xACE JUMP JUMPDEST PUSH1 0x40 MLOAD PUSH2 0x3EC SWAP2 SWAP1 PUSH2 0x3173 JUMP JUMPDEST PUSH1 0x40 MLOAD DUP1 SWAP2 SUB SWAP1 RETURN JUMPDEST CALLVALUE DUP1 ISZERO PUSH2 0x400 JUMPI PUSH0 DUP1 REVERT JUMPDEST POP PUSH2 0x41B PUSH1 0x4 DUP1 CALLDATASIZE SUB DUP2 ADD SWAP1 PUSH2 0x416 SWAP2 SWAP1 PUSH2 0x2CF2 JUMP JUMPDEST PUSH2 0xAF3 JUMP JUMPDEST PUSH1 0x40 MLOAD PUSH2 0x428 SWAP2 SWAP1 PUSH2 0x2D5C JUMP JUMPDEST PUSH1 0x40 MLOAD DUP1 SWAP2 SUB SWAP1 RETURN JUMPDEST CALLVALUE DUP1 ISZERO PUSH2 0x43C JUMPI PUSH0 DUP1 REVERT JUMPDEST POP PUSH2 0x445 PUSH2 0xB04 JUMP JUMPDEST PUSH1 0x40 MLOAD PUSH2 0x452 SWAP2 SWAP1 PUSH2 0x2C9F JUMP JUMPDEST PUSH1 0x40 MLOAD DUP1 SWAP2 SUB SWAP1 RETURN JUMPDEST CALLVALUE DUP1 ISZERO PUSH2 0x466 JUMPI PUSH0 DUP1 REVERT JUMPDEST POP PUSH2 0x481 PUSH1 0x4 DUP1 CALLDATASIZE SUB DUP2 ADD SWAP1 PUSH2 0x47C SWAP2 SWAP1 PUSH2 0x318C JUMP JUMPDEST PUSH2 0xB90 JUMP JUMPDEST PUSH1 0x40 MLOAD PUSH2 0x48E SWAP2 SWAP1 PUSH2 0x31C6 JUMP JUMPDEST PUSH1 0x40 MLOAD DUP1 SWAP2 SUB SWAP1 RETURN JUMPDEST CALLVALUE DUP1 ISZERO PUSH2 0x4A2 JUMPI PUSH0 DUP1 REVERT JUMPDEST POP PUSH2 0x4AB PUSH2 0xC54 JUMP JUMPDEST STOP JUMPDEST CALLVALUE DUP1 ISZERO PUSH2 0x4B8 JUMPI PUSH0 DUP1 REVERT JUMPDEST POP PUSH2 0x4C1 PUSH2 0xC67 JUMP JUMPDEST PUSH1 0x40 MLOAD PUSH2 0x4CE SWAP2 SWAP1 PUSH2 0x3210 JUMP JUMPDEST PUSH1 0x40 MLOAD DUP1 SWAP2 SUB SWAP1 RETURN JUMPDEST CALLVALUE DUP1 ISZERO PUSH2 0x4E2 JUMPI PUSH0 DUP1 REVERT JUMPDEST POP PUSH2 0x4EB PUSH2 0xC8A JUMP JUMPDEST STOP JUMPDEST CALLVALUE DUP1 ISZERO PUSH2 0x4F8 JUMPI PUSH0 DUP1 REVERT JUMPDEST POP PUSH2 0x501 PUSH2 0xC9C JUMP JUMPDEST PUSH1 0x40 MLOAD PUSH2 0x50E SWAP2 SWAP1 PUSH2 0x2D5C JUMP JUMPDEST PUSH1 0x40 MLOAD DUP1 SWAP2 SUB SWAP1 RETURN JUMPDEST CALLVALUE DUP1 ISZERO PUSH2 0x522 JUMPI PUSH0 DUP1 REVERT JUMPDEST POP PUSH2 0x52B PUSH2 0xCD1 JUMP JUMPDEST PUSH1 0x40 MLOAD PUSH2 0x538 SWAP2 SWAP1 PUSH2 0x2C9F JUMP JUMPDEST PUSH1 0x40 MLOAD DUP1 SWAP2 SUB SWAP1 RETURN JUMPDEST CALLVALUE DUP1 ISZERO PUSH2 0x54C JUMPI PUSH0 DUP1 REVERT JUMPDEST POP PUSH2 0x555 PUSH2 0xD6F JUMP JUMPDEST PUSH1 0x40 MLOAD PUSH2 0x562 SWAP2 SWAP1 PUSH2 0x2BFC JUMP JUMPDEST PUSH1 0x40 MLOAD DUP1 SWAP2 SUB SWAP1 RETURN JUMPDEST CALLVALUE DUP1 ISZERO PUSH2 0x576 JUMPI PUSH0 DUP1 REVERT JUMPDEST POP PUSH2 0x591 PUSH1 0x4 DUP1 CALLDATASIZE SUB DUP2 ADD SWAP1 PUSH2 0x58C SWAP2 SWAP1 PUSH2 0x2D9F JUMP JUMPDEST PUSH2 0xD81 JUMP JUMPDEST STOP JUMPDEST CALLVALUE DUP1 ISZERO PUSH2 0x59E JUMPI PUSH0 DUP1 REVERT JUMPDEST POP PUSH2 0x5B9 PUSH1 0x4 DUP1 CALLDATASIZE SUB DUP2 ADD SWAP1 PUSH2 0x5B4 SWAP2 SWAP1 PUSH2 0x3229 JUMP JUMPDEST PUSH2 0xDF5 JUMP JUMPDEST STOP JUMPDEST CALLVALUE DUP1 ISZERO PUSH2 0x5C6 JUMPI PUSH0 DUP1 REVERT JUMPDEST POP PUSH2 0x5CF PUSH2 0xE0B JUMP JUMPDEST PUSH1 0x40 MLOAD PUSH2 0x5DC SWAP2 SWAP1 PUSH2 0x2C9F JUMP JUMPDEST PUSH1 0x40 MLOAD DUP1 SWAP2 SUB SWAP1 RETURN JUMPDEST CALLVALUE DUP1 ISZERO PUSH2 0x5F0 JUMPI PUSH0 DUP1 REVERT JUMPDEST POP PUSH2 0x60B PUSH1 0x4 DUP1 CALLDATASIZE SUB DUP2 ADD SWAP1 PUSH2 0x606 SWAP2 SWAP1 PUSH2 0x3267 JUMP JUMPDEST PUSH2 0xE44 JUMP JUMPDEST STOP JUMPDEST CALLVALUE DUP1 ISZERO PUSH2 0x618 JUMPI PUSH0 DUP1 REVERT JUMPDEST POP PUSH2 0x633 PUSH1 0x4 DUP1 CALLDATASIZE SUB DUP2 ADD SWAP1 PUSH2 0x62E SWAP2 SWAP1 PUSH2 0x318C JUMP JUMPDEST PUSH2 0xE61 JUMP JUMPDEST STOP JUMPDEST CALLVALUE DUP1 ISZERO PUSH2 0x640 JUMPI PUSH0 DUP1 REVERT JUMPDEST POP PUSH2 0x65B PUSH1 0x4 DUP1 CALLDATASIZE SUB DUP2 ADD SWAP1 PUSH2 0x656 SWAP2 SWAP1 PUSH2 0x2CF2 JUMP JUMPDEST PUSH2 0x1137 JUMP JUMPDEST PUSH1 0x40 MLOAD PUSH2 0x668 SWAP2 SWAP1 PUSH2 0x2C9F JUMP JUMPDEST PUSH1 0x40 MLOAD DUP1 SWAP2 SUB SWAP1 RETURN JUMPDEST CALLVALUE DUP1 ISZERO PUSH2 0x67C JUMPI PUSH0 DUP1 REVERT JUMPDEST POP PUSH2 0x697 PUSH1 0x4 DUP1 CALLDATASIZE SUB DUP2 ADD SWAP1 PUSH2 0x692 SWAP2 SWAP1 PUSH2 0x2CF2 JUMP JUMPDEST PUSH2 0x1282 JUMP JUMPDEST STOP JUMPDEST CALLVALUE DUP1 ISZERO PUSH2 0x6A4 JUMPI PUSH0 DUP1 REVERT JUMPDEST POP PUSH2 0x6BF PUSH1 0x4 DUP1 CALLDATASIZE SUB DUP2 ADD SWAP1 PUSH2 0x6BA SWAP2 SWAP1 PUSH2 0x32E7 JUMP JUMPDEST PUSH2 0x1296 JUMP JUMPDEST PUSH1 0x40 MLOAD PUSH2 0x6CC SWAP2 SWAP1 PUSH2 0x2BFC JUMP JUMPDEST PUSH1 0x40 MLOAD DUP1 SWAP2 SUB SWAP1 RETURN JUMPDEST CALLVALUE DUP1 ISZERO PUSH2 0x6E0 JUMPI PUSH0 DUP1 REVERT JUMPDEST POP PUSH2 0x6FB PUSH1 0x4 DUP1 CALLDATASIZE SUB DUP2 ADD SWAP1 PUSH2 0x6F6 SWAP2 SWAP1 PUSH2 0x318C JUMP JUMPDEST PUSH2 0x1332 JUMP JUMPDEST STOP JUMPDEST PUSH0 PUSH32 0x80AC58CD00000000000000000000000000000000000000000000000000000000 PUSH28 0xFFFFFFFFFFFFFFFFFFFFFFFFFFFFFFFFFFFFFFFFFFFFFFFFFFFFFFFF NOT AND DUP3 PUSH28 0xFFFFFFFFFFFFFFFFFFFFFFFFFFFFFFFFFFFFFFFFFFFFFFFFFFFFFFFF NOT AND EQ DUP1 PUSH2 0x7C7 JUMPI POP PUSH32 0x5B5E139F00000000000000000000000000000000000000000000000000000000 PUSH28 0xFFFFFFFFFFFFFFFFFFFFFFFFFFFFFFFFFFFFFFFFFFFFFFFFFFFFFFFF NOT AND DUP3 PUSH28 0xFFFFFFFFFFFFFFFFFFFFFFFFFFFFFFFFFFFFFFFFFFFFFFFFFFFFFFFF NOT AND EQ JUMPDEST DUP1 PUSH2 0x7D7 JUMPI POP PUSH2 0x7D6 DUP3 PUSH2 0x13B6 JUMP JUMPDEST JUMPDEST SWAP1 POP SWAP2 SWAP1 POP JUMP JUMPDEST PUSH1 0x60 PUSH0 PUSH2 0x7E9 PUSH2 0x141F JUMP JUMPDEST SWAP1 POP DUP1 PUSH0 ADD DUP1 SLOAD PUSH2 0x7F9 SWAP1 PUSH2 0x3352 JUMP JUMPDEST DUP1 PUSH1 0x1F ADD PUSH1 0x20 DUP1 SWAP2 DIV MUL PUSH1 0x20 ADD PUSH1 0x40 MLOAD SWAP1 DUP2 ADD PUSH1 0x40 MSTORE DUP1 SWAP3 SWAP2 SWAP1 DUP2 DUP2 MSTORE PUSH1 0x20 ADD DUP3 DUP1 SLOAD PUSH2 0x825 SWAP1 PUSH2 0x3352 JUMP JUMPDEST DUP1 ISZERO PUSH2 0x870 JUMPI DUP1 PUSH1 0x1F LT PUSH2 0x847 JUMPI PUSH2 0x100 DUP1 DUP4 SLOAD DIV MUL DUP4 MSTORE SWAP2 PUSH1 0x20 ADD SWAP2 PUSH2 0x870 JUMP JUMPDEST DUP3 ADD SWAP2 SWAP1 PUSH0 MSTORE PUSH1 0x20 PUSH0 KECCAK256 SWAP1 JUMPDEST DUP2 SLOAD DUP2 MSTORE SWAP1 PUSH1 0x1 ADD SWAP1 PUSH1 0x20 ADD DUP1 DUP4 GT PUSH2 0x853 JUMPI DUP3 SWAP1 SUB PUSH1 0x1F AND DUP3 ADD SWAP2 JUMPDEST POP POP POP POP POP SWAP2 POP POP SWAP1 JUMP JUMPDEST PUSH0 PUSH2 0x885 DUP3 PUSH2 0x1446 JUMP JUMPDEST POP PUSH2 0x88F DUP3 PUSH2 0x14CC JUMP JUMPDEST SWAP1 POP SWAP2 SWAP1 POP JUMP JUMPDEST PUSH2 0x8A8 DUP3 DUP3 PUSH2 0x8A3 PUSH2 0x1513 JUMP JUMPDEST PUSH2 0x151A JUMP JUMPDEST POP POP JUMP JUMPDEST PUSH0 PUSH20 0xFFFFFFFFFFFFFFFFFFFFFFFFFFFFFFFFFFFFFFFF AND DUP3 PUSH20 0xFFFFFFFFFFFFFFFFFFFFFFFFFFFFFFFFFFFFFFFF AND SUB PUSH2 0x91C JUMPI PUSH0 PUSH1 0x40 MLOAD PUSH32 0x64A0AE9200000000000000000000000000000000000000000000000000000000 DUP2 MSTORE PUSH1 0x4 ADD PUSH2 0x913 SWAP2 SWAP1 PUSH2 0x2D5C JUMP JUMPDEST PUSH1 0x40 MLOAD DUP1 SWAP2 SUB SWAP1 REVERT JUMPDEST PUSH0 PUSH2 0x92F DUP4 DUP4 PUSH2 0x92A PUSH2 0x1513 JUMP JUMPDEST PUSH2 0x152C JUMP JUMPDEST SWAP1 POP DUP4 PUSH20 0xFFFFFFFFFFFFFFFFFFFFFFFFFFFFFFFFFFFFFFFF AND DUP2 PUSH20 0xFFFFFFFFFFFFFFFFFFFFFFFFFFFFFFFFFFFFFFFF AND EQ PUSH2 0x9A5 JUMPI DUP4 DUP3 DUP3 PUSH1 0x40 MLOAD PUSH32 0x64283D7B00000000000000000000000000000000000000000000000000000000 DUP2 MSTORE PUSH1 0x4 ADD PUSH2 0x99C SWAP4 SWAP3 SWAP2 SWAP1 PUSH2 0x3382 JUMP JUMPDEST PUSH1 0x40 MLOAD DUP1 SWAP2 SUB SWAP1 REVERT JUMPDEST POP POP POP POP JUMP JUMPDEST PUSH2 0x9B3 PUSH2 0x1541 JUMP JUMPDEST DUP2 PUSH1 0x2 PUSH0 DUP6 DUP2 MSTORE PUSH1 0x20 ADD SWAP1 DUP2 MSTORE PUSH1 0x20 ADD PUSH0 KECCAK256 SWAP1 DUP2 PUSH2 0x9D1 SWAP2 SWAP1 PUSH2 0x354B JUMP JUMPDEST POP DUP1 PUSH1 0x3 PUSH0 PUSH2 0x100 EXP DUP2 SLOAD DUP2 PUSH1 0xFF MUL NOT AND SWAP1 DUP4 ISZERO ISZERO MUL OR SWAP1 SSTORE POP PUSH1 0x3 PUSH0 SWAP1 SLOAD SWAP1 PUSH2 0x100 EXP SWAP1 DIV PUSH1 0xFF AND ISZERO PUSH2 0xA10 JUMPI DUP2 PUSH1 0x4 SWAP1 DUP2 PUSH2 0xA0E SWAP2 SWAP1 PUSH2 0x354B JUMP JUMPDEST POP JUMPDEST POP POP POP JUMP JUMPDEST PUSH2 0xA1D PUSH2 0x1541 JUMP JUMPDEST PUSH2 0xA25 PUSH2 0x15C8 JUMP JUMPDEST JUMP JUMPDEST PUSH2 0xA41 DUP4 DUP4 DUP4 PUSH1 0x40 MLOAD DUP1 PUSH1 0x20 ADD PUSH1 0x40 MSTORE DUP1 PUSH0 DUP2 MSTORE POP PUSH2 0xE44 JUMP JUMPDEST POP POP POP JUMP JUMPDEST PUSH2 0xA58 PUSH0 DUP3 PUSH2 0xA53 PUSH2 0x1513 JUMP JUMPDEST PUSH2 0x152C JUMP JUMPDEST POP POP JUMP JUMPDEST PUSH2 0xA64 PUSH2 0x1636 JUMP JUMPDEST PUSH2 0xA6D DUP3 PUSH2 0x171C JUMP JUMPDEST PUSH2 0xA77 DUP3 DUP3 PUSH2 0x1727 JUMP JUMPDEST POP POP JUMP JUMPDEST PUSH0 PUSH2 0xA84 PUSH2 0x1845 JUMP JUMPDEST PUSH32 0x360894A13BA1A3210667C828492DB98DCA3E2076CC3735A920A3CA505D382BBC PUSH0 SHL SWAP1 POP SWAP1 JUMP JUMPDEST PUSH0 DUP1 PUSH2 0xAB6 PUSH2 0x18CC JUMP JUMPDEST SWAP1 POP DUP1 PUSH0 ADD PUSH0 SWAP1 SLOAD SWAP1 PUSH2 0x100 EXP SWAP1 DIV PUSH1 0xFF AND SWAP2 POP POP SWAP1 JUMP JUMPDEST PUSH1 0x1 PUSH0 SWAP1 SLOAD SWAP1 PUSH2 0x100 EXP SWAP1 DIV PUSH20 0xFFFFFFFFFFFFFFFFFFFFFFFFFFFFFFFFFFFFFFFF AND DUP2 JUMP JUMPDEST PUSH0 PUSH2 0xAFD DUP3 PUSH2 0x1446 JUMP JUMPDEST SWAP1 POP SWAP2 SWAP1 POP JUMP JUMPDEST PUSH1 0x4 DUP1 SLOAD PUSH2 0xB11 SWAP1 PUSH2 0x3352 JUMP JUMPDEST DUP1 PUSH1 0x1F ADD PUSH1 0x20 DUP1 SWAP2 DIV MUL PUSH1 0x20 ADD PUSH1 0x40 MLOAD SWAP1 DUP2 ADD PUSH1 0x40 MSTORE DUP1 SWAP3 SWAP2 SWAP1 DUP2 DUP2 MSTORE PUSH1 0x20 ADD DUP3 DUP1 SLOAD PUSH2 0xB3D SWAP1 PUSH2 0x3352 JUMP JUMPDEST DUP1 ISZERO PUSH2 0xB88 JUMPI DUP1 PUSH1 0x1F LT PUSH2 0xB5F JUMPI PUSH2 0x100 DUP1 DUP4 SLOAD DIV MUL DUP4 MSTORE SWAP2 PUSH1 0x20 ADD SWAP2 PUSH2 0xB88 JUMP JUMPDEST DUP3 ADD SWAP2 SWAP1 PUSH0 MSTORE PUSH1 0x20 PUSH0 KECCAK256 SWAP1 JUMPDEST DUP2 SLOAD DUP2 MSTORE SWAP1 PUSH1 0x1 ADD SWAP1 PUSH1 0x20 ADD DUP1 DUP4 GT PUSH2 0xB6B JUMPI DUP3 SWAP1 SUB PUSH1 0x1F AND DUP3 ADD SWAP2 JUMPDEST POP POP POP POP POP DUP2 JUMP JUMPDEST PUSH0 DUP1 PUSH2 0xB9A PUSH2 0x141F JUMP JUMPDEST SWAP1 POP PUSH0 PUSH20 0xFFFFFFFFFFFFFFFFFFFFFFFFFFFFFFFFFFFFFFFF AND DUP4 PUSH20 0xFFFFFFFFFFFFFFFFFFFFFFFFFFFFFFFFFFFFFFFF AND SUB PUSH2 0xC0C JUMPI PUSH0 PUSH1 0x40 MLOAD PUSH32 0x89C62B6400000000000000000000000000000000000000000000000000000000 DUP2 MSTORE PUSH1 0x4 ADD PUSH2 0xC03 SWAP2 SWAP1 PUSH2 0x2D5C JUMP JUMPDEST PUSH1 0x40 MLOAD DUP1 SWAP2 SUB SWAP1 REVERT JUMPDEST DUP1 PUSH1 0x3 ADD PUSH0 DUP5 PUSH20 0xFFFFFFFFFFFFFFFFFFFFFFFFFFFFFFFFFFFFFFFF AND PUSH20 0xFFFFFFFFFFFFFFFFFFFFFFFFFFFFFFFFFFFFFFFF AND DUP2 MSTORE PUSH1 0x20 ADD SWAP1 DUP2 MSTORE PUSH1 0x20 ADD PUSH0 KECCAK256 SLOAD SWAP2 POP POP SWAP2 SWAP1 POP JUMP JUMPDEST PUSH2 0xC5C PUSH2 0x1541 JUMP JUMPDEST PUSH2 0xC65 PUSH0 PUSH2 0x18F3 JUMP JUMPDEST JUMP JUMPDEST PUSH0 DUP1 SLOAD SWAP1 PUSH2 0x100 EXP SWAP1 DIV PUSH20 0xFFFFFFFFFFFFFFFFFFFFFFFFFFFFFFFFFFFFFFFF AND DUP2 JUMP JUMPDEST PUSH2 0xC92 PUSH2 0x1541 JUMP JUMPDEST PUSH2 0xC9A PUSH2 0x19C4 JUMP JUMPDEST JUMP JUMPDEST PUSH0 DUP1 PUSH2 0xCA6 PUSH2 0x1A33 JUMP JUMPDEST SWAP1 POP DUP1 PUSH0 ADD PUSH0 SWAP1 SLOAD SWAP1 PUSH2 0x100 EXP SWAP1 DIV PUSH20 0xFFFFFFFFFFFFFFFFFFFFFFFFFFFFFFFFFFFFFFFF AND SWAP2 POP POP SWAP1 JUMP JUMPDEST PUSH1 0x60 PUSH0 PUSH2 0xCDC PUSH2 0x141F JUMP JUMPDEST SWAP1 POP DUP1 PUSH1 0x1 ADD DUP1 SLOAD PUSH2 0xCED SWAP1 PUSH2 0x3352 JUMP JUMPDEST DUP1 PUSH1 0x1F ADD PUSH1 0x20 DUP1 SWAP2 DIV MUL PUSH1 0x20 ADD PUSH1 0x40 MLOAD SWAP1 DUP2 ADD PUSH1 0x40 MSTORE DUP1 SWAP3 SWAP2 SWAP1 DUP2 DUP2 MSTORE PUSH1 0x20 ADD DUP3 DUP1 SLOAD PUSH2 0xD19 SWAP1 PUSH2 0x3352 JUMP JUMPDEST DUP1 ISZERO PUSH2 0xD64 JUMPI DUP1 PUSH1 0x1F LT PUSH2 0xD3B JUMPI PUSH2 0x100 DUP1 DUP4 SLOAD DIV MUL DUP4 MSTORE SWAP2 PUSH1 0x20 ADD SWAP2 PUSH2 0xD64 JUMP JUMPDEST DUP3 ADD SWAP2 SWAP1 PUSH0 MSTORE PUSH1 0x20 PUSH0 KECCAK256 SWAP1 JUMPDEST DUP2 SLOAD DUP2 MSTORE SWAP1 PUSH1 0x1 ADD SWAP1 PUSH1 0x20 ADD DUP1 DUP4 GT PUSH2 0xD47 JUMPI DUP3 SWAP1 SUB PUSH1 0x1F AND DUP3 ADD SWAP2 JUMPDEST POP POP POP POP POP SWAP2 POP POP SWAP1 JUMP JUMPDEST PUSH1 0x3 PUSH0 SWAP1 SLOAD SWAP1 PUSH2 0x100 EXP SWAP1 DIV PUSH1 0xFF AND DUP2 JUMP JUMPDEST PUSH2 0xD89 PUSH2 0x1541 JUMP JUMPDEST PUSH2 0xD93 DUP3 DUP3 PUSH2 0x1A5A JUMP JUMPDEST PUSH0 PUSH2 0xD9E ADDRESS DUP4 PUSH2 0x1A77 JUMP JUMPDEST SWAP1 POP DUP1 PUSH20 0xFFFFFFFFFFFFFFFFFFFFFFFFFFFFFFFFFFFFFFFF AND PUSH32 0xA0038D61AC7F17FE47F8776A0CF1E4845408CDCA012144F1B7A61BC084E2EAA5 ADDRESS DUP5 PUSH1 0x40 MLOAD PUSH2 0xDE8 SWAP3 SWAP2 SWAP1 PUSH2 0x361A JUMP JUMPDEST PUSH1 0x40 MLOAD DUP1 SWAP2 SUB SWAP1 LOG2 POP POP POP JUMP JUMPDEST PUSH2 0xE07 PUSH2 0xE00 PUSH2 0x1513 JUMP JUMPDEST DUP4 DUP4 PUSH2 0x1B44 JUMP JUMPDEST POP POP JUMP JUMPDEST PUSH1 0x40 MLOAD DUP1 PUSH1 0x40 ADD PUSH1 0x40 MSTORE DUP1 PUSH1 0x5 DUP2 MSTORE PUSH1 0x20 ADD PUSH32 0x352E302E30000000000000000000000000000000000000000000000000000000 DUP2 MSTORE POP DUP2 JUMP JUMPDEST PUSH2 0xE4F DUP5 DUP5 DUP5 PUSH2 0x8AC JUMP JUMPDEST PUSH2 0xE5B DUP5 DUP5 DUP5 DUP5 PUSH2 0x1CBB JUMP JUMPDEST POP POP POP POP JUMP JUMPDEST PUSH0 PUSH2 0xE6A PUSH2 0x1E6D JUMP JUMPDEST SWAP1 POP PUSH0 DUP2 PUSH0 ADD PUSH1 0x8 SWAP1 SLOAD SWAP1 PUSH2 0x100 EXP SWAP1 DIV PUSH1 0xFF AND ISZERO SWAP1 POP PUSH0 DUP3 PUSH0 ADD PUSH0 SWAP1 SLOAD SWAP1 PUSH2 0x100 EXP SWAP1 DIV PUSH8 0xFFFFFFFFFFFFFFFF AND SWAP1 POP PUSH0 DUP1 DUP3 PUSH8 0xFFFFFFFFFFFFFFFF AND EQ DUP1 ISZERO PUSH2 0xEB2 JUMPI POP DUP3 JUMPDEST SWAP1 POP PUSH0 PUSH1 0x1 DUP4 PUSH8 0xFFFFFFFFFFFFFFFF AND EQ DUP1 ISZERO PUSH2 0xEE5 JUMPI POP PUSH0 ADDRESS PUSH20 0xFFFFFFFFFFFFFFFFFFFFFFFFFFFFFFFFFFFFFFFF AND EXTCODESIZE EQ JUMPDEST SWAP1 POP DUP2 ISZERO DUP1 ISZERO PUSH2 0xEF3 JUMPI POP DUP1 ISZERO JUMPDEST ISZERO PUSH2 0xF2A JUMPI PUSH1 0x40 MLOAD PUSH32 0xF92EE8A900000000000000000000000000000000000000000000000000000000 DUP2 MSTORE PUSH1 0x4 ADD PUSH1 0x40 MLOAD DUP1 SWAP2 SUB SWAP1 REVERT JUMPDEST PUSH1 0x1 DUP6 PUSH0 ADD PUSH0 PUSH2 0x100 EXP DUP2 SLOAD DUP2 PUSH8 0xFFFFFFFFFFFFFFFF MUL NOT AND SWAP1 DUP4 PUSH8 0xFFFFFFFFFFFFFFFF AND MUL OR SWAP1 SSTORE POP DUP4 ISZERO PUSH2 0xF77 JUMPI PUSH1 0x1 DUP6 PUSH0 ADD PUSH1 0x8 PUSH2 0x100 EXP DUP2 SLOAD DUP2 PUSH1 0xFF MUL NOT AND SWAP1 DUP4 ISZERO ISZERO MUL OR SWAP1 SSTORE POP JUMPDEST PUSH2 0xFEB PUSH1 0x40 MLOAD DUP1 PUSH1 0x40 ADD PUSH1 0x40 MSTORE DUP1 PUSH1 0xA DUP2 MSTORE PUSH1 0x20 ADD PUSH32 0x436F72654D6F64756C6500000000000000000000000000000000000000000000 DUP2 MSTORE POP PUSH1 0x40 MLOAD DUP1 PUSH1 0x40 ADD PUSH1 0x40 MSTORE DUP1 PUSH1 0x5 DUP2 MSTORE PUSH1 0x20 ADD PUSH32 0x53454E5453000000000000000000000000000000000000000000000000000000 DUP2 MSTORE POP PUSH2 0x1E94 JUMP JUMPDEST PUSH2 0xFF3 PUSH2 0x1EAA JUMP JUMPDEST PUSH2 0xFFC DUP7 PUSH2 0x1EBC JUMP JUMPDEST PUSH2 0x1004 PUSH2 0x1ED0 JUMP JUMPDEST PUSH2 0x100C PUSH2 0x1EDA JUMP JUMPDEST PUSH1 0x40 MLOAD PUSH2 0x1018 SWAP1 PUSH2 0x2B37 JUMP JUMPDEST PUSH1 0x40 MLOAD DUP1 SWAP2 SUB SWAP1 PUSH0 CREATE DUP1 ISZERO DUP1 ISZERO PUSH2 0x1031 JUMPI RETURNDATASIZE PUSH0 DUP1 RETURNDATACOPY RETURNDATASIZE PUSH0 REVERT JUMPDEST POP PUSH0 DUP1 PUSH2 0x100 EXP DUP2 SLOAD DUP2 PUSH20 0xFFFFFFFFFFFFFFFFFFFFFFFFFFFFFFFFFFFFFFFF MUL NOT AND SWAP1 DUP4 PUSH20 0xFFFFFFFFFFFFFFFFFFFFFFFFFFFFFFFFFFFFFFFF AND MUL OR SWAP1 SSTORE POP PUSH1 0x40 MLOAD PUSH2 0x107C SWAP1 PUSH2 0x2B44 JUMP JUMPDEST PUSH1 0x40 MLOAD DUP1 SWAP2 SUB SWAP1 PUSH0 CREATE DUP1 ISZERO DUP1 ISZERO PUSH2 0x1095 JUMPI RETURNDATASIZE PUSH0 DUP1 RETURNDATACOPY RETURNDATASIZE PUSH0 REVERT JUMPDEST POP PUSH1 0x1 PUSH0 PUSH2 0x100 EXP DUP2 SLOAD DUP2 PUSH20 0xFFFFFFFFFFFFFFFFFFFFFFFFFFFFFFFFFFFFFFFF MUL NOT AND SWAP1 DUP4 PUSH20 0xFFFFFFFFFFFFFFFFFFFFFFFFFFFFFFFFFFFFFFFF AND MUL OR SWAP1 SSTORE POP DUP4 ISZERO PUSH2 0x112F JUMPI PUSH0 DUP6 PUSH0 ADD PUSH1 0x8 PUSH2 0x100 EXP DUP2 SLOAD DUP2 PUSH1 0xFF MUL NOT AND SWAP1 DUP4 ISZERO ISZERO MUL OR SWAP1 SSTORE POP PUSH32 0xC7F505B2F371AE2175EE4913F4499E1F2633A7B5936321EED1CDAEB6115181D2 PUSH1 0x1 PUSH1 0x40 MLOAD PUSH2 0x1126 SWAP2 SWAP1 PUSH2 0x368D JUMP JUMPDEST PUSH1 0x40 MLOAD DUP1 SWAP2 SUB SWAP1 LOG1 JUMPDEST POP POP POP POP POP POP JUMP JUMPDEST PUSH1 0x60 PUSH1 0x3 PUSH0 SWAP1 SLOAD SWAP1 PUSH2 0x100 EXP SWAP1 DIV PUSH1 0xFF AND ISZERO PUSH2 0x11DD JUMPI PUSH1 0x4 DUP1 SLOAD PUSH2 0x115A SWAP1 PUSH2 0x3352 JUMP JUMPDEST DUP1 PUSH1 0x1F ADD PUSH1 0x20 DUP1 SWAP2 DIV MUL PUSH1 0x20 ADD PUSH1 0x40 MLOAD SWAP1 DUP2 ADD PUSH1 0x40 MSTORE DUP1 SWAP3 SWAP2 SWAP1 DUP2 DUP2 MSTORE PUSH1 0x20 ADD DUP3 DUP1 SLOAD PUSH2 0x1186 SWAP1 PUSH2 0x3352 JUMP JUMPDEST DUP1 ISZERO PUSH2 0x11D1 JUMPI DUP1 PUSH1 0x1F LT PUSH2 0x11A8 JUMPI PUSH2 0x100 DUP1 DUP4 SLOAD DIV MUL DUP4 MSTORE SWAP2 PUSH1 0x20 ADD SWAP2 PUSH2 0x11D1 JUMP JUMPDEST DUP3 ADD SWAP2 SWAP1 PUSH0 MSTORE PUSH1 0x20 PUSH0 KECCAK256 SWAP1 JUMPDEST DUP2 SLOAD DUP2 MSTORE SWAP1 PUSH1 0x1 ADD SWAP1 PUSH1 0x20 ADD DUP1 DUP4 GT PUSH2 0x11B4 JUMPI DUP3 SWAP1 SUB PUSH1 0x1F AND DUP3 ADD SWAP2 JUMPDEST POP POP POP POP POP SWAP1 POP PUSH2 0x127D JUMP JUMPDEST PUSH0 PUSH1 0x2 PUSH0 DUP5 DUP2 MSTORE PUSH1 0x20 ADD SWAP1 DUP2 MSTORE PUSH1 0x20 ADD PUSH0 KECCAK256 DUP1 SLOAD PUSH2 0x11FA SWAP1 PUSH2 0x3352 JUMP JUMPDEST DUP1 PUSH1 0x1F ADD PUSH1 0x20 DUP1 SWAP2 DIV MUL PUSH1 0x20 ADD PUSH1 0x40 MLOAD SWAP1 DUP2 ADD PUSH1 0x40 MSTORE DUP1 SWAP3 SWAP2 SWAP1 DUP2 DUP2 MSTORE PUSH1 0x20 ADD DUP3 DUP1 SLOAD PUSH2 0x1226 SWAP1 PUSH2 0x3352 JUMP JUMPDEST DUP1 ISZERO PUSH2 0x1271 JUMPI DUP1 PUSH1 0x1F LT PUSH2 0x1248 JUMPI PUSH2 0x100 DUP1 DUP4 SLOAD DIV MUL DUP4 MSTORE SWAP2 PUSH1 0x20 ADD SWAP2 PUSH2 0x1271 JUMP JUMPDEST DUP3 ADD SWAP2 SWAP1 PUSH0 MSTORE PUSH1 0x20 PUSH0 KECCAK256 SWAP1 JUMPDEST DUP2 SLOAD DUP2 MSTORE SWAP1 PUSH1 0x1 ADD SWAP1 PUSH1 0x20 ADD DUP1 DUP4 GT PUSH2 0x1254 JUMPI DUP3 SWAP1 SUB PUSH1 0x1F AND DUP3 ADD SWAP2 JUMPDEST POP POP POP POP POP SWAP1 POP DUP1 SWAP2 POP POP JUMPDEST SWAP2 SWAP1 POP JUMP JUMPDEST PUSH2 0x128A PUSH2 0x1541 JUMP JUMPDEST PUSH2 0x1293 DUP2 PUSH2 0x1EE4 JUMP JUMPDEST POP JUMP JUMPDEST PUSH0 DUP1 PUSH2 0x12A0 PUSH2 0x141F JUMP JUMPDEST SWAP1 POP DUP1 PUSH1 0x5 ADD PUSH0 DUP6 PUSH20 0xFFFFFFFFFFFFFFFFFFFFFFFFFFFFFFFFFFFFFFFF AND PUSH20 0xFFFFFFFFFFFFFFFFFFFFFFFFFFFFFFFFFFFFFFFF AND DUP2 MSTORE PUSH1 0x20 ADD SWAP1 DUP2 MSTORE PUSH1 0x20 ADD PUSH0 KECCAK256 PUSH0 DUP5 PUSH20 0xFFFFFFFFFFFFFFFFFFFFFFFFFFFFFFFFFFFFFFFF AND PUSH20 0xFFFFFFFFFFFFFFFFFFFFFFFFFFFFFFFFFFFFFFFF AND DUP2 MSTORE PUSH1 0x20 ADD SWAP1 DUP2 MSTORE PUSH1 0x20 ADD PUSH0 KECCAK256 PUSH0 SWAP1 SLOAD SWAP1 PUSH2 0x100 EXP SWAP1 DIV PUSH1 0xFF AND SWAP2 POP POP SWAP3 SWAP2 POP POP JUMP JUMPDEST PUSH2 0x133A PUSH2 0x1541 JUMP JUMPDEST PUSH0 PUSH20 0xFFFFFFFFFFFFFFFFFFFFFFFFFFFFFFFFFFFFFFFF AND DUP2 PUSH20 0xFFFFFFFFFFFFFFFFFFFFFFFFFFFFFFFFFFFFFFFF AND SUB PUSH2 0x13AA JUMPI PUSH0 PUSH1 0x40 MLOAD PUSH32 0x1E4FBDF700000000000000000000000000000000000000000000000000000000 DUP2 MSTORE PUSH1 0x4 ADD PUSH2 0x13A1 SWAP2 SWAP1 PUSH2 0x2D5C JUMP JUMPDEST PUSH1 0x40 MLOAD DUP1 SWAP2 SUB SWAP1 REVERT JUMPDEST PUSH2 0x13B3 DUP2 PUSH2 0x18F3 JUMP JUMPDEST POP JUMP JUMPDEST PUSH0 PUSH32 0x1FFC9A700000000000000000000000000000000000000000000000000000000 PUSH28 0xFFFFFFFFFFFFFFFFFFFFFFFFFFFFFFFFFFFFFFFFFFFFFFFFFFFFFFFF NOT AND DUP3 PUSH28 0xFFFFFFFFFFFFFFFFFFFFFFFFFFFFFFFFFFFFFFFFFFFFFFFFFFFFFFFF NOT AND EQ SWAP1 POP SWAP2 SWAP1 POP JUMP JUMPDEST PUSH0 PUSH32 0x80BB2B638CC20BC4D0A60D66940F3AB4A00C1D7B313497CA82FB0B4AB0079300 SWAP1 POP SWAP1 JUMP JUMPDEST PUSH0 DUP1 PUSH2 0x1451 DUP4 PUSH2 0x1F66 JUMP JUMPDEST SWAP1 POP PUSH0 PUSH20 0xFFFFFFFFFFFFFFFFFFFFFFFFFFFFFFFFFFFFFFFF AND DUP2 PUSH20 0xFFFFFFFFFFFFFFFFFFFFFFFFFFFFFFFFFFFFFFFF AND SUB PUSH2 0x14C3 JUMPI DUP3 PUSH1 0x40 MLOAD PUSH32 0x7E27328900000000000000000000000000000000000000000000000000000000 DUP2 MSTORE PUSH1 0x4 ADD PUSH2 0x14BA SWAP2 SWAP1 PUSH2 0x31C6 JUMP JUMPDEST PUSH1 0x40 MLOAD DUP1 SWAP2 SUB SWAP1 REVERT JUMPDEST DUP1 SWAP2 POP POP SWAP2 SWAP1 POP JUMP JUMPDEST PUSH0 DUP1 PUSH2 0x14D6 PUSH2 0x141F JUMP JUMPDEST SWAP1 POP DUP1 PUSH1 0x4 ADD PUSH0 DUP5 DUP2 MSTORE PUSH1 0x20 ADD SWAP1 DUP2 MSTORE PUSH1 0x20 ADD PUSH0 KECCAK256 PUSH0 SWAP1 SLOAD SWAP1 PUSH2 0x100 EXP SWAP1 DIV PUSH20 0xFFFFFFFFFFFFFFFFFFFFFFFFFFFFFFFFFFFFFFFF AND SWAP2 POP POP SWAP2 SWAP1 POP JUMP JUMPDEST PUSH0 CALLER SWAP1 POP SWAP1 JUMP JUMPDEST PUSH2 0x1527 DUP4 DUP4 DUP4 PUSH1 0x1 PUSH2 0x1FAD JUMP JUMPDEST POP POP POP JUMP JUMPDEST PUSH0 PUSH2 0x1538 DUP5 DUP5 DUP5 PUSH2 0x217A JUMP JUMPDEST SWAP1 POP SWAP4 SWAP3 POP POP POP JUMP JUMPDEST PUSH2 0x1549 PUSH2 0x1513 JUMP JUMPDEST PUSH20 0xFFFFFFFFFFFFFFFFFFFFFFFFFFFFFFFFFFFFFFFF AND PUSH2 0x1567 PUSH2 0xC9C JUMP JUMPDEST PUSH20 0xFFFFFFFFFFFFFFFFFFFFFFFFFFFFFFFFFFFFFFFF AND EQ PUSH2 0x15C6 JUMPI PUSH2 0x158A PUSH2 0x1513 JUMP JUMPDEST PUSH1 0x40 MLOAD PUSH32 0x118CDAA700000000000000000000000000000000000000000000000000000000 DUP2 MSTORE PUSH1 0x4 ADD PUSH2 0x15BD SWAP2 SWAP1 PUSH2 0x2D5C JUMP JUMPDEST PUSH1 0x40 MLOAD DUP1 SWAP2 SUB SWAP1 REVERT JUMPDEST JUMP JUMPDEST PUSH2 0x15D0 PUSH2 0x2197 JUMP JUMPDEST PUSH0 PUSH2 0x15D9 PUSH2 0x18CC JUMP JUMPDEST SWAP1 POP PUSH0 DUP2 PUSH0 ADD PUSH0 PUSH2 0x100 EXP DUP2 SLOAD DUP2 PUSH1 0xFF MUL NOT AND SWAP1 DUP4 ISZERO ISZERO MUL OR SWAP1 SSTORE POP PUSH32 0x5DB9EE0A495BF2E6FF9C91A7834C1BA4FDD244A5E8AA4E537BD38AEAE4B073AA PUSH2 0x161E PUSH2 0x1513 JUMP JUMPDEST PUSH1 0x40 MLOAD PUSH2 0x162B SWAP2 SWAP1 PUSH2 0x2D5C JUMP JUMPDEST PUSH1 0x40 MLOAD DUP1 SWAP2 SUB SWAP1 LOG1 POP JUMP JUMPDEST PUSH32 0x0 PUSH20 0xFFFFFFFFFFFFFFFFFFFFFFFFFFFFFFFFFFFFFFFF AND ADDRESS PUSH20 0xFFFFFFFFFFFFFFFFFFFFFFFFFFFFFFFFFFFFFFFF AND EQ DUP1 PUSH2 0x16E3 JUMPI POP PUSH32 0x0 PUSH20 0xFFFFFFFFFFFFFFFFFFFFFFFFFFFFFFFFFFFFFFFF AND PUSH2 0x16CA PUSH2 0x21D7 JUMP JUMPDEST PUSH20 0xFFFFFFFFFFFFFFFFFFFFFFFFFFFFFFFFFFFFFFFF AND EQ ISZERO JUMPDEST ISZERO PUSH2 0x171A JUMPI PUSH1 0x40 MLOAD PUSH32 0xE07C8DBA00000000000000000000000000000000000000000000000000000000 DUP2 MSTORE PUSH1 0x4 ADD PUSH1 0x40 MLOAD DUP1 SWAP2 SUB SWAP1 REVERT JUMPDEST JUMP JUMPDEST PUSH2 0x1724 PUSH2 0x1541 JUMP JUMPDEST POP JUMP JUMPDEST DUP2 PUSH20 0xFFFFFFFFFFFFFFFFFFFFFFFFFFFFFFFFFFFFFFFF AND PUSH4 0x52D1902D PUSH1 0x40 MLOAD DUP2 PUSH4 0xFFFFFFFF AND PUSH1 0xE0 SHL DUP2 MSTORE PUSH1 0x4 ADD PUSH1 0x20 PUSH1 0x40 MLOAD DUP1 DUP4 SUB DUP2 DUP7 GAS STATICCALL SWAP3 POP POP POP DUP1 ISZERO PUSH2 0x178F JUMPI POP PUSH1 0x40 MLOAD RETURNDATASIZE PUSH1 0x1F NOT PUSH1 0x1F DUP3 ADD AND DUP3 ADD DUP1 PUSH1 0x40 MSTORE POP DUP2 ADD SWAP1 PUSH2 0x178C SWAP2 SWAP1 PUSH2 0x36D0 JUMP JUMPDEST PUSH1 0x1 JUMPDEST PUSH2 0x17D0 JUMPI DUP2 PUSH1 0x40 MLOAD PUSH32 0x4C9C8CE300000000000000000000000000000000000000000000000000000000 DUP2 MSTORE PUSH1 0x4 ADD PUSH2 0x17C7 SWAP2 SWAP1 PUSH2 0x2D5C JUMP JUMPDEST PUSH1 0x40 MLOAD DUP1 SWAP2 SUB SWAP1 REVERT JUMPDEST PUSH32 0x360894A13BA1A3210667C828492DB98DCA3E2076CC3735A920A3CA505D382BBC PUSH0 SHL DUP2 EQ PUSH2 0x1836 JUMPI DUP1 PUSH1 0x40 MLOAD PUSH32 0xAA1D49A400000000000000000000000000000000000000000000000000000000 DUP2 MSTORE PUSH1 0x4 ADD PUSH2 0x182D SWAP2 SWAP1 PUSH2 0x30FF JUMP JUMPDEST PUSH1 0x40 MLOAD DUP1 SWAP2 SUB SWAP1 REVERT JUMPDEST PUSH2 0x1840 DUP4 DUP4 PUSH2 0x222A JUMP JUMPDEST POP POP POP JUMP JUMPDEST PUSH32 0x0 PUSH20 0xFFFFFFFFFFFFFFFFFFFFFFFFFFFFFFFFFFFFFFFF AND ADDRESS PUSH20 0xFFFFFFFFFFFFFFFFFFFFFFFFFFFFFFFFFFFFFFFF AND EQ PUSH2 0x18CA JUMPI PUSH1 0x40 MLOAD PUSH32 0xE07C8DBA00000000000000000000000000000000000000000000000000000000 DUP2 MSTORE PUSH1 0x4 ADD PUSH1 0x40 MLOAD DUP1 SWAP2 SUB SWAP1 REVERT JUMPDEST JUMP JUMPDEST PUSH0 PUSH32 0xCD5ED15C6E187E77E9AEE88184C21F4F2182AB5827CB3B7E07FBEDCD63F03300 SWAP1 POP SWAP1 JUMP JUMPDEST PUSH0 PUSH2 0x18FC PUSH2 0x1A33 JUMP JUMPDEST SWAP1 POP PUSH0 DUP2 PUSH0 ADD PUSH0 SWAP1 SLOAD SWAP1 PUSH2 0x100 EXP SWAP1 DIV PUSH20 0xFFFFFFFFFFFFFFFFFFFFFFFFFFFFFFFFFFFFFFFF AND SWAP1 POP DUP3 DUP3 PUSH0 ADD PUSH0 PUSH2 0x100 EXP DUP2 SLOAD DUP2 PUSH20 0xFFFFFFFFFFFFFFFFFFFFFFFFFFFFFFFFFFFFFFFF MUL NOT AND SWAP1 DUP4 PUSH20 0xFFFFFFFFFFFFFFFFFFFFFFFFFFFFFFFFFFFFFFFF AND MUL OR SWAP1 SSTORE POP DUP3 PUSH20 0xFFFFFFFFFFFFFFFFFFFFFFFFFFFFFFFFFFFFFFFF AND DUP2 PUSH20 0xFFFFFFFFFFFFFFFFFFFFFFFFFFFFFFFFFFFFFFFF AND PUSH32 0x8BE0079C531659141344CD1FD0A4F28419497F9722A3DAAFE3B4186F6B6457E0 PUSH1 0x40 MLOAD PUSH1 0x40 MLOAD DUP1 SWAP2 SUB SWAP1 LOG3 POP POP POP JUMP JUMPDEST PUSH2 0x19CC PUSH2 0x229C JUMP JUMPDEST PUSH0 PUSH2 0x19D5 PUSH2 0x18CC JUMP JUMPDEST SWAP1 POP PUSH1 0x1 DUP2 PUSH0 ADD PUSH0 PUSH2 0x100 EXP DUP2 SLOAD DUP2 PUSH1 0xFF MUL NOT AND SWAP1 DUP4 ISZERO ISZERO MUL OR SWAP1 SSTORE POP PUSH32 0x62E78CEA01BEE320CD4E420270B5EA74000D11B0C9F74754EBDBFC544B05A258 PUSH2 0x1A1B PUSH2 0x1513 JUMP JUMPDEST PUSH1 0x40 MLOAD PUSH2 0x1A28 SWAP2 SWAP1 PUSH2 0x2D5C JUMP JUMPDEST PUSH1 0x40 MLOAD DUP1 SWAP2 SUB SWAP1 LOG1 POP JUMP JUMPDEST PUSH0 PUSH32 0x9016D09D72D40FDAE2FD8CEAC6B6234C7706214FD39C1CD1E609A0528C199300 SWAP1 POP SWAP1 JUMP JUMPDEST PUSH2 0x1A73 DUP3 DUP3 PUSH1 0x40 MLOAD DUP1 PUSH1 0x20 ADD PUSH1 0x40 MSTORE DUP1 PUSH0 DUP2 MSTORE POP PUSH2 0x22DD JUMP JUMPDEST POP POP JUMP JUMPDEST PUSH0 DUP1 PUSH0 SWAP1 SLOAD SWAP1 PUSH2 0x100 EXP SWAP1 DIV PUSH20 0xFFFFFFFFFFFFFFFFFFFFFFFFFFFFFFFFFFFFFFFF AND PUSH20 0xFFFFFFFFFFFFFFFFFFFFFFFFFFFFFFFFFFFFFFFF AND PUSH4 0x8A54C52F PUSH1 0x1 PUSH0 SWAP1 SLOAD SWAP1 PUSH2 0x100 EXP SWAP1 DIV PUSH20 0xFFFFFFFFFFFFFFFFFFFFFFFFFFFFFFFFFFFFFFFF AND PUSH0 DUP1 SHL CHAINID DUP8 DUP8 PUSH1 0x40 MLOAD DUP7 PUSH4 0xFFFFFFFF AND PUSH1 0xE0 SHL DUP2 MSTORE PUSH1 0x4 ADD PUSH2 0x1AFC SWAP6 SWAP5 SWAP4 SWAP3 SWAP2 SWAP1 PUSH2 0x36FB JUMP JUMPDEST PUSH1 0x20 PUSH1 0x40 MLOAD DUP1 DUP4 SUB DUP2 PUSH0 DUP8 GAS CALL ISZERO DUP1 ISZERO PUSH2 0x1B18 JUMPI RETURNDATASIZE PUSH0 DUP1 RETURNDATACOPY RETURNDATASIZE PUSH0 REVERT JUMPDEST POP POP POP POP PUSH1 0x40 MLOAD RETURNDATASIZE PUSH1 0x1F NOT PUSH1 0x1F DUP3 ADD AND DUP3 ADD DUP1 PUSH1 0x40 MSTORE POP DUP2 ADD SWAP1 PUSH2 0x1B3C SWAP2 SWAP1 PUSH2 0x3760 JUMP JUMPDEST SWAP1 POP SWAP3 SWAP2 POP POP JUMP JUMPDEST PUSH0 PUSH2 0x1B4D PUSH2 0x141F JUMP JUMPDEST SWAP1 POP PUSH0 PUSH20 0xFFFFFFFFFFFFFFFFFFFFFFFFFFFFFFFFFFFFFFFF AND DUP4 PUSH20 0xFFFFFFFFFFFFFFFFFFFFFFFFFFFFFFFFFFFFFFFF AND SUB PUSH2 0x1BBF JUMPI DUP3 PUSH1 0x40 MLOAD PUSH32 0x5B08BA1800000000000000000000000000000000000000000000000000000000 DUP2 MSTORE PUSH1 0x4 ADD PUSH2 0x1BB6 SWAP2 SWAP1 PUSH2 0x2D5C JUMP JUMPDEST PUSH1 0x40 MLOAD DUP1 SWAP2 SUB SWAP1 REVERT JUMPDEST DUP2 DUP2 PUSH1 0x5 ADD PUSH0 DUP7 PUSH20 0xFFFFFFFFFFFFFFFFFFFFFFFFFFFFFFFFFFFFFFFF AND PUSH20 0xFFFFFFFFFFFFFFFFFFFFFFFFFFFFFFFFFFFFFFFF AND DUP2 MSTORE PUSH1 0x20 ADD SWAP1 DUP2 MSTORE PUSH1 0x20 ADD PUSH0 KECCAK256 PUSH0 DUP6 PUSH20 0xFFFFFFFFFFFFFFFFFFFFFFFFFFFFFFFFFFFFFFFF AND PUSH20 0xFFFFFFFFFFFFFFFFFFFFFFFFFFFFFFFFFFFFFFFF AND DUP2 MSTORE PUSH1 0x20 ADD SWAP1 DUP2 MSTORE PUSH1 0x20 ADD PUSH0 KECCAK256 PUSH0 PUSH2 0x100 EXP DUP2 SLOAD DUP2 PUSH1 0xFF MUL NOT AND SWAP1 DUP4 ISZERO ISZERO MUL OR SWAP1 SSTORE POP DUP3 PUSH20 0xFFFFFFFFFFFFFFFFFFFFFFFFFFFFFFFFFFFFFFFF AND DUP5 PUSH20 0xFFFFFFFFFFFFFFFFFFFFFFFFFFFFFFFFFFFFFFFF AND PUSH32 0x17307EAB39AB6107E8899845AD3D59BD9653F200F220920489CA2B5937696C31 DUP5 PUSH1 0x40 MLOAD PUSH2 0x1CAD SWAP2 SWAP1 PUSH2 0x2BFC JUMP JUMPDEST PUSH1 0x40 MLOAD DUP1 SWAP2 SUB SWAP1 LOG3 POP POP POP POP JUMP JUMPDEST PUSH0 DUP4 PUSH20 0xFFFFFFFFFFFFFFFFFFFFFFFFFFFFFFFFFFFFFFFF AND EXTCODESIZE GT ISZERO PUSH2 0x1E67 JUMPI DUP3 PUSH20 0xFFFFFFFFFFFFFFFFFFFFFFFFFFFFFFFFFFFFFFFF AND PUSH4 0x150B7A02 PUSH2 0x1CFE PUSH2 0x1513 JUMP JUMPDEST DUP7 DUP6 DUP6 PUSH1 0x40 MLOAD DUP6 PUSH4 0xFFFFFFFF AND PUSH1 0xE0 SHL DUP2 MSTORE PUSH1 0x4 ADD PUSH2 0x1D20 SWAP5 SWAP4 SWAP3 SWAP2 SWAP1 PUSH2 0x37DD JUMP JUMPDEST PUSH1 0x20 PUSH1 0x40 MLOAD DUP1 DUP4 SUB DUP2 PUSH0 DUP8 GAS CALL SWAP3 POP POP POP DUP1 ISZERO PUSH2 0x1D5B JUMPI POP PUSH1 0x40 MLOAD RETURNDATASIZE PUSH1 0x1F NOT PUSH1 0x1F DUP3 ADD AND DUP3 ADD DUP1 PUSH1 0x40 MSTORE POP DUP2 ADD SWAP1 PUSH2 0x1D58 SWAP2 SWAP1 PUSH2 0x383B JUMP JUMPDEST PUSH1 0x1 JUMPDEST PUSH2 0x1DDC JUMPI RETURNDATASIZE DUP1 PUSH0 DUP2 EQ PUSH2 0x1D89 JUMPI PUSH1 0x40 MLOAD SWAP2 POP PUSH1 0x1F NOT PUSH1 0x3F RETURNDATASIZE ADD AND DUP3 ADD PUSH1 0x40 MSTORE RETURNDATASIZE DUP3 MSTORE RETURNDATASIZE PUSH0 PUSH1 0x20 DUP5 ADD RETURNDATACOPY PUSH2 0x1D8E JUMP JUMPDEST PUSH1 0x60 SWAP2 POP JUMPDEST POP PUSH0 DUP2 MLOAD SUB PUSH2 0x1DD4 JUMPI DUP4 PUSH1 0x40 MLOAD PUSH32 0x64A0AE9200000000000000000000000000000000000000000000000000000000 DUP2 MSTORE PUSH1 0x4 ADD PUSH2 0x1DCB SWAP2 SWAP1 PUSH2 0x2D5C JUMP JUMPDEST PUSH1 0x40 MLOAD DUP1 SWAP2 SUB SWAP1 REVERT JUMPDEST DUP1 MLOAD DUP2 PUSH1 0x20 ADD REVERT JUMPDEST PUSH4 0x150B7A02 PUSH1 0xE0 SHL PUSH28 0xFFFFFFFFFFFFFFFFFFFFFFFFFFFFFFFFFFFFFFFFFFFFFFFFFFFFFFFF NOT AND DUP2 PUSH28 0xFFFFFFFFFFFFFFFFFFFFFFFFFFFFFFFFFFFFFFFFFFFFFFFFFFFFFFFF NOT AND EQ PUSH2 0x1E65 JUMPI DUP4 PUSH1 0x40 MLOAD PUSH32 0x64A0AE9200000000000000000000000000000000000000000000000000000000 DUP2 MSTORE PUSH1 0x4 ADD PUSH2 0x1E5C SWAP2 SWAP1 PUSH2 0x2D5C JUMP JUMPDEST PUSH1 0x40 MLOAD DUP1 SWAP2 SUB SWAP1 REVERT JUMPDEST POP JUMPDEST POP POP POP POP JUMP JUMPDEST PUSH0 PUSH32 0xF0C57E16840DF040F15088DC2F81FE391C3923BEC73E23A9662EFC9C229C6A00 SWAP1 POP SWAP1 JUMP JUMPDEST PUSH2 0x1E9C PUSH2 0x22F8 JUMP JUMPDEST PUSH2 0x1EA6 DUP3 DUP3 PUSH2 0x2338 JUMP JUMPDEST POP POP JUMP JUMPDEST PUSH2 0x1EB2 PUSH2 0x22F8 JUMP JUMPDEST PUSH2 0x1EBA PUSH2 0x2373 JUMP JUMPDEST JUMP JUMPDEST PUSH2 0x1EC4 PUSH2 0x22F8 JUMP JUMPDEST PUSH2 0x1ECD DUP2 PUSH2 0x23A3 JUMP JUMPDEST POP JUMP JUMPDEST PUSH2 0x1ED8 PUSH2 0x22F8 JUMP JUMPDEST JUMP JUMPDEST PUSH2 0x1EE2 PUSH2 0x22F8 JUMP JUMPDEST JUMP JUMPDEST PUSH0 PUSH2 0x1EF0 PUSH0 DUP4 PUSH0 PUSH2 0x152C JUMP JUMPDEST SWAP1 POP PUSH0 PUSH20 0xFFFFFFFFFFFFFFFFFFFFFFFFFFFFFFFFFFFFFFFF AND DUP2 PUSH20 0xFFFFFFFFFFFFFFFFFFFFFFFFFFFFFFFFFFFFFFFF AND SUB PUSH2 0x1F62 JUMPI DUP2 PUSH1 0x40 MLOAD PUSH32 0x7E27328900000000000000000000000000000000000000000000000000000000 DUP2 MSTORE PUSH1 0x4 ADD PUSH2 0x1F59 SWAP2 SWAP1 PUSH2 0x31C6 JUMP JUMPDEST PUSH1 0x40 MLOAD DUP1 SWAP2 SUB SWAP1 REVERT JUMPDEST POP POP JUMP JUMPDEST PUSH0 DUP1 PUSH2 0x1F70 PUSH2 0x141F JUMP JUMPDEST SWAP1 POP DUP1 PUSH1 0x2 ADD PUSH0 DUP5 DUP2 MSTORE PUSH1 0x20 ADD SWAP1 DUP2 MSTORE PUSH1 0x20 ADD PUSH0 KECCAK256 PUSH0 SWAP1 SLOAD SWAP1 PUSH2 0x100 EXP SWAP1 DIV PUSH20 0xFFFFFFFFFFFFFFFFFFFFFFFFFFFFFFFFFFFFFFFF AND SWAP2 POP POP SWAP2 SWAP1 POP JUMP JUMPDEST PUSH0 PUSH2 0x1FB6 PUSH2 0x141F JUMP JUMPDEST SWAP1 POP DUP2 DUP1 PUSH2 0x1FF0 JUMPI POP PUSH0 PUSH20 0xFFFFFFFFFFFFFFFFFFFFFFFFFFFFFFFFFFFFFFFF AND DUP4 PUSH20 0xFFFFFFFFFFFFFFFFFFFFFFFFFFFFFFFFFFFFFFFF AND EQ ISZERO JUMPDEST ISZERO PUSH2 0x2122 JUMPI PUSH0 PUSH2 0x1FFF DUP6 PUSH2 0x1446 JUMP JUMPDEST SWAP1 POP PUSH0 PUSH20 0xFFFFFFFFFFFFFFFFFFFFFFFFFFFFFFFFFFFFFFFF AND DUP5 PUSH20 0xFFFFFFFFFFFFFFFFFFFFFFFFFFFFFFFFFFFFFFFF AND EQ ISZERO DUP1 ISZERO PUSH2 0x2069 JUMPI POP DUP4 PUSH20 0xFFFFFFFFFFFFFFFFFFFFFFFFFFFFFFFFFFFFFFFF AND DUP2 PUSH20 0xFFFFFFFFFFFFFFFFFFFFFFFFFFFFFFFFFFFFFFFF AND EQ ISZERO JUMPDEST DUP1 ISZERO PUSH2 0x207C JUMPI POP PUSH2 0x207A DUP2 DUP6 PUSH2 0x1296 JUMP JUMPDEST ISZERO JUMPDEST ISZERO PUSH2 0x20BE JUMPI DUP4 PUSH1 0x40 MLOAD PUSH32 0xA9FBF51F00000000000000000000000000000000000000000000000000000000 DUP2 MSTORE PUSH1 0x4 ADD PUSH2 0x20B5 SWAP2 SWAP1 PUSH2 0x2D5C JUMP JUMPDEST PUSH1 0x40 MLOAD DUP1 SWAP2 SUB SWAP1 REVERT JUMPDEST DUP3 ISZERO PUSH2 0x2120 JUMPI DUP5 DUP7 PUSH20 0xFFFFFFFFFFFFFFFFFFFFFFFFFFFFFFFFFFFFFFFF AND DUP3 PUSH20 0xFFFFFFFFFFFFFFFFFFFFFFFFFFFFFFFFFFFFFFFF AND PUSH32 0x8C5BE1E5EBEC7D5BD14F71427D1E84F3DD0314C0F7B2291E5B200AC8C7C3B925 PUSH1 0x40 MLOAD PUSH1 0x40 MLOAD DUP1 SWAP2 SUB SWAP1 LOG4 JUMPDEST POP JUMPDEST DUP5 DUP2 PUSH1 0x4 ADD PUSH0 DUP7 DUP2 MSTORE PUSH1 0x20 ADD SWAP1 DUP2 MSTORE PUSH1 0x20 ADD PUSH0 KECCAK256 PUSH0 PUSH2 0x100 EXP DUP2 SLOAD DUP2 PUSH20 0xFFFFFFFFFFFFFFFFFFFFFFFFFFFFFFFFFFFFFFFF MUL NOT AND SWAP1 DUP4 PUSH20 0xFFFFFFFFFFFFFFFFFFFFFFFFFFFFFFFFFFFFFFFF AND MUL OR SWAP1 SSTORE POP POP POP POP POP POP JUMP JUMPDEST PUSH0 PUSH2 0x2183 PUSH2 0x229C JUMP JUMPDEST PUSH2 0x218E DUP5 DUP5 DUP5 PUSH2 0x2427 JUMP JUMPDEST SWAP1 POP SWAP4 SWAP3 POP POP POP JUMP JUMPDEST PUSH2 0x219F PUSH2 0xAAC JUMP JUMPDEST PUSH2 0x21D5 JUMPI PUSH1 0x40 MLOAD PUSH32 0x8DFC202B00000000000000000000000000000000000000000000000000000000 DUP2 MSTORE PUSH1 0x4 ADD PUSH1 0x40 MLOAD DUP1 SWAP2 SUB SWAP1 REVERT JUMPDEST JUMP JUMPDEST PUSH0 PUSH2 0x2203 PUSH32 0x360894A13BA1A3210667C828492DB98DCA3E2076CC3735A920A3CA505D382BBC PUSH0 SHL PUSH2 0x2644 JUMP JUMPDEST PUSH0 ADD PUSH0 SWAP1 SLOAD SWAP1 PUSH2 0x100 EXP SWAP1 DIV PUSH20 0xFFFFFFFFFFFFFFFFFFFFFFFFFFFFFFFFFFFFFFFF AND SWAP1 POP SWAP1 JUMP JUMPDEST PUSH2 0x2233 DUP3 PUSH2 0x264D JUMP JUMPDEST DUP2 PUSH20 0xFFFFFFFFFFFFFFFFFFFFFFFFFFFFFFFFFFFFFFFF AND PUSH32 0xBC7CD75A20EE27FD9ADEBAB32041F755214DBC6BFFA90CC0225B39DA2E5C2D3B PUSH1 0x40 MLOAD PUSH1 0x40 MLOAD DUP1 SWAP2 SUB SWAP1 LOG2 PUSH0 DUP2 MLOAD GT ISZERO PUSH2 0x228F JUMPI PUSH2 0x2289 DUP3 DUP3 PUSH2 0x2716 JUMP JUMPDEST POP PUSH2 0x2298 JUMP JUMPDEST PUSH2 0x2297 PUSH2 0x2796 JUMP JUMPDEST JUMPDEST POP POP JUMP JUMPDEST PUSH2 0x22A4 PUSH2 0xAAC JUMP JUMPDEST ISZERO PUSH2 0x22DB JUMPI PUSH1 0x40 MLOAD PUSH32 0xD93C066500000000000000000000000000000000000000000000000000000000 DUP2 MSTORE PUSH1 0x4 ADD PUSH1 0x40 MLOAD DUP1 SWAP2 SUB SWAP1 REVERT JUMPDEST JUMP JUMPDEST PUSH2 0x22E7 DUP4 DUP4 PUSH2 0x27D2 JUMP JUMPDEST PUSH2 0x22F3 PUSH0 DUP5 DUP5 DUP5 PUSH2 0x1CBB JUMP JUMPDEST POP POP POP JUMP JUMPDEST PUSH2 0x2300 PUSH2 0x28C5 JUMP JUMPDEST PUSH2 0x2336 JUMPI PUSH1 0x40 MLOAD PUSH32 0xD7E6BCF800000000000000000000000000000000000000000000000000000000 DUP2 MSTORE PUSH1 0x4 ADD PUSH1 0x40 MLOAD DUP1 SWAP2 SUB SWAP1 REVERT JUMPDEST JUMP JUMPDEST PUSH2 0x2340 PUSH2 0x22F8 JUMP JUMPDEST PUSH0 PUSH2 0x2349 PUSH2 0x141F JUMP JUMPDEST SWAP1 POP DUP3 DUP2 PUSH0 ADD SWAP1 DUP2 PUSH2 0x235B SWAP2 SWAP1 PUSH2 0x354B JUMP JUMPDEST POP DUP2 DUP2 PUSH1 0x1 ADD SWAP1 DUP2 PUSH2 0x236D SWAP2 SWAP1 PUSH2 0x354B JUMP JUMPDEST POP POP POP POP JUMP JUMPDEST PUSH2 0x237B PUSH2 0x22F8 JUMP JUMPDEST PUSH0 PUSH2 0x2384 PUSH2 0x18CC JUMP JUMPDEST SWAP1 POP PUSH0 DUP2 PUSH0 ADD PUSH0 PUSH2 0x100 EXP DUP2 SLOAD DUP2 PUSH1 0xFF MUL NOT AND SWAP1 DUP4 ISZERO ISZERO MUL OR SWAP1 SSTORE POP POP JUMP JUMPDEST PUSH2 0x23AB PUSH2 0x22F8 JUMP JUMPDEST PUSH0 PUSH20 0xFFFFFFFFFFFFFFFFFFFFFFFFFFFFFFFFFFFFFFFF AND DUP2 PUSH20 0xFFFFFFFFFFFFFFFFFFFFFFFFFFFFFFFFFFFFFFFF AND SUB PUSH2 0x241B JUMPI PUSH0 PUSH1 0x40 MLOAD PUSH32 0x1E4FBDF700000000000000000000000000000000000000000000000000000000 DUP2 MSTORE PUSH1 0x4 ADD PUSH2 0x2412 SWAP2 SWAP1 PUSH2 0x2D5C JUMP JUMPDEST PUSH1 0x40 MLOAD DUP1 SWAP2 SUB SWAP1 REVERT JUMPDEST PUSH2 0x2424 DUP2 PUSH2 0x18F3 JUMP JUMPDEST POP JUMP JUMPDEST PUSH0 DUP1 PUSH2 0x2431 PUSH2 0x141F JUMP JUMPDEST SWAP1 POP PUSH0 PUSH2 0x243D DUP6 PUSH2 0x1F66 JUMP JUMPDEST SWAP1 POP PUSH0 PUSH20 0xFFFFFFFFFFFFFFFFFFFFFFFFFFFFFFFFFFFFFFFF AND DUP5 PUSH20 0xFFFFFFFFFFFFFFFFFFFFFFFFFFFFFFFFFFFFFFFF AND EQ PUSH2 0x247E JUMPI PUSH2 0x247D DUP2 DUP6 DUP8 PUSH2 0x28E3 JUMP JUMPDEST JUMPDEST PUSH0 PUSH20 0xFFFFFFFFFFFFFFFFFFFFFFFFFFFFFFFFFFFFFFFF AND DUP2 PUSH20 0xFFFFFFFFFFFFFFFFFFFFFFFFFFFFFFFFFFFFFFFF AND EQ PUSH2 0x250B JUMPI PUSH2 0x24BD PUSH0 DUP7 PUSH0 DUP1 PUSH2 0x1FAD JUMP JUMPDEST PUSH1 0x1 DUP3 PUSH1 0x3 ADD PUSH0 DUP4 PUSH20 0xFFFFFFFFFFFFFFFFFFFFFFFFFFFFFFFFFFFFFFFF AND PUSH20 0xFFFFFFFFFFFFFFFFFFFFFFFFFFFFFFFFFFFFFFFF AND DUP2 MSTORE PUSH1 0x20 ADD SWAP1 DUP2 MSTORE PUSH1 0x20 ADD PUSH0 KECCAK256 PUSH0 DUP3 DUP3 SLOAD SUB SWAP3 POP POP DUP2 SWAP1 SSTORE POP JUMPDEST PUSH0 PUSH20 0xFFFFFFFFFFFFFFFFFFFFFFFFFFFFFFFFFFFFFFFF AND DUP7 PUSH20 0xFFFFFFFFFFFFFFFFFFFFFFFFFFFFFFFFFFFFFFFF AND EQ PUSH2 0x258C JUMPI PUSH1 0x1 DUP3 PUSH1 0x3 ADD PUSH0 DUP9 PUSH20 0xFFFFFFFFFFFFFFFFFFFFFFFFFFFFFFFFFFFFFFFF AND PUSH20 0xFFFFFFFFFFFFFFFFFFFFFFFFFFFFFFFFFFFFFFFF AND DUP2 MSTORE PUSH1 0x20 ADD SWAP1 DUP2 MSTORE PUSH1 0x20 ADD PUSH0 KECCAK256 PUSH0 DUP3 DUP3 SLOAD ADD SWAP3 POP POP DUP2 SWAP1 SSTORE POP JUMPDEST DUP6 DUP3 PUSH1 0x2 ADD PUSH0 DUP8 DUP2 MSTORE PUSH1 0x20 ADD SWAP1 DUP2 MSTORE PUSH1 0x20 ADD PUSH0 KECCAK256 PUSH0 PUSH2 0x100 EXP DUP2 SLOAD DUP2 PUSH20 0xFFFFFFFFFFFFFFFFFFFFFFFFFFFFFFFFFFFFFFFF MUL NOT AND SWAP1 DUP4 PUSH20 0xFFFFFFFFFFFFFFFFFFFFFFFFFFFFFFFFFFFFFFFF AND MUL OR SWAP1 SSTORE POP DUP5 DUP7 PUSH20 0xFFFFFFFFFFFFFFFFFFFFFFFFFFFFFFFFFFFFFFFF AND DUP3 PUSH20 0xFFFFFFFFFFFFFFFFFFFFFFFFFFFFFFFFFFFFFFFF AND PUSH32 0xDDF252AD1BE2C89B69C2B068FC378DAA952BA7F163C4A11628F55A4DF523B3EF PUSH1 0x40 MLOAD PUSH1 0x40 MLOAD DUP1 SWAP2 SUB SWAP1 LOG4 DUP1 SWAP3 POP POP POP SWAP4 SWAP3 POP POP POP JUMP JUMPDEST PUSH0 DUP2 SWAP1 POP SWAP2 SWAP1 POP JUMP JUMPDEST PUSH0 DUP2 PUSH20 0xFFFFFFFFFFFFFFFFFFFFFFFFFFFFFFFFFFFFFFFF AND EXTCODESIZE SUB PUSH2 0x26A8 JUMPI DUP1 PUSH1 0x40 MLOAD PUSH32 0x4C9C8CE300000000000000000000000000000000000000000000000000000000 DUP2 MSTORE PUSH1 0x4 ADD PUSH2 0x269F SWAP2 SWAP1 PUSH2 0x2D5C JUMP JUMPDEST PUSH1 0x40 MLOAD DUP1 SWAP2 SUB SWAP1 REVERT JUMPDEST DUP1 PUSH2 0x26D4 PUSH32 0x360894A13BA1A3210667C828492DB98DCA3E2076CC3735A920A3CA505D382BBC PUSH0 SHL PUSH2 0x2644 JUMP JUMPDEST PUSH0 ADD PUSH0 PUSH2 0x100 EXP DUP2 SLOAD DUP2 PUSH20 0xFFFFFFFFFFFFFFFFFFFFFFFFFFFFFFFFFFFFFFFF MUL NOT AND SWAP1 DUP4 PUSH20 0xFFFFFFFFFFFFFFFFFFFFFFFFFFFFFFFFFFFFFFFF AND MUL OR SWAP1 SSTORE POP POP JUMP JUMPDEST PUSH1 0x60 PUSH0 DUP1 DUP5 PUSH20 0xFFFFFFFFFFFFFFFFFFFFFFFFFFFFFFFFFFFFFFFF AND DUP5 PUSH1 0x40 MLOAD PUSH2 0x273F SWAP2 SWAP1 PUSH2 0x38A0 JUMP JUMPDEST PUSH0 PUSH1 0x40 MLOAD DUP1 DUP4 SUB DUP2 DUP6 GAS DELEGATECALL SWAP2 POP POP RETURNDATASIZE DUP1 PUSH0 DUP2 EQ PUSH2 0x2777 JUMPI PUSH1 0x40 MLOAD SWAP2 POP PUSH1 0x1F NOT PUSH1 0x3F RETURNDATASIZE ADD AND DUP3 ADD PUSH1 0x40 MSTORE RETURNDATASIZE DUP3 MSTORE RETURNDATASIZE PUSH0 PUSH1 0x20 DUP5 ADD RETURNDATACOPY PUSH2 0x277C JUMP JUMPDEST PUSH1 0x60 SWAP2 POP JUMPDEST POP SWAP2 POP SWAP2 POP PUSH2 0x278C DUP6 DUP4 DUP4 PUSH2 0x29A6 JUMP JUMPDEST SWAP3 POP POP POP SWAP3 SWAP2 POP POP JUMP JUMPDEST PUSH0 CALLVALUE GT ISZERO PUSH2 0x27D0 JUMPI PUSH1 0x40 MLOAD PUSH32 0xB398979F00000000000000000000000000000000000000000000000000000000 DUP2 MSTORE PUSH1 0x4 ADD PUSH1 0x40 MLOAD DUP1 SWAP2 SUB SWAP1 REVERT JUMPDEST JUMP JUMPDEST PUSH0 PUSH20 0xFFFFFFFFFFFFFFFFFFFFFFFFFFFFFFFFFFFFFFFF AND DUP3 PUSH20 0xFFFFFFFFFFFFFFFFFFFFFFFFFFFFFFFFFFFFFFFF AND SUB PUSH2 0x2842 JUMPI PUSH0 PUSH1 0x40 MLOAD PUSH32 0x64A0AE9200000000000000000000000000000000000000000000000000000000 DUP2 MSTORE PUSH1 0x4 ADD PUSH2 0x2839 SWAP2 SWAP1 PUSH2 0x2D5C JUMP JUMPDEST PUSH1 0x40 MLOAD DUP1 SWAP2 SUB SWAP1 REVERT JUMPDEST PUSH0 PUSH2 0x284E DUP4 DUP4 PUSH0 PUSH2 0x152C JUMP JUMPDEST SWAP1 POP PUSH0 PUSH20 0xFFFFFFFFFFFFFFFFFFFFFFFFFFFFFFFFFFFFFFFF AND DUP2 PUSH20 0xFFFFFFFFFFFFFFFFFFFFFFFFFFFFFFFFFFFFFFFF AND EQ PUSH2 0x28C0 JUMPI PUSH0 PUSH1 0x40 MLOAD PUSH32 0x73C6AC6E00000000000000000000000000000000000000000000000000000000 DUP2 MSTORE PUSH1 0x4 ADD PUSH2 0x28B7 SWAP2 SWAP1 PUSH2 0x2D5C JUMP JUMPDEST PUSH1 0x40 MLOAD DUP1 SWAP2 SUB SWAP1 REVERT JUMPDEST POP POP POP JUMP JUMPDEST PUSH0 PUSH2 0x28CE PUSH2 0x1E6D JUMP JUMPDEST PUSH0 ADD PUSH1 0x8 SWAP1 SLOAD SWAP1 PUSH2 0x100 EXP SWAP1 DIV PUSH1 0xFF AND SWAP1 POP SWAP1 JUMP JUMPDEST PUSH2 0x28EE DUP4 DUP4 DUP4 PUSH2 0x2A33 JUMP JUMPDEST PUSH2 0x29A1 JUMPI PUSH0 PUSH20 0xFFFFFFFFFFFFFFFFFFFFFFFFFFFFFFFFFFFFFFFF AND DUP4 PUSH20 0xFFFFFFFFFFFFFFFFFFFFFFFFFFFFFFFFFFFFFFFF AND SUB PUSH2 0x2962 JUMPI DUP1 PUSH1 0x40 MLOAD PUSH32 0x7E27328900000000000000000000000000000000000000000000000000000000 DUP2 MSTORE PUSH1 0x4 ADD PUSH2 0x2959 SWAP2 SWAP1 PUSH2 0x31C6 JUMP JUMPDEST PUSH1 0x40 MLOAD DUP1 SWAP2 SUB SWAP1 REVERT JUMPDEST DUP2 DUP2 PUSH1 0x40 MLOAD PUSH32 0x177E802F00000000000000000000000000000000000000000000000000000000 DUP2 MSTORE PUSH1 0x4 ADD PUSH2 0x2998 SWAP3 SWAP2 SWAP1 PUSH2 0x361A JUMP JUMPDEST PUSH1 0x40 MLOAD DUP1 SWAP2 SUB SWAP1 REVERT JUMPDEST POP POP POP JUMP JUMPDEST PUSH1 0x60 DUP3 PUSH2 0x29BB JUMPI PUSH2 0x29B6 DUP3 PUSH2 0x2AF3 JUMP JUMPDEST PUSH2 0x2A2B JUMP JUMPDEST PUSH0 DUP3 MLOAD EQ DUP1 ISZERO PUSH2 0x29E1 JUMPI POP PUSH0 DUP5 PUSH20 0xFFFFFFFFFFFFFFFFFFFFFFFFFFFFFFFFFFFFFFFF AND EXTCODESIZE EQ JUMPDEST ISZERO PUSH2 0x2A23 JUMPI DUP4 PUSH1 0x40 MLOAD PUSH32 0x9996B31500000000000000000000000000000000000000000000000000000000 DUP2 MSTORE PUSH1 0x4 ADD PUSH2 0x2A1A SWAP2 SWAP1 PUSH2 0x2D5C JUMP JUMPDEST PUSH1 0x40 MLOAD DUP1 SWAP2 SUB SWAP1 REVERT JUMPDEST DUP2 SWAP1 POP PUSH2 0x2A2C JUMP JUMPDEST JUMPDEST SWAP4 SWAP3 POP POP POP JUMP JUMPDEST PUSH0 DUP1 PUSH20 0xFFFFFFFFFFFFFFFFFFFFFFFFFFFFFFFFFFFFFFFF AND DUP4 PUSH20 0xFFFFFFFFFFFFFFFFFFFFFFFFFFFFFFFFFFFFFFFF AND EQ ISZERO DUP1 ISZERO PUSH2 0x2AEA JUMPI POP DUP3 PUSH20 0xFFFFFFFFFFFFFFFFFFFFFFFFFFFFFFFFFFFFFFFF AND DUP5 PUSH20 0xFFFFFFFFFFFFFFFFFFFFFFFFFFFFFFFFFFFFFFFF AND EQ DUP1 PUSH2 0x2AAB JUMPI POP PUSH2 0x2AAA DUP5 DUP5 PUSH2 0x1296 JUMP JUMPDEST JUMPDEST DUP1 PUSH2 0x2AE9 JUMPI POP DUP3 PUSH20 0xFFFFFFFFFFFFFFFFFFFFFFFFFFFFFFFFFFFFFFFF AND PUSH2 0x2AD1 DUP4 PUSH2 0x14CC JUMP JUMPDEST PUSH20 0xFFFFFFFFFFFFFFFFFFFFFFFFFFFFFFFFFFFFFFFF AND EQ JUMPDEST JUMPDEST SWAP1 POP SWAP4 SWAP3 POP POP POP JUMP JUMPDEST PUSH0 DUP2 MLOAD GT ISZERO PUSH2 0x2B05 JUMPI DUP1 MLOAD DUP1 DUP3 PUSH1 0x20 ADD REVERT JUMPDEST PUSH1 0x40 MLOAD PUSH32 0x1425EA4200000000000000000000000000000000000000000000000000000000 DUP2 MSTORE PUSH1 0x4 ADD PUSH1 0x40 MLOAD DUP1 SWAP2 SUB SWAP1 REVERT JUMPDEST PUSH2 0x35F DUP1 PUSH2 0x38B7 DUP4 CODECOPY ADD SWAP1 JUMP JUMPDEST PUSH2 0x1F44 DUP1 PUSH2 0x3C16 DUP4 CODECOPY ADD SWAP1 JUMP JUMPDEST PUSH0 PUSH1 0x40 MLOAD SWAP1 POP SWAP1 JUMP JUMPDEST PUSH0 DUP1 REVERT JUMPDEST PUSH0 DUP1 REVERT JUMPDEST PUSH0 PUSH32 0xFFFFFFFF00000000000000000000000000000000000000000000000000000000 DUP3 AND SWAP1 POP SWAP2 SWAP1 POP JUMP JUMPDEST PUSH2 0x2B96 DUP2 PUSH2 0x2B62 JUMP JUMPDEST DUP2 EQ PUSH2 0x2BA0 JUMPI PUSH0 DUP1 REVERT JUMPDEST POP JUMP JUMPDEST PUSH0 DUP2 CALLDATALOAD SWAP1 POP PUSH2 0x2BB1 DUP2 PUSH2 0x2B8D JUMP JUMPDEST SWAP3 SWAP2 POP POP JUMP JUMPDEST PUSH0 PUSH1 0x20 DUP3 DUP5 SUB SLT ISZERO PUSH2 0x2BCC JUMPI PUSH2 0x2BCB PUSH2 0x2B5A JUMP JUMPDEST JUMPDEST PUSH0 PUSH2 0x2BD9 DUP5 DUP3 DUP6 ADD PUSH2 0x2BA3 JUMP JUMPDEST SWAP2 POP POP SWAP3 SWAP2 POP POP JUMP JUMPDEST PUSH0 DUP2 ISZERO ISZERO SWAP1 POP SWAP2 SWAP1 POP JUMP JUMPDEST PUSH2 0x2BF6 DUP2 PUSH2 0x2BE2 JUMP JUMPDEST DUP3 MSTORE POP POP JUMP JUMPDEST PUSH0 PUSH1 0x20 DUP3 ADD SWAP1 POP PUSH2 0x2C0F PUSH0 DUP4 ADD DUP5 PUSH2 0x2BED JUMP JUMPDEST SWAP3 SWAP2 POP POP JUMP JUMPDEST PUSH0 DUP2 MLOAD SWAP1 POP SWAP2 SWAP1 POP JUMP JUMPDEST PUSH0 DUP3 DUP3 MSTORE PUSH1 0x20 DUP3 ADD SWAP1 POP SWAP3 SWAP2 POP POP JUMP JUMPDEST PUSH0 JUMPDEST DUP4 DUP2 LT ISZERO PUSH2 0x2C4C JUMPI DUP1 DUP3 ADD MLOAD DUP2 DUP5 ADD MSTORE PUSH1 0x20 DUP2 ADD SWAP1 POP PUSH2 0x2C31 JUMP JUMPDEST PUSH0 DUP5 DUP5 ADD MSTORE POP POP POP POP JUMP JUMPDEST PUSH0 PUSH1 0x1F NOT PUSH1 0x1F DUP4 ADD AND SWAP1 POP SWAP2 SWAP1 POP JUMP JUMPDEST PUSH0 PUSH2 0x2C71 DUP3 PUSH2 0x2C15 JUMP JUMPDEST PUSH2 0x2C7B DUP2 DUP6 PUSH2 0x2C1F JUMP JUMPDEST SWAP4 POP PUSH2 0x2C8B DUP2 DUP6 PUSH1 0x20 DUP7 ADD PUSH2 0x2C2F JUMP JUMPDEST PUSH2 0x2C94 DUP2 PUSH2 0x2C57 JUMP JUMPDEST DUP5 ADD SWAP2 POP POP SWAP3 SWAP2 POP POP JUMP JUMPDEST PUSH0 PUSH1 0x20 DUP3 ADD SWAP1 POP DUP2 DUP2 SUB PUSH0 DUP4 ADD MSTORE PUSH2 0x2CB7 DUP2 DUP5 PUSH2 0x2C67 JUMP JUMPDEST SWAP1 POP SWAP3 SWAP2 POP POP JUMP JUMPDEST PUSH0 DUP2 SWAP1 POP SWAP2 SWAP1 POP JUMP JUMPDEST PUSH2 0x2CD1 DUP2 PUSH2 0x2CBF JUMP JUMPDEST DUP2 EQ PUSH2 0x2CDB JUMPI PUSH0 DUP1 REVERT JUMPDEST POP JUMP JUMPDEST PUSH0 DUP2 CALLDATALOAD SWAP1 POP PUSH2 0x2CEC DUP2 PUSH2 0x2CC8 JUMP JUMPDEST SWAP3 SWAP2 POP POP JUMP JUMPDEST PUSH0 PUSH1 0x20 DUP3 DUP5 SUB SLT ISZERO PUSH2 0x2D07 JUMPI PUSH2 0x2D06 PUSH2 0x2B5A JUMP JUMPDEST JUMPDEST PUSH0 PUSH2 0x2D14 DUP5 DUP3 DUP6 ADD PUSH2 0x2CDE JUMP JUMPDEST SWAP2 POP POP SWAP3 SWAP2 POP POP JUMP JUMPDEST PUSH0 PUSH20 0xFFFFFFFFFFFFFFFFFFFFFFFFFFFFFFFFFFFFFFFF DUP3 AND SWAP1 POP SWAP2 SWAP1 POP JUMP JUMPDEST PUSH0 PUSH2 0x2D46 DUP3 PUSH2 0x2D1D JUMP JUMPDEST SWAP1 POP SWAP2 SWAP1 POP JUMP JUMPDEST PUSH2 0x2D56 DUP2 PUSH2 0x2D3C JUMP JUMPDEST DUP3 MSTORE POP POP JUMP JUMPDEST PUSH0 PUSH1 0x20 DUP3 ADD SWAP1 POP PUSH2 0x2D6F PUSH0 DUP4 ADD DUP5 PUSH2 0x2D4D JUMP JUMPDEST SWAP3 SWAP2 POP POP JUMP JUMPDEST PUSH2 0x2D7E DUP2 PUSH2 0x2D3C JUMP JUMPDEST DUP2 EQ PUSH2 0x2D88 JUMPI PUSH0 DUP1 REVERT JUMPDEST POP JUMP JUMPDEST PUSH0 DUP2 CALLDATALOAD SWAP1 POP PUSH2 0x2D99 DUP2 PUSH2 0x2D75 JUMP JUMPDEST SWAP3 SWAP2 POP POP JUMP JUMPDEST PUSH0 DUP1 PUSH1 0x40 DUP4 DUP6 SUB SLT ISZERO PUSH2 0x2DB5 JUMPI PUSH2 0x2DB4 PUSH2 0x2B5A JUMP JUMPDEST JUMPDEST PUSH0 PUSH2 0x2DC2 DUP6 DUP3 DUP7 ADD PUSH2 0x2D8B JUMP JUMPDEST SWAP3 POP POP PUSH1 0x20 PUSH2 0x2DD3 DUP6 DUP3 DUP7 ADD PUSH2 0x2CDE JUMP JUMPDEST SWAP2 POP POP SWAP3 POP SWAP3 SWAP1 POP JUMP JUMPDEST PUSH0 DUP1 PUSH0 PUSH1 0x60 DUP5 DUP7 SUB SLT ISZERO PUSH2 0x2DF4 JUMPI PUSH2 0x2DF3 PUSH2 0x2B5A JUMP JUMPDEST JUMPDEST PUSH0 PUSH2 0x2E01 DUP7 DUP3 DUP8 ADD PUSH2 0x2D8B JUMP JUMPDEST SWAP4 POP POP PUSH1 0x20 PUSH2 0x2E12 DUP7 DUP3 DUP8 ADD PUSH2 0x2D8B JUMP JUMPDEST SWAP3 POP POP PUSH1 0x40 PUSH2 0x2E23 DUP7 DUP3 DUP8 ADD PUSH2 0x2CDE JUMP JUMPDEST SWAP2 POP POP SWAP3 POP SWAP3 POP SWAP3 JUMP JUMPDEST PUSH0 DUP1 REVERT JUMPDEST PUSH0 DUP1 REVERT JUMPDEST PUSH32 0x4E487B7100000000000000000000000000000000000000000000000000000000 PUSH0 MSTORE PUSH1 0x41 PUSH1 0x4 MSTORE PUSH1 0x24 PUSH0 REVERT JUMPDEST PUSH2 0x2E6B DUP3 PUSH2 0x2C57 JUMP JUMPDEST DUP2 ADD DUP2 DUP2 LT PUSH8 0xFFFFFFFFFFFFFFFF DUP3 GT OR ISZERO PUSH2 0x2E8A JUMPI PUSH2 0x2E89 PUSH2 0x2E35 JUMP JUMPDEST JUMPDEST DUP1 PUSH1 0x40 MSTORE POP POP POP JUMP JUMPDEST PUSH0 PUSH2 0x2E9C PUSH2 0x2B51 JUMP JUMPDEST SWAP1 POP PUSH2 0x2EA8 DUP3 DUP3 PUSH2 0x2E62 JUMP JUMPDEST SWAP2 SWAP1 POP JUMP JUMPDEST PUSH0 PUSH8 0xFFFFFFFFFFFFFFFF DUP3 GT ISZERO PUSH2 0x2EC7 JUMPI PUSH2 0x2EC6 PUSH2 0x2E35 JUMP JUMPDEST JUMPDEST PUSH2 0x2ED0 DUP3 PUSH2 0x2C57 JUMP JUMPDEST SWAP1 POP PUSH1 0x20 DUP2 ADD SWAP1 POP SWAP2 SWAP1 POP JUMP JUMPDEST DUP3 DUP2 DUP4 CALLDATACOPY PUSH0 DUP4 DUP4 ADD MSTORE POP POP POP JUMP JUMPDEST PUSH0 PUSH2 0x2EFD PUSH2 0x2EF8 DUP5 PUSH2 0x2EAD JUMP JUMPDEST PUSH2 0x2E93 JUMP JUMPDEST SWAP1 POP DUP3 DUP2 MSTORE PUSH1 0x20 DUP2 ADD DUP5 DUP5 DUP5 ADD GT ISZERO PUSH2 0x2F19 JUMPI PUSH2 0x2F18 PUSH2 0x2E31 JUMP JUMPDEST JUMPDEST PUSH2 0x2F24 DUP5 DUP3 DUP6 PUSH2 0x2EDD JUMP JUMPDEST POP SWAP4 SWAP3 POP POP POP JUMP JUMPDEST PUSH0 DUP3 PUSH1 0x1F DUP4 ADD SLT PUSH2 0x2F40 JUMPI PUSH2 0x2F3F PUSH2 0x2E2D JUMP JUMPDEST JUMPDEST DUP2 CALLDATALOAD PUSH2 0x2F50 DUP5 DUP3 PUSH1 0x20 DUP7 ADD PUSH2 0x2EEB JUMP JUMPDEST SWAP2 POP POP SWAP3 SWAP2 POP POP JUMP JUMPDEST PUSH2 0x2F62 DUP2 PUSH2 0x2BE2 JUMP JUMPDEST DUP2 EQ PUSH2 0x2F6C JUMPI PUSH0 DUP1 REVERT JUMPDEST POP JUMP JUMPDEST PUSH0 DUP2 CALLDATALOAD SWAP1 POP PUSH2 0x2F7D DUP2 PUSH2 0x2F59 JUMP JUMPDEST SWAP3 SWAP2 POP POP JUMP JUMPDEST PUSH0 DUP1 PUSH0 PUSH1 0x60 DUP5 DUP7 SUB SLT ISZERO PUSH2 0x2F9A JUMPI PUSH2 0x2F99 PUSH2 0x2B5A JUMP JUMPDEST JUMPDEST PUSH0 PUSH2 0x2FA7 DUP7 DUP3 DUP8 ADD PUSH2 0x2CDE JUMP JUMPDEST SWAP4 POP POP PUSH1 0x20 DUP5 ADD CALLDATALOAD PUSH8 0xFFFFFFFFFFFFFFFF DUP2 GT ISZERO PUSH2 0x2FC8 JUMPI PUSH2 0x2FC7 PUSH2 0x2B5E JUMP JUMPDEST JUMPDEST PUSH2 0x2FD4 DUP7 DUP3 DUP8 ADD PUSH2 0x2F2C JUMP JUMPDEST SWAP3 POP POP PUSH1 0x40 PUSH2 0x2FE5 DUP7 DUP3 DUP8 ADD PUSH2 0x2F6F JUMP JUMPDEST SWAP2 POP POP SWAP3 POP SWAP3 POP SWAP3 JUMP JUMPDEST PUSH0 PUSH8 0xFFFFFFFFFFFFFFFF DUP3 GT ISZERO PUSH2 0x3009 JUMPI PUSH2 0x3008 PUSH2 0x2E35 JUMP JUMPDEST JUMPDEST PUSH2 0x3012 DUP3 PUSH2 0x2C57 JUMP JUMPDEST SWAP1 POP PUSH1 0x20 DUP2 ADD SWAP1 POP SWAP2 SWAP1 POP JUMP JUMPDEST PUSH0 PUSH2 0x3031 PUSH2 0x302C DUP5 PUSH2 0x2FEF JUMP JUMPDEST PUSH2 0x2E93 JUMP JUMPDEST SWAP1 POP DUP3 DUP2 MSTORE PUSH1 0x20 DUP2 ADD DUP5 DUP5 DUP5 ADD GT ISZERO PUSH2 0x304D JUMPI PUSH2 0x304C PUSH2 0x2E31 JUMP JUMPDEST JUMPDEST PUSH2 0x3058 DUP5 DUP3 DUP6 PUSH2 0x2EDD JUMP JUMPDEST POP SWAP4 SWAP3 POP POP POP JUMP JUMPDEST PUSH0 DUP3 PUSH1 0x1F DUP4 ADD SLT PUSH2 0x3074 JUMPI PUSH2 0x3073 PUSH2 0x2E2D JUMP JUMPDEST JUMPDEST DUP2 CALLDATALOAD PUSH2 0x3084 DUP5 DUP3 PUSH1 0x20 DUP7 ADD PUSH2 0x301F JUMP JUMPDEST SWAP2 POP POP SWAP3 SWAP2 POP POP JUMP JUMPDEST PUSH0 DUP1 PUSH1 0x40 DUP4 DUP6 SUB SLT ISZERO PUSH2 0x30A3 JUMPI PUSH2 0x30A2 PUSH2 0x2B5A JUMP JUMPDEST JUMPDEST PUSH0 PUSH2 0x30B0 DUP6 DUP3 DUP7 ADD PUSH2 0x2D8B JUMP JUMPDEST SWAP3 POP POP PUSH1 0x20 DUP4 ADD CALLDATALOAD PUSH8 0xFFFFFFFFFFFFFFFF DUP2 GT ISZERO PUSH2 0x30D1 JUMPI PUSH2 0x30D0 PUSH2 0x2B5E JUMP JUMPDEST JUMPDEST PUSH2 0x30DD DUP6 DUP3 DUP7 ADD PUSH2 0x3060 JUMP JUMPDEST SWAP2 POP POP SWAP3 POP SWAP3 SWAP1 POP JUMP JUMPDEST PUSH0 DUP2 SWAP1 POP SWAP2 SWAP1 POP JUMP JUMPDEST PUSH2 0x30F9 DUP2 PUSH2 0x30E7 JUMP JUMPDEST DUP3 MSTORE POP POP JUMP JUMPDEST PUSH0 PUSH1 0x20 DUP3 ADD SWAP1 POP PUSH2 0x3112 PUSH0 DUP4 ADD DUP5 PUSH2 0x30F0 JUMP JUMPDEST SWAP3 SWAP2 POP POP JUMP JUMPDEST PUSH0 DUP2 SWAP1 POP SWAP2 SWAP1 POP JUMP JUMPDEST PUSH0 PUSH2 0x313B PUSH2 0x3136 PUSH2 0x3131 DUP5 PUSH2 0x2D1D JUMP JUMPDEST PUSH2 0x3118 JUMP JUMPDEST PUSH2 0x2D1D JUMP JUMPDEST SWAP1 POP SWAP2 SWAP1 POP JUMP JUMPDEST PUSH0 PUSH2 0x314C DUP3 PUSH2 0x3121 JUMP JUMPDEST SWAP1 POP SWAP2 SWAP1 POP JUMP JUMPDEST PUSH0 PUSH2 0x315D DUP3 PUSH2 0x3142 JUMP JUMPDEST SWAP1 POP SWAP2 SWAP1 POP JUMP JUMPDEST PUSH2 0x316D DUP2 PUSH2 0x3153 JUMP JUMPDEST DUP3 MSTORE POP POP JUMP JUMPDEST PUSH0 PUSH1 0x20 DUP3 ADD SWAP1 POP PUSH2 0x3186 PUSH0 DUP4 ADD DUP5 PUSH2 0x3164 JUMP JUMPDEST SWAP3 SWAP2 POP POP JUMP JUMPDEST PUSH0 PUSH1 0x20 DUP3 DUP5 SUB SLT ISZERO PUSH2 0x31A1 JUMPI PUSH2 0x31A0 PUSH2 0x2B5A JUMP JUMPDEST JUMPDEST PUSH0 PUSH2 0x31AE DUP5 DUP3 DUP6 ADD PUSH2 0x2D8B JUMP JUMPDEST SWAP2 POP POP SWAP3 SWAP2 POP POP JUMP JUMPDEST PUSH2 0x31C0 DUP2 PUSH2 0x2CBF JUMP JUMPDEST DUP3 MSTORE POP POP JUMP JUMPDEST PUSH0 PUSH1 0x20 DUP3 ADD SWAP1 POP PUSH2 0x31D9 PUSH0 DUP4 ADD DUP5 PUSH2 0x31B7 JUMP JUMPDEST SWAP3 SWAP2 POP POP JUMP JUMPDEST PUSH0 PUSH2 0x31E9 DUP3 PUSH2 0x3121 JUMP JUMPDEST SWAP1 POP SWAP2 SWAP1 POP JUMP JUMPDEST PUSH0 PUSH2 0x31FA DUP3 PUSH2 0x31DF JUMP JUMPDEST SWAP1 POP SWAP2 SWAP1 POP JUMP JUMPDEST PUSH2 0x320A DUP2 PUSH2 0x31F0 JUMP JUMPDEST DUP3 MSTORE POP POP JUMP JUMPDEST PUSH0 PUSH1 0x20 DUP3 ADD SWAP1 POP PUSH2 0x3223 PUSH0 DUP4 ADD DUP5 PUSH2 0x3201 JUMP JUMPDEST SWAP3 SWAP2 POP POP JUMP JUMPDEST PUSH0 DUP1 PUSH1 0x40 DUP4 DUP6 SUB SLT ISZERO PUSH2 0x323F JUMPI PUSH2 0x323E PUSH2 0x2B5A JUMP JUMPDEST JUMPDEST PUSH0 PUSH2 0x324C DUP6 DUP3 DUP7 ADD PUSH2 0x2D8B JUMP JUMPDEST SWAP3 POP POP PUSH1 0x20 PUSH2 0x325D DUP6 DUP3 DUP7 ADD PUSH2 0x2F6F JUMP JUMPDEST SWAP2 POP POP SWAP3 POP SWAP3 SWAP1 POP JUMP JUMPDEST PUSH0 DUP1 PUSH0 DUP1 PUSH1 0x80 DUP6 DUP8 SUB SLT ISZERO PUSH2 0x327F JUMPI PUSH2 0x327E PUSH2 0x2B5A JUMP JUMPDEST JUMPDEST PUSH0 PUSH2 0x328C DUP8 DUP3 DUP9 ADD PUSH2 0x2D8B JUMP JUMPDEST SWAP5 POP POP PUSH1 0x20 PUSH2 0x329D DUP8 DUP3 DUP9 ADD PUSH2 0x2D8B JUMP JUMPDEST SWAP4 POP POP PUSH1 0x40 PUSH2 0x32AE DUP8 DUP3 DUP9 ADD PUSH2 0x2CDE JUMP JUMPDEST SWAP3 POP POP PUSH1 0x60 DUP6 ADD CALLDATALOAD PUSH8 0xFFFFFFFFFFFFFFFF DUP2 GT ISZERO PUSH2 0x32CF JUMPI PUSH2 0x32CE PUSH2 0x2B5E JUMP JUMPDEST JUMPDEST PUSH2 0x32DB DUP8 DUP3 DUP9 ADD PUSH2 0x3060 JUMP JUMPDEST SWAP2 POP POP SWAP3 SWAP6 SWAP2 SWAP5 POP SWAP3 POP JUMP JUMPDEST PUSH0 DUP1 PUSH1 0x40 DUP4 DUP6 SUB SLT ISZERO PUSH2 0x32FD JUMPI PUSH2 0x32FC PUSH2 0x2B5A JUMP JUMPDEST JUMPDEST PUSH0 PUSH2 0x330A DUP6 DUP3 DUP7 ADD PUSH2 0x2D8B JUMP JUMPDEST SWAP3 POP POP PUSH1 0x20 PUSH2 0x331B DUP6 DUP3 DUP7 ADD PUSH2 0x2D8B JUMP JUMPDEST SWAP2 POP POP SWAP3 POP SWAP3 SWAP1 POP JUMP JUMPDEST PUSH32 0x4E487B7100000000000000000000000000000000000000000000000000000000 PUSH0 MSTORE PUSH1 0x22 PUSH1 0x4 MSTORE PUSH1 0x24 PUSH0 REVERT JUMPDEST PUSH0 PUSH1 0x2 DUP3 DIV SWAP1 POP PUSH1 0x1 DUP3 AND DUP1 PUSH2 0x3369 JUMPI PUSH1 0x7F DUP3 AND SWAP2 POP JUMPDEST PUSH1 0x20 DUP3 LT DUP2 SUB PUSH2 0x337C JUMPI PUSH2 0x337B PUSH2 0x3325 JUMP JUMPDEST JUMPDEST POP SWAP2 SWAP1 POP JUMP JUMPDEST PUSH0 PUSH1 0x60 DUP3 ADD SWAP1 POP PUSH2 0x3395 PUSH0 DUP4 ADD DUP7 PUSH2 0x2D4D JUMP JUMPDEST PUSH2 0x33A2 PUSH1 0x20 DUP4 ADD DUP6 PUSH2 0x31B7 JUMP JUMPDEST PUSH2 0x33AF PUSH1 0x40 DUP4 ADD DUP5 PUSH2 0x2D4D JUMP JUMPDEST SWAP5 SWAP4 POP POP POP POP JUMP JUMPDEST PUSH0 DUP2 SWAP1 POP DUP2 PUSH0 MSTORE PUSH1 0x20 PUSH0 KECCAK256 SWAP1 POP SWAP2 SWAP1 POP JUMP JUMPDEST PUSH0 PUSH1 0x20 PUSH1 0x1F DUP4 ADD DIV SWAP1 POP SWAP2 SWAP1 POP JUMP JUMPDEST PUSH0 DUP3 DUP3 SHL SWAP1 POP SWAP3 SWAP2 POP POP JUMP JUMPDEST PUSH0 PUSH1 0x8 DUP4 MUL PUSH2 0x3413 PUSH32 0xFFFFFFFFFFFFFFFFFFFFFFFFFFFFFFFFFFFFFFFFFFFFFFFFFFFFFFFFFFFFFFFF DUP3 PUSH2 0x33D8 JUMP JUMPDEST PUSH2 0x341D DUP7 DUP4 PUSH2 0x33D8 JUMP JUMPDEST SWAP6 POP DUP1 NOT DUP5 AND SWAP4 POP DUP1 DUP7 AND DUP5 OR SWAP3 POP POP POP SWAP4 SWAP3 POP POP POP JUMP JUMPDEST PUSH0 PUSH2 0x344F PUSH2 0x344A PUSH2 0x3445 DUP5 PUSH2 0x2CBF JUMP JUMPDEST PUSH2 0x3118 JUMP JUMPDEST PUSH2 0x2CBF JUMP JUMPDEST SWAP1 POP SWAP2 SWAP1 POP JUMP JUMPDEST PUSH0 DUP2 SWAP1 POP SWAP2 SWAP1 POP JUMP JUMPDEST PUSH2 0x3468 DUP4 PUSH2 0x3435 JUMP JUMPDEST PUSH2 0x347C PUSH2 0x3474 DUP3 PUSH2 0x3456 JUMP JUMPDEST DUP5 DUP5 SLOAD PUSH2 0x33E4 JUMP JUMPDEST DUP3 SSTORE POP POP POP POP JUMP JUMPDEST PUSH0 SWAP1 JUMP JUMPDEST PUSH2 0x3490 PUSH2 0x3484 JUMP JUMPDEST PUSH2 0x349B DUP2 DUP5 DUP5 PUSH2 0x345F JUMP JUMPDEST POP POP POP JUMP JUMPDEST JUMPDEST DUP2 DUP2 LT ISZERO PUSH2 0x34BE JUMPI PUSH2 0x34B3 PUSH0 DUP3 PUSH2 0x3488 JUMP JUMPDEST PUSH1 0x1 DUP2 ADD SWAP1 POP PUSH2 0x34A1 JUMP JUMPDEST POP POP JUMP JUMPDEST PUSH1 0x1F DUP3 GT ISZERO PUSH2 0x3503 JUMPI PUSH2 0x34D4 DUP2 PUSH2 0x33B7 JUMP JUMPDEST PUSH2 0x34DD DUP5 PUSH2 0x33C9 JUMP JUMPDEST DUP2 ADD PUSH1 0x20 DUP6 LT ISZERO PUSH2 0x34EC JUMPI DUP2 SWAP1 POP JUMPDEST PUSH2 0x3500 PUSH2 0x34F8 DUP6 PUSH2 0x33C9 JUMP JUMPDEST DUP4 ADD DUP3 PUSH2 0x34A0 JUMP JUMPDEST POP POP JUMPDEST POP POP POP JUMP JUMPDEST PUSH0 DUP3 DUP3 SHR SWAP1 POP SWAP3 SWAP2 POP POP JUMP JUMPDEST PUSH0 PUSH2 0x3523 PUSH0 NOT DUP5 PUSH1 0x8 MUL PUSH2 0x3508 JUMP JUMPDEST NOT DUP1 DUP4 AND SWAP2 POP POP SWAP3 SWAP2 POP POP JUMP JUMPDEST PUSH0 PUSH2 0x353B DUP4 DUP4 PUSH2 0x3514 JUMP JUMPDEST SWAP2 POP DUP3 PUSH1 0x2 MUL DUP3 OR SWAP1 POP SWAP3 SWAP2 POP POP JUMP JUMPDEST PUSH2 0x3554 DUP3 PUSH2 0x2C15 JUMP JUMPDEST PUSH8 0xFFFFFFFFFFFFFFFF DUP2 GT ISZERO PUSH2 0x356D JUMPI PUSH2 0x356C PUSH2 0x2E35 JUMP JUMPDEST JUMPDEST PUSH2 0x3577 DUP3 SLOAD PUSH2 0x3352 JUMP JUMPDEST PUSH2 0x3582 DUP3 DUP3 DUP6 PUSH2 0x34C2 JUMP JUMPDEST PUSH0 PUSH1 0x20 SWAP1 POP PUSH1 0x1F DUP4 GT PUSH1 0x1 DUP2 EQ PUSH2 0x35B3 JUMPI PUSH0 DUP5 ISZERO PUSH2 0x35A1 JUMPI DUP3 DUP8 ADD MLOAD SWAP1 POP JUMPDEST PUSH2 0x35AB DUP6 DUP3 PUSH2 0x3530 JUMP JUMPDEST DUP7 SSTORE POP PUSH2 0x3612 JUMP JUMPDEST PUSH1 0x1F NOT DUP5 AND PUSH2 0x35C1 DUP7 PUSH2 0x33B7 JUMP JUMPDEST PUSH0 JUMPDEST DUP3 DUP2 LT ISZERO PUSH2 0x35E8 JUMPI DUP5 DUP10 ADD MLOAD DUP3 SSTORE PUSH1 0x1 DUP3 ADD SWAP2 POP PUSH1 0x20 DUP6 ADD SWAP5 POP PUSH1 0x20 DUP2 ADD SWAP1 POP PUSH2 0x35C3 JUMP JUMPDEST DUP7 DUP4 LT ISZERO PUSH2 0x3605 JUMPI DUP5 DUP10 ADD MLOAD PUSH2 0x3601 PUSH1 0x1F DUP10 AND DUP3 PUSH2 0x3514 JUMP JUMPDEST DUP4 SSTORE POP JUMPDEST PUSH1 0x1 PUSH1 0x2 DUP9 MUL ADD DUP9 SSTORE POP POP POP JUMPDEST POP POP POP POP POP POP JUMP JUMPDEST PUSH0 PUSH1 0x40 DUP3 ADD SWAP1 POP PUSH2 0x362D PUSH0 DUP4 ADD DUP6 PUSH2 0x2D4D JUMP JUMPDEST PUSH2 0x363A PUSH1 0x20 DUP4 ADD DUP5 PUSH2 0x31B7 JUMP JUMPDEST SWAP4 SWAP3 POP POP POP JUMP JUMPDEST PUSH0 DUP2 SWAP1 POP SWAP2 SWAP1 POP JUMP JUMPDEST PUSH0 PUSH8 0xFFFFFFFFFFFFFFFF DUP3 AND SWAP1 POP SWAP2 SWAP1 POP JUMP JUMPDEST PUSH0 PUSH2 0x3677 PUSH2 0x3672 PUSH2 0x366D DUP5 PUSH2 0x3641 JUMP JUMPDEST PUSH2 0x3118 JUMP JUMPDEST PUSH2 0x364A JUMP JUMPDEST SWAP1 POP SWAP2 SWAP1 POP JUMP JUMPDEST PUSH2 0x3687 DUP2 PUSH2 0x365D JUMP JUMPDEST DUP3 MSTORE POP POP JUMP JUMPDEST PUSH0 PUSH1 0x20 DUP3 ADD SWAP1 POP PUSH2 0x36A0 PUSH0 DUP4 ADD DUP5 PUSH2 0x367E JUMP JUMPDEST SWAP3 SWAP2 POP POP JUMP JUMPDEST PUSH2 0x36AF DUP2 PUSH2 0x30E7 JUMP JUMPDEST DUP2 EQ PUSH2 0x36B9 JUMPI PUSH0 DUP1 REVERT JUMPDEST POP JUMP JUMPDEST PUSH0 DUP2 MLOAD SWAP1 POP PUSH2 0x36CA DUP2 PUSH2 0x36A6 JUMP JUMPDEST SWAP3 SWAP2 POP POP JUMP JUMPDEST PUSH0 PUSH1 0x20 DUP3 DUP5 SUB SLT ISZERO PUSH2 0x36E5 JUMPI PUSH2 0x36E4 PUSH2 0x2B5A JUMP JUMPDEST JUMPDEST PUSH0 PUSH2 0x36F2 DUP5 DUP3 DUP6 ADD PUSH2 0x36BC JUMP JUMPDEST SWAP2 POP POP SWAP3 SWAP2 POP POP JUMP JUMPDEST PUSH0 PUSH1 0xA0 DUP3 ADD SWAP1 POP PUSH2 0x370E PUSH0 DUP4 ADD DUP9 PUSH2 0x2D4D JUMP JUMPDEST PUSH2 0x371B PUSH1 0x20 DUP4 ADD DUP8 PUSH2 0x30F0 JUMP JUMPDEST PUSH2 0x3728 PUSH1 0x40 DUP4 ADD DUP7 PUSH2 0x31B7 JUMP JUMPDEST PUSH2 0x3735 PUSH1 0x60 DUP4 ADD DUP6 PUSH2 0x2D4D JUMP JUMPDEST PUSH2 0x3742 PUSH1 0x80 DUP4 ADD DUP5 PUSH2 0x31B7 JUMP JUMPDEST SWAP7 SWAP6 POP POP POP POP POP POP JUMP JUMPDEST PUSH0 DUP2 MLOAD SWAP1 POP PUSH2 0x375A DUP2 PUSH2 0x2D75 JUMP JUMPDEST SWAP3 SWAP2 POP POP JUMP JUMPDEST PUSH0 PUSH1 0x20 DUP3 DUP5 SUB SLT ISZERO PUSH2 0x3775 JUMPI PUSH2 0x3774 PUSH2 0x2B5A JUMP JUMPDEST JUMPDEST PUSH0 PUSH2 0x3782 DUP5 DUP3 DUP6 ADD PUSH2 0x374C JUMP JUMPDEST SWAP2 POP POP SWAP3 SWAP2 POP POP JUMP JUMPDEST PUSH0 DUP2 MLOAD SWAP1 POP SWAP2 SWAP1 POP JUMP JUMPDEST PUSH0 DUP3 DUP3 MSTORE PUSH1 0x20 DUP3 ADD SWAP1 POP SWAP3 SWAP2 POP POP JUMP JUMPDEST PUSH0 PUSH2 0x37AF DUP3 PUSH2 0x378B JUMP JUMPDEST PUSH2 0x37B9 DUP2 DUP6 PUSH2 0x3795 JUMP JUMPDEST SWAP4 POP PUSH2 0x37C9 DUP2 DUP6 PUSH1 0x20 DUP7 ADD PUSH2 0x2C2F JUMP JUMPDEST PUSH2 0x37D2 DUP2 PUSH2 0x2C57 JUMP JUMPDEST DUP5 ADD SWAP2 POP POP SWAP3 SWAP2 POP POP JUMP JUMPDEST PUSH0 PUSH1 0x80 DUP3 ADD SWAP1 POP PUSH2 0x37F0 PUSH0 DUP4 ADD DUP8 PUSH2 0x2D4D JUMP JUMPDEST PUSH2 0x37FD PUSH1 0x20 DUP4 ADD DUP7 PUSH2 0x2D4D JUMP JUMPDEST PUSH2 0x380A PUSH1 0x40 DUP4 ADD DUP6 PUSH2 0x31B7 JUMP JUMPDEST DUP2 DUP2 SUB PUSH1 0x60 DUP4 ADD MSTORE PUSH2 0x381C DUP2 DUP5 PUSH2 0x37A5 JUMP JUMPDEST SWAP1 POP SWAP6 SWAP5 POP POP POP POP POP JUMP JUMPDEST PUSH0 DUP2 MLOAD SWAP1 POP PUSH2 0x3835 DUP2 PUSH2 0x2B8D JUMP JUMPDEST SWAP3 SWAP2 POP POP JUMP JUMPDEST PUSH0 PUSH1 0x20 DUP3 DUP5 SUB SLT ISZERO PUSH2 0x3850 JUMPI PUSH2 0x384F PUSH2 0x2B5A JUMP JUMPDEST JUMPDEST PUSH0 PUSH2 0x385D DUP5 DUP3 DUP6 ADD PUSH2 0x3827 JUMP JUMPDEST SWAP2 POP POP SWAP3 SWAP2 POP POP JUMP JUMPDEST PUSH0 DUP2 SWAP1 POP SWAP3 SWAP2 POP POP JUMP JUMPDEST PUSH0 PUSH2 0x387A DUP3 PUSH2 0x378B JUMP JUMPDEST PUSH2 0x3884 DUP2 DUP6 PUSH2 0x3866 JUMP JUMPDEST SWAP4 POP PUSH2 0x3894 DUP2 DUP6 PUSH1 0x20 DUP7 ADD PUSH2 0x2C2F JUMP JUMPDEST DUP1 DUP5 ADD SWAP2 POP POP SWAP3 SWAP2 POP POP JUMP JUMPDEST PUSH0 PUSH2 0x38AB DUP3 DUP5 PUSH2 0x3870 JUMP JUMPDEST SWAP2 POP DUP2 SWAP1 POP SWAP3 SWAP2 POP POP JUMP INVALID PUSH1 0x80 PUSH1 0x40 MSTORE CALLVALUE DUP1 ISZERO PUSH2 0xF JUMPI PUSH0 DUP1 REVERT JUMPDEST POP PUSH2 0x342 DUP1 PUSH2 0x1D PUSH0 CODECOPY PUSH0 RETURN INVALID PUSH1 0x80 PUSH1 0x40 MSTORE CALLVALUE DUP1 ISZERO PUSH2 0xF JUMPI PUSH0 DUP1 REVERT JUMPDEST POP PUSH1 0x4 CALLDATASIZE LT PUSH2 0x34 JUMPI PUSH0 CALLDATALOAD PUSH1 0xE0 SHR DUP1 PUSH4 0x246A0021 EQ PUSH2 0x38 JUMPI DUP1 PUSH4 0x8A54C52F EQ PUSH2 0x68 JUMPI JUMPDEST PUSH0 DUP1 REVERT JUMPDEST PUSH2 0x52 PUSH1 0x4 DUP1 CALLDATASIZE SUB DUP2 ADD SWAP1 PUSH2 0x4D SWAP2 SWAP1 PUSH2 0x26D JUMP JUMPDEST PUSH2 0x98 JUMP JUMPDEST PUSH1 0x40 MLOAD PUSH2 0x5F SWAP2 SWAP1 PUSH2 0x2F3 JUMP JUMPDEST PUSH1 0x40 MLOAD DUP1 SWAP2 SUB SWAP1 RETURN JUMPDEST PUSH2 0x82 PUSH1 0x4 DUP1 CALLDATASIZE SUB DUP2 ADD SWAP1 PUSH2 0x7D SWAP2 SWAP1 PUSH2 0x26D JUMP JUMPDEST PUSH2 0xF7 JUMP JUMPDEST PUSH1 0x40 MLOAD PUSH2 0x8F SWAP2 SWAP1 PUSH2 0x2F3 JUMP JUMPDEST PUSH1 0x40 MLOAD DUP1 SWAP2 SUB SWAP1 RETURN JUMPDEST PUSH0 PUSH1 0x80 PUSH1 0x24 PUSH1 0x8C CALLDATACOPY PUSH15 0x5AF43D82803E903D91602B57FD5BF3 PUSH1 0x6C MSTORE DUP6 PUSH1 0x5D MSTORE PUSH20 0x3D60AD80600A3D3981F3363D3D373D3D3D363D73 PUSH1 0x49 MSTORE PUSH1 0xFF PUSH0 MSTORE8 PUSH1 0xB7 PUSH1 0x55 KECCAK256 PUSH1 0x35 MSTORE ADDRESS PUSH1 0x60 SHL PUSH1 0x1 MSTORE DUP5 PUSH1 0x15 MSTORE PUSH1 0x55 PUSH0 KECCAK256 PUSH1 0x60 SHL PUSH1 0x60 SHR PUSH0 MSTORE PUSH1 0x20 PUSH0 RETURN JUMPDEST PUSH0 PUSH1 0x80 PUSH1 0x24 PUSH1 0x8C CALLDATACOPY PUSH15 0x5AF43D82803E903D91602B57FD5BF3 PUSH1 0x6C MSTORE DUP6 PUSH1 0x5D MSTORE PUSH20 0x3D60AD80600A3D3981F3363D3D373D3D3D363D73 PUSH1 0x49 MSTORE PUSH1 0xFF PUSH0 MSTORE8 PUSH1 0xB7 PUSH1 0x55 KECCAK256 PUSH1 0x35 MSTORE ADDRESS PUSH1 0x60 SHL PUSH1 0x1 MSTORE DUP5 PUSH1 0x15 MSTORE PUSH1 0x55 PUSH0 KECCAK256 DUP1 EXTCODESIZE PUSH2 0x19B JUMPI DUP6 PUSH1 0xB7 PUSH1 0x55 PUSH0 CREATE2 DUP1 PUSH2 0x168 JUMPI PUSH4 0x20188A59 PUSH0 MSTORE PUSH1 0x4 PUSH1 0x1C REVERT JUMPDEST DUP1 PUSH1 0x6C MSTORE DUP4 DUP6 DUP10 PUSH32 0x79F19B3655EE38B1CE526556B7731A20C8F218FBDA4A3990B6CC4172FDF88722 PUSH1 0x60 PUSH1 0x6C LOG4 PUSH1 0x20 PUSH1 0x6C RETURN JUMPDEST DUP1 PUSH1 0x60 SHL PUSH1 0x60 SHR PUSH0 MSTORE PUSH1 0x20 PUSH0 RETURN JUMPDEST PUSH0 DUP1 REVERT JUMPDEST PUSH0 PUSH20 0xFFFFFFFFFFFFFFFFFFFFFFFFFFFFFFFFFFFFFFFF DUP3 AND SWAP1 POP SWAP2 SWAP1 POP JUMP JUMPDEST PUSH0 PUSH2 0x1D6 DUP3 PUSH2 0x1AD JUMP JUMPDEST SWAP1 POP SWAP2 SWAP1 POP JUMP JUMPDEST PUSH2 0x1E6 DUP2 PUSH2 0x1CC JUMP JUMPDEST DUP2 EQ PUSH2 0x1F0 JUMPI PUSH0 DUP1 REVERT JUMPDEST POP JUMP JUMPDEST PUSH0 DUP2 CALLDATALOAD SWAP1 POP PUSH2 0x201 DUP2 PUSH2 0x1DD JUMP JUMPDEST SWAP3 SWAP2 POP POP JUMP JUMPDEST PUSH0 DUP2 SWAP1 POP SWAP2 SWAP1 POP JUMP JUMPDEST PUSH2 0x219 DUP2 PUSH2 0x207 JUMP JUMPDEST DUP2 EQ PUSH2 0x223 JUMPI PUSH0 DUP1 REVERT JUMPDEST POP JUMP JUMPDEST PUSH0 DUP2 CALLDATALOAD SWAP1 POP PUSH2 0x234 DUP2 PUSH2 0x210 JUMP JUMPDEST SWAP3 SWAP2 POP POP JUMP JUMPDEST PUSH0 DUP2 SWAP1 POP SWAP2 SWAP1 POP JUMP JUMPDEST PUSH2 0x24C DUP2 PUSH2 0x23A JUMP JUMPDEST DUP2 EQ PUSH2 0x256 JUMPI PUSH0 DUP1 REVERT JUMPDEST POP JUMP JUMPDEST PUSH0 DUP2 CALLDATALOAD SWAP1 POP PUSH2 0x267 DUP2 PUSH2 0x243 JUMP JUMPDEST SWAP3 SWAP2 POP POP JUMP JUMPDEST PUSH0 DUP1 PUSH0 DUP1 PUSH0 PUSH1 0xA0 DUP7 DUP9 SUB SLT ISZERO PUSH2 0x286 JUMPI PUSH2 0x285 PUSH2 0x1A9 JUMP JUMPDEST JUMPDEST PUSH0 PUSH2 0x293 DUP9 DUP3 DUP10 ADD PUSH2 0x1F3 JUMP JUMPDEST SWAP6 POP POP PUSH1 0x20 PUSH2 0x2A4 DUP9 DUP3 DUP10 ADD PUSH2 0x226 JUMP JUMPDEST SWAP5 POP POP PUSH1 0x40 PUSH2 0x2B5 DUP9 DUP3 DUP10 ADD PUSH2 0x259 JUMP JUMPDEST SWAP4 POP POP PUSH1 0x60 PUSH2 0x2C6 DUP9 DUP3 DUP10 ADD PUSH2 0x1F3 JUMP JUMPDEST SWAP3 POP POP PUSH1 0x80 PUSH2 0x2D7 DUP9 DUP3 DUP10 ADD PUSH2 0x259 JUMP JUMPDEST SWAP2 POP POP SWAP3 SWAP6 POP SWAP3 SWAP6 SWAP1 SWAP4 POP JUMP JUMPDEST PUSH2 0x2ED DUP2 PUSH2 0x1CC JUMP JUMPDEST DUP3 MSTORE POP POP JUMP JUMPDEST PUSH0 PUSH1 0x20 DUP3 ADD SWAP1 POP PUSH2 0x306 PUSH0 DUP4 ADD DUP5 PUSH2 0x2E4 JUMP JUMPDEST SWAP3 SWAP2 POP POP JUMP INVALID LOG2 PUSH5 0x6970667358 0x22 SLT KECCAK256 0xDB CALLDATACOPY MLOAD TIMESTAMP AND 0xD1 CALLDATACOPY 0xBF PUSH32 0xDB2CBB5ED2D4DE8F672D3B5BA89A1EC5741F636706774764736F6C6343000814 STOP CALLER PUSH1 0x80 PUSH1 0x40 MSTORE CALLVALUE DUP1 ISZERO PUSH2 0xF JUMPI PUSH0 DUP1 REVERT JUMPDEST POP PUSH2 0x1F27 DUP1 PUSH2 0x1D PUSH0 CODECOPY PUSH0 RETURN INVALID PUSH1 0x80 PUSH1 0x40 MSTORE PUSH1 0x4 CALLDATASIZE LT PUSH2 0x9F JUMPI PUSH0 CALLDATALOAD PUSH1 0xE0 SHR DUP1 PUSH4 0x523E3260 GT PUSH2 0x63 JUMPI DUP1 PUSH4 0x523E3260 EQ PUSH2 0x1B6 JUMPI DUP1 PUSH4 0x8DA5CB5B EQ PUSH2 0x1F2 JUMPI DUP1 PUSH4 0xBC197C81 EQ PUSH2 0x21C JUMPI DUP1 PUSH4 0xC19D93FB EQ PUSH2 0x258 JUMPI DUP1 PUSH4 0xF23A6E61 EQ PUSH2 0x282 JUMPI DUP1 PUSH4 0xFC0C546A EQ PUSH2 0x2BE JUMPI PUSH2 0xA6 JUMP JUMPDEST DUP1 PUSH4 0x1FFC9A7 EQ PUSH2 0xAA JUMPI DUP1 PUSH4 0x900F010 EQ PUSH2 0xE6 JUMPI DUP1 PUSH4 0x150B7A02 EQ PUSH2 0x10E JUMPI DUP1 PUSH4 0x1626BA7E EQ PUSH2 0x14A JUMPI DUP1 PUSH4 0x51945447 EQ PUSH2 0x186 JUMPI PUSH2 0xA6 JUMP JUMPDEST CALLDATASIZE PUSH2 0xA6 JUMPI STOP JUMPDEST PUSH0 DUP1 REVERT JUMPDEST CALLVALUE DUP1 ISZERO PUSH2 0xB5 JUMPI PUSH0 DUP1 REVERT JUMPDEST POP PUSH2 0xD0 PUSH1 0x4 DUP1 CALLDATASIZE SUB DUP2 ADD SWAP1 PUSH2 0xCB SWAP2 SWAP1 PUSH2 0x1088 JUMP JUMPDEST PUSH2 0x2EA JUMP JUMPDEST PUSH1 0x40 MLOAD PUSH2 0xDD SWAP2 SWAP1 PUSH2 0x10CD JUMP JUMPDEST PUSH1 0x40 MLOAD DUP1 SWAP2 SUB SWAP1 RETURN JUMPDEST CALLVALUE DUP1 ISZERO PUSH2 0xF1 JUMPI PUSH0 DUP1 REVERT JUMPDEST POP PUSH2 0x10C PUSH1 0x4 DUP1 CALLDATASIZE SUB DUP2 ADD SWAP1 PUSH2 0x107 SWAP2 SWAP1 PUSH2 0x1140 JUMP JUMPDEST PUSH2 0x4F3 JUMP JUMPDEST STOP JUMPDEST CALLVALUE DUP1 ISZERO PUSH2 0x119 JUMPI PUSH0 DUP1 REVERT JUMPDEST POP PUSH2 0x134 PUSH1 0x4 DUP1 CALLDATASIZE SUB DUP2 ADD SWAP1 PUSH2 0x12F SWAP2 SWAP1 PUSH2 0x12DA JUMP JUMPDEST PUSH2 0x62B JUMP JUMPDEST PUSH1 0x40 MLOAD PUSH2 0x141 SWAP2 SWAP1 PUSH2 0x1369 JUMP JUMPDEST PUSH1 0x40 MLOAD DUP1 SWAP2 SUB SWAP1 RETURN JUMPDEST CALLVALUE DUP1 ISZERO PUSH2 0x155 JUMPI PUSH0 DUP1 REVERT JUMPDEST POP PUSH2 0x170 PUSH1 0x4 DUP1 CALLDATASIZE SUB DUP2 ADD SWAP1 PUSH2 0x16B SWAP2 SWAP1 PUSH2 0x13B5 JUMP JUMPDEST PUSH2 0x648 JUMP JUMPDEST PUSH1 0x40 MLOAD PUSH2 0x17D SWAP2 SWAP1 PUSH2 0x1369 JUMP JUMPDEST PUSH1 0x40 MLOAD DUP1 SWAP2 SUB SWAP1 RETURN JUMPDEST PUSH2 0x1A0 PUSH1 0x4 DUP1 CALLDATASIZE SUB DUP2 ADD SWAP1 PUSH2 0x19B SWAP2 SWAP1 PUSH2 0x14A2 JUMP JUMPDEST PUSH2 0x682 JUMP JUMPDEST PUSH1 0x40 MLOAD PUSH2 0x1AD SWAP2 SWAP1 PUSH2 0x15A0 JUMP JUMPDEST PUSH1 0x40 MLOAD DUP1 SWAP2 SUB SWAP1 RETURN JUMPDEST CALLVALUE DUP1 ISZERO PUSH2 0x1C1 JUMPI PUSH0 DUP1 REVERT JUMPDEST POP PUSH2 0x1DC PUSH1 0x4 DUP1 CALLDATASIZE SUB DUP2 ADD SWAP1 PUSH2 0x1D7 SWAP2 SWAP1 PUSH2 0x15C0 JUMP JUMPDEST PUSH2 0x7E4 JUMP JUMPDEST PUSH1 0x40 MLOAD PUSH2 0x1E9 SWAP2 SWAP1 PUSH2 0x1369 JUMP JUMPDEST PUSH1 0x40 MLOAD DUP1 SWAP2 SUB SWAP1 RETURN JUMPDEST CALLVALUE DUP1 ISZERO PUSH2 0x1FD JUMPI PUSH0 DUP1 REVERT JUMPDEST POP PUSH2 0x206 PUSH2 0x810 JUMP JUMPDEST PUSH1 0x40 MLOAD PUSH2 0x213 SWAP2 SWAP1 PUSH2 0x162C JUMP JUMPDEST PUSH1 0x40 MLOAD DUP1 SWAP2 SUB SWAP1 RETURN JUMPDEST CALLVALUE DUP1 ISZERO PUSH2 0x227 JUMPI PUSH0 DUP1 REVERT JUMPDEST POP PUSH2 0x242 PUSH1 0x4 DUP1 CALLDATASIZE SUB DUP2 ADD SWAP1 PUSH2 0x23D SWAP2 SWAP1 PUSH2 0x1705 JUMP JUMPDEST PUSH2 0x8B5 JUMP JUMPDEST PUSH1 0x40 MLOAD PUSH2 0x24F SWAP2 SWAP1 PUSH2 0x1369 JUMP JUMPDEST PUSH1 0x40 MLOAD DUP1 SWAP2 SUB SWAP1 RETURN JUMPDEST CALLVALUE DUP1 ISZERO PUSH2 0x263 JUMPI PUSH0 DUP1 REVERT JUMPDEST POP PUSH2 0x26C PUSH2 0x8C9 JUMP JUMPDEST PUSH1 0x40 MLOAD PUSH2 0x279 SWAP2 SWAP1 PUSH2 0x17DF JUMP JUMPDEST PUSH1 0x40 MLOAD DUP1 SWAP2 SUB SWAP1 RETURN JUMPDEST CALLVALUE DUP1 ISZERO PUSH2 0x28D JUMPI PUSH0 DUP1 REVERT JUMPDEST POP PUSH2 0x2A8 PUSH1 0x4 DUP1 CALLDATASIZE SUB DUP2 ADD SWAP1 PUSH2 0x2A3 SWAP2 SWAP1 PUSH2 0x17F8 JUMP JUMPDEST PUSH2 0x8CE JUMP JUMPDEST PUSH1 0x40 MLOAD PUSH2 0x2B5 SWAP2 SWAP1 PUSH2 0x1369 JUMP JUMPDEST PUSH1 0x40 MLOAD DUP1 SWAP2 SUB SWAP1 RETURN JUMPDEST CALLVALUE DUP1 ISZERO PUSH2 0x2C9 JUMPI PUSH0 DUP1 REVERT JUMPDEST POP PUSH2 0x2D2 PUSH2 0x8E2 JUMP JUMPDEST PUSH1 0x40 MLOAD PUSH2 0x2E1 SWAP4 SWAP3 SWAP2 SWAP1 PUSH2 0x188B JUMP JUMPDEST PUSH1 0x40 MLOAD DUP1 SWAP2 SUB SWAP1 RETURN JUMPDEST PUSH0 PUSH32 0x6FAFF5F100000000000000000000000000000000000000000000000000000000 PUSH28 0xFFFFFFFFFFFFFFFFFFFFFFFFFFFFFFFFFFFFFFFFFFFFFFFFFFFFFFFF NOT AND DUP3 PUSH28 0xFFFFFFFFFFFFFFFFFFFFFFFFFFFFFFFFFFFFFFFFFFFFFFFFFFFFFFFF NOT AND EQ DUP1 PUSH2 0x3B4 JUMPI POP PUSH32 0x5194544700000000000000000000000000000000000000000000000000000000 PUSH28 0xFFFFFFFFFFFFFFFFFFFFFFFFFFFFFFFFFFFFFFFFFFFFFFFFFFFFFFFF NOT AND DUP3 PUSH28 0xFFFFFFFFFFFFFFFFFFFFFFFFFFFFFFFFFFFFFFFFFFFFFFFFFFFFFFFF NOT AND EQ JUMPDEST DUP1 PUSH2 0x41C JUMPI POP PUSH32 0x4E2312E000000000000000000000000000000000000000000000000000000000 PUSH28 0xFFFFFFFFFFFFFFFFFFFFFFFFFFFFFFFFFFFFFFFFFFFFFFFFFFFFFFFF NOT AND DUP3 PUSH28 0xFFFFFFFFFFFFFFFFFFFFFFFFFFFFFFFFFFFFFFFFFFFFFFFFFFFFFFFF NOT AND EQ JUMPDEST DUP1 PUSH2 0x484 JUMPI POP PUSH32 0x150B7A0200000000000000000000000000000000000000000000000000000000 PUSH28 0xFFFFFFFFFFFFFFFFFFFFFFFFFFFFFFFFFFFFFFFFFFFFFFFFFFFFFFFF NOT AND DUP3 PUSH28 0xFFFFFFFFFFFFFFFFFFFFFFFFFFFFFFFFFFFFFFFFFFFFFFFFFFFFFFFF NOT AND EQ JUMPDEST DUP1 PUSH2 0x4EC JUMPI POP PUSH32 0x1FFC9A700000000000000000000000000000000000000000000000000000000 PUSH28 0xFFFFFFFFFFFFFFFFFFFFFFFFFFFFFFFFFFFFFFFFFFFFFFFFFFFFFFFF NOT AND DUP3 PUSH28 0xFFFFFFFFFFFFFFFFFFFFFFFFFFFFFFFFFFFFFFFFFFFFFFFFFFFFFFFF NOT AND EQ JUMPDEST SWAP1 POP SWAP2 SWAP1 POP JUMP JUMPDEST PUSH2 0x4FC CALLER PUSH2 0x8F8 JUMP JUMPDEST PUSH2 0x53B JUMPI PUSH1 0x40 MLOAD PUSH32 0x8C379A000000000000000000000000000000000000000000000000000000000 DUP2 MSTORE PUSH1 0x4 ADD PUSH2 0x532 SWAP1 PUSH2 0x191A JUMP JUMPDEST PUSH1 0x40 MLOAD DUP1 SWAP2 SUB SWAP1 REVERT JUMPDEST PUSH0 PUSH20 0xFFFFFFFFFFFFFFFFFFFFFFFFFFFFFFFFFFFFFFFF AND DUP2 PUSH20 0xFFFFFFFFFFFFFFFFFFFFFFFFFFFFFFFFFFFFFFFF AND SUB PUSH2 0x5A9 JUMPI PUSH1 0x40 MLOAD PUSH32 0x8C379A000000000000000000000000000000000000000000000000000000000 DUP2 MSTORE PUSH1 0x4 ADD PUSH2 0x5A0 SWAP1 PUSH2 0x1982 JUMP JUMPDEST PUSH1 0x40 MLOAD DUP1 SWAP2 SUB SWAP1 REVERT JUMPDEST PUSH0 DUP1 DUP2 SLOAD PUSH2 0x5B6 SWAP1 PUSH2 0x19CD JUMP JUMPDEST SWAP2 SWAP1 POP DUP2 SWAP1 SSTORE POP DUP1 PUSH2 0x5E9 PUSH32 0x360894A13BA1A3210667C828492DB98DCA3E2076CC3735A920A3CA505D382BBC PUSH0 SHL PUSH2 0x936 JUMP JUMPDEST PUSH0 ADD PUSH0 PUSH2 0x100 EXP DUP2 SLOAD DUP2 PUSH20 0xFFFFFFFFFFFFFFFFFFFFFFFFFFFFFFFFFFFFFFFF MUL NOT AND SWAP1 DUP4 PUSH20 0xFFFFFFFFFFFFFFFFFFFFFFFFFFFFFFFFFFFFFFFF AND MUL OR SWAP1 SSTORE POP POP JUMP JUMPDEST PUSH0 PUSH2 0x636 CALLER DUP5 PUSH2 0x93F JUMP JUMPDEST PUSH4 0x150B7A02 PUSH1 0xE0 SHL SWAP1 POP SWAP5 SWAP4 POP POP POP POP JUMP JUMPDEST PUSH0 DUP1 PUSH2 0x65C PUSH2 0x655 PUSH2 0x810 JUMP JUMPDEST DUP6 DUP6 PUSH2 0xCA3 JUMP JUMPDEST SWAP1 POP DUP1 ISZERO PUSH2 0x674 JUMPI PUSH4 0x1626BA7E PUSH1 0xE0 SHL SWAP2 POP POP PUSH2 0x67C JUMP JUMPDEST PUSH0 PUSH1 0xE0 SHL SWAP2 POP POP JUMPDEST SWAP3 SWAP2 POP POP JUMP JUMPDEST PUSH1 0x60 PUSH2 0x68D CALLER PUSH2 0x8F8 JUMP JUMPDEST PUSH2 0x6CC JUMPI PUSH1 0x40 MLOAD PUSH32 0x8C379A000000000000000000000000000000000000000000000000000000000 DUP2 MSTORE PUSH1 0x4 ADD PUSH2 0x6C3 SWAP1 PUSH2 0x191A JUMP JUMPDEST PUSH1 0x40 MLOAD DUP1 SWAP2 SUB SWAP1 REVERT JUMPDEST PUSH0 DUP3 PUSH1 0xFF AND EQ PUSH2 0x711 JUMPI PUSH1 0x40 MLOAD PUSH32 0x8C379A000000000000000000000000000000000000000000000000000000000 DUP2 MSTORE PUSH1 0x4 ADD PUSH2 0x708 SWAP1 PUSH2 0x1A84 JUMP JUMPDEST PUSH1 0x40 MLOAD DUP1 SWAP2 SUB SWAP1 REVERT JUMPDEST PUSH0 DUP1 DUP2 SLOAD PUSH2 0x71E SWAP1 PUSH2 0x19CD JUMP JUMPDEST SWAP2 SWAP1 POP DUP2 SWAP1 SSTORE POP PUSH0 DUP7 PUSH20 0xFFFFFFFFFFFFFFFFFFFFFFFFFFFFFFFFFFFFFFFF AND DUP7 DUP7 DUP7 PUSH1 0x40 MLOAD PUSH2 0x74E SWAP3 SWAP2 SWAP1 PUSH2 0x1AD0 JUMP JUMPDEST PUSH0 PUSH1 0x40 MLOAD DUP1 DUP4 SUB DUP2 DUP6 DUP8 GAS CALL SWAP3 POP POP POP RETURNDATASIZE DUP1 PUSH0 DUP2 EQ PUSH2 0x788 JUMPI PUSH1 0x40 MLOAD SWAP2 POP PUSH1 0x1F NOT PUSH1 0x3F RETURNDATASIZE ADD AND DUP3 ADD PUSH1 0x40 MSTORE RETURNDATASIZE DUP3 MSTORE RETURNDATASIZE PUSH0 PUSH1 0x20 DUP5 ADD RETURNDATACOPY PUSH2 0x78D JUMP JUMPDEST PUSH1 0x60 SWAP2 POP JUMPDEST POP DUP1 SWAP4 POP DUP2 SWAP3 POP POP POP DUP1 DUP3 SWAP1 PUSH2 0x7D9 JUMPI PUSH1 0x40 MLOAD PUSH32 0x8C379A000000000000000000000000000000000000000000000000000000000 DUP2 MSTORE PUSH1 0x4 ADD PUSH2 0x7D0 SWAP2 SWAP1 PUSH2 0x1B2A JUMP JUMPDEST PUSH1 0x40 MLOAD DUP1 SWAP2 SUB SWAP1 REVERT JUMPDEST POP POP SWAP6 SWAP5 POP POP POP POP POP JUMP JUMPDEST PUSH0 PUSH2 0x7EE DUP5 PUSH2 0x8F8 JUMP JUMPDEST ISZERO PUSH2 0x802 JUMPI PUSH4 0x523E3260 PUSH1 0xE0 SHL SWAP1 POP PUSH2 0x809 JUMP JUMPDEST PUSH0 PUSH1 0xE0 SHL SWAP1 POP JUMPDEST SWAP4 SWAP3 POP POP POP JUMP JUMPDEST PUSH0 DUP1 PUSH0 DUP1 PUSH2 0x81C PUSH2 0x8E2 JUMP JUMPDEST SWAP3 POP SWAP3 POP SWAP3 POP CHAINID DUP4 EQ PUSH2 0x834 JUMPI PUSH0 SWAP4 POP POP POP POP PUSH2 0x8B2 JUMP JUMPDEST DUP2 PUSH20 0xFFFFFFFFFFFFFFFFFFFFFFFFFFFFFFFFFFFFFFFF AND PUSH4 0x6352211E DUP3 PUSH1 0x40 MLOAD DUP3 PUSH4 0xFFFFFFFF AND PUSH1 0xE0 SHL DUP2 MSTORE PUSH1 0x4 ADD PUSH2 0x86D SWAP2 SWAP1 PUSH2 0x17DF JUMP JUMPDEST PUSH1 0x20 PUSH1 0x40 MLOAD DUP1 DUP4 SUB DUP2 DUP7 GAS STATICCALL ISZERO DUP1 ISZERO PUSH2 0x888 JUMPI RETURNDATASIZE PUSH0 DUP1 RETURNDATACOPY RETURNDATASIZE PUSH0 REVERT JUMPDEST POP POP POP POP PUSH1 0x40 MLOAD RETURNDATASIZE PUSH1 0x1F NOT PUSH1 0x1F DUP3 ADD AND DUP3 ADD DUP1 PUSH1 0x40 MSTORE POP DUP2 ADD SWAP1 PUSH2 0x8AC SWAP2 SWAP1 PUSH2 0x1B5E JUMP JUMPDEST SWAP4 POP POP POP POP JUMPDEST SWAP1 JUMP JUMPDEST PUSH0 PUSH4 0xBC197C81 PUSH1 0xE0 SHL SWAP1 POP SWAP6 SWAP5 POP POP POP POP POP JUMP JUMPDEST PUSH0 SLOAD DUP2 JUMP JUMPDEST PUSH0 PUSH4 0xF23A6E61 PUSH1 0xE0 SHL SWAP1 POP SWAP6 SWAP5 POP POP POP POP POP JUMP JUMPDEST PUSH0 DUP1 PUSH0 PUSH2 0x8ED PUSH2 0xD30 JUMP JUMPDEST SWAP3 POP SWAP3 POP SWAP3 POP SWAP1 SWAP2 SWAP3 JUMP JUMPDEST PUSH0 PUSH2 0x901 PUSH2 0x810 JUMP JUMPDEST PUSH20 0xFFFFFFFFFFFFFFFFFFFFFFFFFFFFFFFFFFFFFFFF AND DUP3 PUSH20 0xFFFFFFFFFFFFFFFFFFFFFFFFFFFFFFFFFFFFFFFF AND EQ SWAP1 POP SWAP2 SWAP1 POP JUMP JUMPDEST PUSH0 DUP2 SWAP1 POP SWAP2 SWAP1 POP JUMP JUMPDEST PUSH0 DUP1 PUSH0 PUSH2 0x94A PUSH2 0x8E2 JUMP JUMPDEST SWAP3 POP SWAP3 POP SWAP3 POP CHAINID DUP4 EQ ISZERO DUP1 PUSH2 0x98B JUMPI POP DUP2 PUSH20 0xFFFFFFFFFFFFFFFFFFFFFFFFFFFFFFFFFFFFFFFF AND DUP6 PUSH20 0xFFFFFFFFFFFFFFFFFFFFFFFFFFFFFFFFFFFFFFFF AND EQ ISZERO JUMPDEST DUP1 PUSH2 0x996 JUMPI POP DUP1 DUP5 EQ ISZERO JUMPDEST PUSH2 0x9D5 JUMPI PUSH1 0x40 MLOAD PUSH32 0x8C379A000000000000000000000000000000000000000000000000000000000 DUP2 MSTORE PUSH1 0x4 ADD PUSH2 0x9CC SWAP1 PUSH2 0x1BD3 JUMP JUMPDEST PUSH1 0x40 MLOAD DUP1 SWAP2 SUB SWAP1 REVERT JUMPDEST PUSH0 PUSH2 0x9DE PUSH2 0x810 JUMP JUMPDEST SWAP1 POP ADDRESS PUSH20 0xFFFFFFFFFFFFFFFFFFFFFFFFFFFFFFFFFFFFFFFF AND DUP2 PUSH20 0xFFFFFFFFFFFFFFFFFFFFFFFFFFFFFFFFFFFFFFFF AND SUB PUSH2 0xA4E JUMPI PUSH1 0x40 MLOAD PUSH32 0x8C379A000000000000000000000000000000000000000000000000000000000 DUP2 MSTORE PUSH1 0x4 ADD PUSH2 0xA45 SWAP1 PUSH2 0x1C3B JUMP JUMPDEST PUSH1 0x40 MLOAD DUP1 SWAP2 SUB SWAP1 REVERT JUMPDEST PUSH0 JUMPDEST PUSH0 DUP3 PUSH20 0xFFFFFFFFFFFFFFFFFFFFFFFFFFFFFFFFFFFFFFFF AND EXTCODESIZE GT ISZERO PUSH2 0xC9A JUMPI DUP2 PUSH20 0xFFFFFFFFFFFFFFFFFFFFFFFFFFFFFFFFFFFFFFFF AND PUSH4 0xFC0C546A PUSH1 0x40 MLOAD DUP2 PUSH4 0xFFFFFFFF AND PUSH1 0xE0 SHL DUP2 MSTORE PUSH1 0x4 ADD PUSH1 0x60 PUSH1 0x40 MLOAD DUP1 DUP4 SUB DUP2 DUP7 GAS STATICCALL SWAP3 POP POP POP DUP1 ISZERO PUSH2 0xAD7 JUMPI POP PUSH1 0x40 MLOAD RETURNDATASIZE PUSH1 0x1F NOT PUSH1 0x1F DUP3 ADD AND DUP3 ADD DUP1 PUSH1 0x40 MSTORE POP DUP2 ADD SWAP1 PUSH2 0xAD4 SWAP2 SWAP1 PUSH2 0x1C6D JUMP JUMPDEST PUSH1 0x1 JUMPDEST ISZERO PUSH2 0xC9A JUMPI CHAINID DUP4 EQ ISZERO DUP1 PUSH2 0xB17 JUMPI POP DUP10 PUSH20 0xFFFFFFFFFFFFFFFFFFFFFFFFFFFFFFFFFFFFFFFF AND DUP3 PUSH20 0xFFFFFFFFFFFFFFFFFFFFFFFFFFFFFFFFFFFFFFFF AND EQ ISZERO JUMPDEST DUP1 PUSH2 0xB22 JUMPI POP DUP9 DUP2 EQ ISZERO JUMPDEST PUSH2 0xB61 JUMPI PUSH1 0x40 MLOAD PUSH32 0x8C379A000000000000000000000000000000000000000000000000000000000 DUP2 MSTORE PUSH1 0x4 ADD PUSH2 0xB58 SWAP1 PUSH2 0x1C3B JUMP JUMPDEST PUSH1 0x40 MLOAD DUP1 SWAP2 SUB SWAP1 REVERT JUMPDEST DUP2 PUSH20 0xFFFFFFFFFFFFFFFFFFFFFFFFFFFFFFFFFFFFFFFF AND PUSH4 0x6352211E DUP3 PUSH1 0x40 MLOAD DUP3 PUSH4 0xFFFFFFFF AND PUSH1 0xE0 SHL DUP2 MSTORE PUSH1 0x4 ADD PUSH2 0xB9A SWAP2 SWAP1 PUSH2 0x17DF JUMP JUMPDEST PUSH1 0x20 PUSH1 0x40 MLOAD DUP1 DUP4 SUB DUP2 DUP7 GAS STATICCALL ISZERO DUP1 ISZERO PUSH2 0xBB5 JUMPI RETURNDATASIZE PUSH0 DUP1 RETURNDATACOPY RETURNDATASIZE PUSH0 REVERT JUMPDEST POP POP POP POP PUSH1 0x40 MLOAD RETURNDATASIZE PUSH1 0x1F NOT PUSH1 0x1F DUP3 ADD AND DUP3 ADD DUP1 PUSH1 0x40 MSTORE POP DUP2 ADD SWAP1 PUSH2 0xBD9 SWAP2 SWAP1 PUSH2 0x1B5E JUMP JUMPDEST SWAP5 POP ADDRESS PUSH20 0xFFFFFFFFFFFFFFFFFFFFFFFFFFFFFFFFFFFFFFFF AND DUP6 PUSH20 0xFFFFFFFFFFFFFFFFFFFFFFFFFFFFFFFFFFFFFFFF AND SUB PUSH2 0xC49 JUMPI PUSH1 0x40 MLOAD PUSH32 0x8C379A000000000000000000000000000000000000000000000000000000000 DUP2 MSTORE PUSH1 0x4 ADD PUSH2 0xC40 SWAP1 PUSH2 0x1C3B JUMP JUMPDEST PUSH1 0x40 MLOAD DUP1 SWAP2 SUB SWAP1 REVERT JUMPDEST POP POP POP DUP1 PUSH1 0x1 ADD SWAP1 POP PUSH1 0x5 DUP2 SUB PUSH2 0xC95 JUMPI PUSH1 0x40 MLOAD PUSH32 0x8C379A000000000000000000000000000000000000000000000000000000000 DUP2 MSTORE PUSH1 0x4 ADD PUSH2 0xC8C SWAP1 PUSH2 0x1D07 JUMP JUMPDEST PUSH1 0x40 MLOAD DUP1 SWAP2 SUB SWAP1 REVERT JUMPDEST PUSH2 0xA50 JUMP JUMPDEST POP POP POP POP POP POP POP JUMP JUMPDEST PUSH0 DUP1 PUSH0 PUSH2 0xCB0 DUP6 DUP6 PUSH2 0xD47 JUMP JUMPDEST POP SWAP2 POP SWAP2 POP PUSH0 PUSH1 0x3 DUP2 GT ISZERO PUSH2 0xCC8 JUMPI PUSH2 0xCC7 PUSH2 0x1D25 JUMP JUMPDEST JUMPDEST DUP2 PUSH1 0x3 DUP2 GT ISZERO PUSH2 0xCDB JUMPI PUSH2 0xCDA PUSH2 0x1D25 JUMP JUMPDEST JUMPDEST EQ DUP1 ISZERO PUSH2 0xD13 JUMPI POP DUP6 PUSH20 0xFFFFFFFFFFFFFFFFFFFFFFFFFFFFFFFFFFFFFFFF AND DUP3 PUSH20 0xFFFFFFFFFFFFFFFFFFFFFFFFFFFFFFFFFFFFFFFF AND EQ JUMPDEST DUP1 PUSH2 0xD25 JUMPI POP PUSH2 0xD24 DUP7 DUP7 DUP7 PUSH2 0xD9C JUMP JUMPDEST JUMPDEST SWAP3 POP POP POP SWAP4 SWAP3 POP POP POP JUMP JUMPDEST PUSH0 DUP1 PUSH0 PUSH2 0xD3C ADDRESS PUSH2 0xEBB JUMP JUMPDEST SWAP3 POP SWAP3 POP SWAP3 POP SWAP1 SWAP2 SWAP3 JUMP JUMPDEST PUSH0 DUP1 PUSH0 PUSH1 0x41 DUP5 MLOAD SUB PUSH2 0xD87 JUMPI PUSH0 DUP1 PUSH0 PUSH1 0x20 DUP8 ADD MLOAD SWAP3 POP PUSH1 0x40 DUP8 ADD MLOAD SWAP2 POP PUSH1 0x60 DUP8 ADD MLOAD PUSH0 BYTE SWAP1 POP PUSH2 0xD79 DUP9 DUP3 DUP6 DUP6 PUSH2 0xF3B JUMP JUMPDEST SWAP6 POP SWAP6 POP SWAP6 POP POP POP POP PUSH2 0xD95 JUMP JUMPDEST PUSH0 PUSH1 0x2 DUP6 MLOAD PUSH0 SHL SWAP3 POP SWAP3 POP SWAP3 POP JUMPDEST SWAP3 POP SWAP3 POP SWAP3 JUMP JUMPDEST PUSH0 DUP1 PUSH0 DUP6 PUSH20 0xFFFFFFFFFFFFFFFFFFFFFFFFFFFFFFFFFFFFFFFF AND DUP6 DUP6 PUSH1 0x40 MLOAD PUSH1 0x24 ADD PUSH2 0xDC9 SWAP3 SWAP2 SWAP1 PUSH2 0x1D61 JUMP JUMPDEST PUSH1 0x40 MLOAD PUSH1 0x20 DUP2 DUP4 SUB SUB DUP2 MSTORE SWAP1 PUSH1 0x40 MSTORE PUSH4 0x1626BA7E PUSH1 0xE0 SHL PUSH1 0x20 DUP3 ADD DUP1 MLOAD PUSH28 0xFFFFFFFFFFFFFFFFFFFFFFFFFFFFFFFFFFFFFFFFFFFFFFFFFFFFFFFF DUP4 DUP2 DUP4 AND OR DUP4 MSTORE POP POP POP POP PUSH1 0x40 MLOAD PUSH2 0xE1B SWAP2 SWAP1 PUSH2 0x1DBF JUMP JUMPDEST PUSH0 PUSH1 0x40 MLOAD DUP1 DUP4 SUB DUP2 DUP6 GAS STATICCALL SWAP2 POP POP RETURNDATASIZE DUP1 PUSH0 DUP2 EQ PUSH2 0xE53 JUMPI PUSH1 0x40 MLOAD SWAP2 POP PUSH1 0x1F NOT PUSH1 0x3F RETURNDATASIZE ADD AND DUP3 ADD PUSH1 0x40 MSTORE RETURNDATASIZE DUP3 MSTORE RETURNDATASIZE PUSH0 PUSH1 0x20 DUP5 ADD RETURNDATACOPY PUSH2 0xE58 JUMP JUMPDEST PUSH1 0x60 SWAP2 POP JUMPDEST POP SWAP2 POP SWAP2 POP DUP2 DUP1 ISZERO PUSH2 0xE6C JUMPI POP PUSH1 0x20 DUP2 MLOAD LT ISZERO JUMPDEST DUP1 ISZERO PUSH2 0xEB0 JUMPI POP PUSH4 0x1626BA7E PUSH1 0xE0 SHL PUSH28 0xFFFFFFFFFFFFFFFFFFFFFFFFFFFFFFFFFFFFFFFFFFFFFFFFFFFFFFFF NOT AND DUP2 DUP1 PUSH1 0x20 ADD SWAP1 MLOAD DUP2 ADD SWAP1 PUSH2 0xEAE SWAP2 SWAP1 PUSH2 0x1DE9 JUMP JUMPDEST EQ JUMPDEST SWAP3 POP POP POP SWAP4 SWAP3 POP POP POP JUMP JUMPDEST PUSH0 DUP1 PUSH0 DUP1 PUSH1 0x60 PUSH8 0xFFFFFFFFFFFFFFFF DUP2 GT ISZERO PUSH2 0xEDA JUMPI PUSH2 0xED9 PUSH2 0x11B6 JUMP JUMPDEST JUMPDEST PUSH1 0x40 MLOAD SWAP1 DUP1 DUP3 MSTORE DUP1 PUSH1 0x1F ADD PUSH1 0x1F NOT AND PUSH1 0x20 ADD DUP3 ADD PUSH1 0x40 MSTORE DUP1 ISZERO PUSH2 0xF0C JUMPI DUP2 PUSH1 0x20 ADD PUSH1 0x1 DUP3 MUL DUP1 CALLDATASIZE DUP4 CALLDATACOPY DUP1 DUP3 ADD SWAP2 POP POP SWAP1 POP JUMPDEST POP SWAP1 POP PUSH1 0x60 PUSH1 0x4D PUSH1 0x20 DUP4 ADD DUP8 EXTCODECOPY DUP1 DUP1 PUSH1 0x20 ADD SWAP1 MLOAD DUP2 ADD SWAP1 PUSH2 0xF2D SWAP2 SWAP1 PUSH2 0x1E4F JUMP JUMPDEST SWAP4 POP SWAP4 POP SWAP4 POP POP SWAP2 SWAP4 SWAP1 SWAP3 POP JUMP JUMPDEST PUSH0 DUP1 PUSH0 PUSH32 0x7FFFFFFFFFFFFFFFFFFFFFFFFFFFFFFF5D576E7357A4501DDFE92F46681B20A0 DUP5 PUSH0 SHR GT ISZERO PUSH2 0xF77 JUMPI PUSH0 PUSH1 0x3 DUP6 SWAP3 POP SWAP3 POP SWAP3 POP PUSH2 0x1018 JUMP JUMPDEST PUSH0 PUSH1 0x1 DUP9 DUP9 DUP9 DUP9 PUSH1 0x40 MLOAD PUSH0 DUP2 MSTORE PUSH1 0x20 ADD PUSH1 0x40 MSTORE PUSH1 0x40 MLOAD PUSH2 0xF9A SWAP5 SWAP4 SWAP3 SWAP2 SWAP1 PUSH2 0x1EAE JUMP JUMPDEST PUSH1 0x20 PUSH1 0x40 MLOAD PUSH1 0x20 DUP2 SUB SWAP1 DUP1 DUP5 SUB SWAP1 DUP6 GAS STATICCALL ISZERO DUP1 ISZERO PUSH2 0xFBA JUMPI RETURNDATASIZE PUSH0 DUP1 RETURNDATACOPY RETURNDATASIZE PUSH0 REVERT JUMPDEST POP POP POP PUSH1 0x20 PUSH1 0x40 MLOAD SUB MLOAD SWAP1 POP PUSH0 PUSH20 0xFFFFFFFFFFFFFFFFFFFFFFFFFFFFFFFFFFFFFFFF AND DUP2 PUSH20 0xFFFFFFFFFFFFFFFFFFFFFFFFFFFFFFFFFFFFFFFF AND SUB PUSH2 0x100B JUMPI PUSH0 PUSH1 0x1 PUSH0 DUP1 SHL SWAP4 POP SWAP4 POP SWAP4 POP POP PUSH2 0x1018 JUMP JUMPDEST DUP1 PUSH0 DUP1 PUSH0 SHL SWAP4 POP SWAP4 POP SWAP4 POP POP JUMPDEST SWAP5 POP SWAP5 POP SWAP5 SWAP2 POP POP JUMP JUMPDEST PUSH0 PUSH1 0x40 MLOAD SWAP1 POP SWAP1 JUMP JUMPDEST PUSH0 DUP1 REVERT JUMPDEST PUSH0 DUP1 REVERT JUMPDEST PUSH0 PUSH32 0xFFFFFFFF00000000000000000000000000000000000000000000000000000000 DUP3 AND SWAP1 POP SWAP2 SWAP1 POP JUMP JUMPDEST PUSH2 0x1067 DUP2 PUSH2 0x1033 JUMP JUMPDEST DUP2 EQ PUSH2 0x1071 JUMPI PUSH0 DUP1 REVERT JUMPDEST POP JUMP JUMPDEST PUSH0 DUP2 CALLDATALOAD SWAP1 POP PUSH2 0x1082 DUP2 PUSH2 0x105E JUMP JUMPDEST SWAP3 SWAP2 POP POP JUMP JUMPDEST PUSH0 PUSH1 0x20 DUP3 DUP5 SUB SLT ISZERO PUSH2 0x109D JUMPI PUSH2 0x109C PUSH2 0x102B JUMP JUMPDEST JUMPDEST PUSH0 PUSH2 0x10AA DUP5 DUP3 DUP6 ADD PUSH2 0x1074 JUMP JUMPDEST SWAP2 POP POP SWAP3 SWAP2 POP POP JUMP JUMPDEST PUSH0 DUP2 ISZERO ISZERO SWAP1 POP SWAP2 SWAP1 POP JUMP JUMPDEST PUSH2 0x10C7 DUP2 PUSH2 0x10B3 JUMP JUMPDEST DUP3 MSTORE POP POP JUMP JUMPDEST PUSH0 PUSH1 0x20 DUP3 ADD SWAP1 POP PUSH2 0x10E0 PUSH0 DUP4 ADD DUP5 PUSH2 0x10BE JUMP JUMPDEST SWAP3 SWAP2 POP POP JUMP JUMPDEST PUSH0 PUSH20 0xFFFFFFFFFFFFFFFFFFFFFFFFFFFFFFFFFFFFFFFF DUP3 AND SWAP1 POP SWAP2 SWAP1 POP JUMP JUMPDEST PUSH0 PUSH2 0x110F DUP3 PUSH2 0x10E6 JUMP JUMPDEST SWAP1 POP SWAP2 SWAP1 POP JUMP JUMPDEST PUSH2 0x111F DUP2 PUSH2 0x1105 JUMP JUMPDEST DUP2 EQ PUSH2 0x1129 JUMPI PUSH0 DUP1 REVERT JUMPDEST POP JUMP JUMPDEST PUSH0 DUP2 CALLDATALOAD SWAP1 POP PUSH2 0x113A DUP2 PUSH2 0x1116 JUMP JUMPDEST SWAP3 SWAP2 POP POP JUMP JUMPDEST PUSH0 PUSH1 0x20 DUP3 DUP5 SUB SLT ISZERO PUSH2 0x1155 JUMPI PUSH2 0x1154 PUSH2 0x102B JUMP JUMPDEST JUMPDEST PUSH0 PUSH2 0x1162 DUP5 DUP3 DUP6 ADD PUSH2 0x112C JUMP JUMPDEST SWAP2 POP POP SWAP3 SWAP2 POP POP JUMP JUMPDEST PUSH0 DUP2 SWAP1 POP SWAP2 SWAP1 POP JUMP JUMPDEST PUSH2 0x117D DUP2 PUSH2 0x116B JUMP JUMPDEST DUP2 EQ PUSH2 0x1187 JUMPI PUSH0 DUP1 REVERT JUMPDEST POP JUMP JUMPDEST PUSH0 DUP2 CALLDATALOAD SWAP1 POP PUSH2 0x1198 DUP2 PUSH2 0x1174 JUMP JUMPDEST SWAP3 SWAP2 POP POP JUMP JUMPDEST PUSH0 DUP1 REVERT JUMPDEST PUSH0 DUP1 REVERT JUMPDEST PUSH0 PUSH1 0x1F NOT PUSH1 0x1F DUP4 ADD AND SWAP1 POP SWAP2 SWAP1 POP JUMP JUMPDEST PUSH32 0x4E487B7100000000000000000000000000000000000000000000000000000000 PUSH0 MSTORE PUSH1 0x41 PUSH1 0x4 MSTORE PUSH1 0x24 PUSH0 REVERT JUMPDEST PUSH2 0x11EC DUP3 PUSH2 0x11A6 JUMP JUMPDEST DUP2 ADD DUP2 DUP2 LT PUSH8 0xFFFFFFFFFFFFFFFF DUP3 GT OR ISZERO PUSH2 0x120B JUMPI PUSH2 0x120A PUSH2 0x11B6 JUMP JUMPDEST JUMPDEST DUP1 PUSH1 0x40 MSTORE POP POP POP JUMP JUMPDEST PUSH0 PUSH2 0x121D PUSH2 0x1022 JUMP JUMPDEST SWAP1 POP PUSH2 0x1229 DUP3 DUP3 PUSH2 0x11E3 JUMP JUMPDEST SWAP2 SWAP1 POP JUMP JUMPDEST PUSH0 PUSH8 0xFFFFFFFFFFFFFFFF DUP3 GT ISZERO PUSH2 0x1248 JUMPI PUSH2 0x1247 PUSH2 0x11B6 JUMP JUMPDEST JUMPDEST PUSH2 0x1251 DUP3 PUSH2 0x11A6 JUMP JUMPDEST SWAP1 POP PUSH1 0x20 DUP2 ADD SWAP1 POP SWAP2 SWAP1 POP JUMP JUMPDEST DUP3 DUP2 DUP4 CALLDATACOPY PUSH0 DUP4 DUP4 ADD MSTORE POP POP POP JUMP JUMPDEST PUSH0 PUSH2 0x127E PUSH2 0x1279 DUP5 PUSH2 0x122E JUMP JUMPDEST PUSH2 0x1214 JUMP JUMPDEST SWAP1 POP DUP3 DUP2 MSTORE PUSH1 0x20 DUP2 ADD DUP5 DUP5 DUP5 ADD GT ISZERO PUSH2 0x129A JUMPI PUSH2 0x1299 PUSH2 0x11A2 JUMP JUMPDEST JUMPDEST PUSH2 0x12A5 DUP5 DUP3 DUP6 PUSH2 0x125E JUMP JUMPDEST POP SWAP4 SWAP3 POP POP POP JUMP JUMPDEST PUSH0 DUP3 PUSH1 0x1F DUP4 ADD SLT PUSH2 0x12C1 JUMPI PUSH2 0x12C0 PUSH2 0x119E JUMP JUMPDEST JUMPDEST DUP2 CALLDATALOAD PUSH2 0x12D1 DUP5 DUP3 PUSH1 0x20 DUP7 ADD PUSH2 0x126C JUMP JUMPDEST SWAP2 POP POP SWAP3 SWAP2 POP POP JUMP JUMPDEST PUSH0 DUP1 PUSH0 DUP1 PUSH1 0x80 DUP6 DUP8 SUB SLT ISZERO PUSH2 0x12F2 JUMPI PUSH2 0x12F1 PUSH2 0x102B JUMP JUMPDEST JUMPDEST PUSH0 PUSH2 0x12FF DUP8 DUP3 DUP9 ADD PUSH2 0x112C JUMP JUMPDEST SWAP5 POP POP PUSH1 0x20 PUSH2 0x1310 DUP8 DUP3 DUP9 ADD PUSH2 0x112C JUMP JUMPDEST SWAP4 POP POP PUSH1 0x40 PUSH2 0x1321 DUP8 DUP3 DUP9 ADD PUSH2 0x118A JUMP JUMPDEST SWAP3 POP POP PUSH1 0x60 DUP6 ADD CALLDATALOAD PUSH8 0xFFFFFFFFFFFFFFFF DUP2 GT ISZERO PUSH2 0x1342 JUMPI PUSH2 0x1341 PUSH2 0x102F JUMP JUMPDEST JUMPDEST PUSH2 0x134E DUP8 DUP3 DUP9 ADD PUSH2 0x12AD JUMP JUMPDEST SWAP2 POP POP SWAP3 SWAP6 SWAP2 SWAP5 POP SWAP3 POP JUMP JUMPDEST PUSH2 0x1363 DUP2 PUSH2 0x1033 JUMP JUMPDEST DUP3 MSTORE POP POP JUMP JUMPDEST PUSH0 PUSH1 0x20 DUP3 ADD SWAP1 POP PUSH2 0x137C PUSH0 DUP4 ADD DUP5 PUSH2 0x135A JUMP JUMPDEST SWAP3 SWAP2 POP POP JUMP JUMPDEST PUSH0 DUP2 SWAP1 POP SWAP2 SWAP1 POP JUMP JUMPDEST PUSH2 0x1394 DUP2 PUSH2 0x1382 JUMP JUMPDEST DUP2 EQ PUSH2 0x139E JUMPI PUSH0 DUP1 REVERT JUMPDEST POP JUMP JUMPDEST PUSH0 DUP2 CALLDATALOAD SWAP1 POP PUSH2 0x13AF DUP2 PUSH2 0x138B JUMP JUMPDEST SWAP3 SWAP2 POP POP JUMP JUMPDEST PUSH0 DUP1 PUSH1 0x40 DUP4 DUP6 SUB SLT ISZERO PUSH2 0x13CB JUMPI PUSH2 0x13CA PUSH2 0x102B JUMP JUMPDEST JUMPDEST PUSH0 PUSH2 0x13D8 DUP6 DUP3 DUP7 ADD PUSH2 0x13A1 JUMP JUMPDEST SWAP3 POP POP PUSH1 0x20 DUP4 ADD CALLDATALOAD PUSH8 0xFFFFFFFFFFFFFFFF DUP2 GT ISZERO PUSH2 0x13F9 JUMPI PUSH2 0x13F8 PUSH2 0x102F JUMP JUMPDEST JUMPDEST PUSH2 0x1405 DUP6 DUP3 DUP7 ADD PUSH2 0x12AD JUMP JUMPDEST SWAP2 POP POP SWAP3 POP SWAP3 SWAP1 POP JUMP JUMPDEST PUSH0 DUP1 REVERT JUMPDEST PUSH0 DUP1 REVERT JUMPDEST PUSH0 DUP1 DUP4 PUSH1 0x1F DUP5 ADD SLT PUSH2 0x142C JUMPI PUSH2 0x142B PUSH2 0x119E JUMP JUMPDEST JUMPDEST DUP3 CALLDATALOAD SWAP1 POP PUSH8 0xFFFFFFFFFFFFFFFF DUP2 GT ISZERO PUSH2 0x1449 JUMPI PUSH2 0x1448 PUSH2 0x140F JUMP JUMPDEST JUMPDEST PUSH1 0x20 DUP4 ADD SWAP2 POP DUP4 PUSH1 0x1 DUP3 MUL DUP4 ADD GT ISZERO PUSH2 0x1465 JUMPI PUSH2 0x1464 PUSH2 0x1413 JUMP JUMPDEST JUMPDEST SWAP3 POP SWAP3 SWAP1 POP JUMP JUMPDEST PUSH0 PUSH1 0xFF DUP3 AND SWAP1 POP SWAP2 SWAP1 POP JUMP JUMPDEST PUSH2 0x1481 DUP2 PUSH2 0x146C JUMP JUMPDEST DUP2 EQ PUSH2 0x148B JUMPI PUSH0 DUP1 REVERT JUMPDEST POP JUMP JUMPDEST PUSH0 DUP2 CALLDATALOAD SWAP1 POP PUSH2 0x149C DUP2 PUSH2 0x1478 JUMP JUMPDEST SWAP3 SWAP2 POP POP JUMP JUMPDEST PUSH0 DUP1 PUSH0 DUP1 PUSH0 PUSH1 0x80 DUP7 DUP9 SUB SLT ISZERO PUSH2 0x14BB JUMPI PUSH2 0x14BA PUSH2 0x102B JUMP JUMPDEST JUMPDEST PUSH0 PUSH2 0x14C8 DUP9 DUP3 DUP10 ADD PUSH2 0x112C JUMP JUMPDEST SWAP6 POP POP PUSH1 0x20 PUSH2 0x14D9 DUP9 DUP3 DUP10 ADD PUSH2 0x118A JUMP JUMPDEST SWAP5 POP POP PUSH1 0x40 DUP7 ADD CALLDATALOAD PUSH8 0xFFFFFFFFFFFFFFFF DUP2 GT ISZERO PUSH2 0x14FA JUMPI PUSH2 0x14F9 PUSH2 0x102F JUMP JUMPDEST JUMPDEST PUSH2 0x1506 DUP9 DUP3 DUP10 ADD PUSH2 0x1417 JUMP JUMPDEST SWAP4 POP SWAP4 POP POP PUSH1 0x60 PUSH2 0x1519 DUP9 DUP3 DUP10 ADD PUSH2 0x148E JUMP JUMPDEST SWAP2 POP POP SWAP3 SWAP6 POP SWAP3 SWAP6 SWAP1 SWAP4 POP JUMP JUMPDEST PUSH0 DUP2 MLOAD SWAP1 POP SWAP2 SWAP1 POP JUMP JUMPDEST PUSH0 DUP3 DUP3 MSTORE PUSH1 0x20 DUP3 ADD SWAP1 POP SWAP3 SWAP2 POP POP JUMP JUMPDEST PUSH0 JUMPDEST DUP4 DUP2 LT ISZERO PUSH2 0x155D JUMPI DUP1 DUP3 ADD MLOAD DUP2 DUP5 ADD MSTORE PUSH1 0x20 DUP2 ADD SWAP1 POP PUSH2 0x1542 JUMP JUMPDEST PUSH0 DUP5 DUP5 ADD MSTORE POP POP POP POP JUMP JUMPDEST PUSH0 PUSH2 0x1572 DUP3 PUSH2 0x1526 JUMP JUMPDEST PUSH2 0x157C DUP2 DUP6 PUSH2 0x1530 JUMP JUMPDEST SWAP4 POP PUSH2 0x158C DUP2 DUP6 PUSH1 0x20 DUP7 ADD PUSH2 0x1540 JUMP JUMPDEST PUSH2 0x1595 DUP2 PUSH2 0x11A6 JUMP JUMPDEST DUP5 ADD SWAP2 POP POP SWAP3 SWAP2 POP POP JUMP JUMPDEST PUSH0 PUSH1 0x20 DUP3 ADD SWAP1 POP DUP2 DUP2 SUB PUSH0 DUP4 ADD MSTORE PUSH2 0x15B8 DUP2 DUP5 PUSH2 0x1568 JUMP JUMPDEST SWAP1 POP SWAP3 SWAP2 POP POP JUMP JUMPDEST PUSH0 DUP1 PUSH0 PUSH1 0x40 DUP5 DUP7 SUB SLT ISZERO PUSH2 0x15D7 JUMPI PUSH2 0x15D6 PUSH2 0x102B JUMP JUMPDEST JUMPDEST PUSH0 PUSH2 0x15E4 DUP7 DUP3 DUP8 ADD PUSH2 0x112C JUMP JUMPDEST SWAP4 POP POP PUSH1 0x20 DUP5 ADD CALLDATALOAD PUSH8 0xFFFFFFFFFFFFFFFF DUP2 GT ISZERO PUSH2 0x1605 JUMPI PUSH2 0x1604 PUSH2 0x102F JUMP JUMPDEST JUMPDEST PUSH2 0x1611 DUP7 DUP3 DUP8 ADD PUSH2 0x1417 JUMP JUMPDEST SWAP3 POP SWAP3 POP POP SWAP3 POP SWAP3 POP SWAP3 JUMP JUMPDEST PUSH2 0x1626 DUP2 PUSH2 0x1105 JUMP JUMPDEST DUP3 MSTORE POP POP JUMP JUMPDEST PUSH0 PUSH1 0x20 DUP3 ADD SWAP1 POP PUSH2 0x163F PUSH0 DUP4 ADD DUP5 PUSH2 0x161D JUMP JUMPDEST SWAP3 SWAP2 POP POP JUMP JUMPDEST PUSH0 PUSH8 0xFFFFFFFFFFFFFFFF DUP3 GT ISZERO PUSH2 0x165F JUMPI PUSH2 0x165E PUSH2 0x11B6 JUMP JUMPDEST JUMPDEST PUSH1 0x20 DUP3 MUL SWAP1 POP PUSH1 0x20 DUP2 ADD SWAP1 POP SWAP2 SWAP1 POP JUMP JUMPDEST PUSH0 PUSH2 0x1682 PUSH2 0x167D DUP5 PUSH2 0x1645 JUMP JUMPDEST PUSH2 0x1214 JUMP JUMPDEST SWAP1 POP DUP1 DUP4 DUP3 MSTORE PUSH1 0x20 DUP3 ADD SWAP1 POP PUSH1 0x20 DUP5 MUL DUP4 ADD DUP6 DUP2 GT ISZERO PUSH2 0x16A5 JUMPI PUSH2 0x16A4 PUSH2 0x1413 JUMP JUMPDEST JUMPDEST DUP4 JUMPDEST DUP2 DUP2 LT ISZERO PUSH2 0x16CE JUMPI DUP1 PUSH2 0x16BA DUP9 DUP3 PUSH2 0x118A JUMP JUMPDEST DUP5 MSTORE PUSH1 0x20 DUP5 ADD SWAP4 POP POP PUSH1 0x20 DUP2 ADD SWAP1 POP PUSH2 0x16A7 JUMP JUMPDEST POP POP POP SWAP4 SWAP3 POP POP POP JUMP JUMPDEST PUSH0 DUP3 PUSH1 0x1F DUP4 ADD SLT PUSH2 0x16EC JUMPI PUSH2 0x16EB PUSH2 0x119E JUMP JUMPDEST JUMPDEST DUP2 CALLDATALOAD PUSH2 0x16FC DUP5 DUP3 PUSH1 0x20 DUP7 ADD PUSH2 0x1670 JUMP JUMPDEST SWAP2 POP POP SWAP3 SWAP2 POP POP JUMP JUMPDEST PUSH0 DUP1 PUSH0 DUP1 PUSH0 PUSH1 0xA0 DUP7 DUP9 SUB SLT ISZERO PUSH2 0x171E JUMPI PUSH2 0x171D PUSH2 0x102B JUMP JUMPDEST JUMPDEST PUSH0 PUSH2 0x172B DUP9 DUP3 DUP10 ADD PUSH2 0x112C JUMP JUMPDEST SWAP6 POP POP PUSH1 0x20 PUSH2 0x173C DUP9 DUP3 DUP10 ADD PUSH2 0x112C JUMP JUMPDEST SWAP5 POP POP PUSH1 0x40 DUP7 ADD CALLDATALOAD PUSH8 0xFFFFFFFFFFFFFFFF DUP2 GT ISZERO PUSH2 0x175D JUMPI PUSH2 0x175C PUSH2 0x102F JUMP JUMPDEST JUMPDEST PUSH2 0x1769 DUP9 DUP3 DUP10 ADD PUSH2 0x16D8 JUMP JUMPDEST SWAP4 POP POP PUSH1 0x60 DUP7 ADD CALLDATALOAD PUSH8 0xFFFFFFFFFFFFFFFF DUP2 GT ISZERO PUSH2 0x178A JUMPI PUSH2 0x1789 PUSH2 0x102F JUMP JUMPDEST JUMPDEST PUSH2 0x1796 DUP9 DUP3 DUP10 ADD PUSH2 0x16D8 JUMP JUMPDEST SWAP3 POP POP PUSH1 0x80 DUP7 ADD CALLDATALOAD PUSH8 0xFFFFFFFFFFFFFFFF DUP2 GT ISZERO PUSH2 0x17B7 JUMPI PUSH2 0x17B6 PUSH2 0x102F JUMP JUMPDEST JUMPDEST PUSH2 0x17C3 DUP9 DUP3 DUP10 ADD PUSH2 0x12AD JUMP JUMPDEST SWAP2 POP POP SWAP3 SWAP6 POP SWAP3 SWAP6 SWAP1 SWAP4 POP JUMP JUMPDEST PUSH2 0x17D9 DUP2 PUSH2 0x116B JUMP JUMPDEST DUP3 MSTORE POP POP JUMP JUMPDEST PUSH0 PUSH1 0x20 DUP3 ADD SWAP1 POP PUSH2 0x17F2 PUSH0 DUP4 ADD DUP5 PUSH2 0x17D0 JUMP JUMPDEST SWAP3 SWAP2 POP POP JUMP JUMPDEST PUSH0 DUP1 PUSH0 DUP1 PUSH0 PUSH1 0xA0 DUP7 DUP9 SUB SLT ISZERO PUSH2 0x1811 JUMPI PUSH2 0x1810 PUSH2 0x102B JUMP JUMPDEST JUMPDEST PUSH0 PUSH2 0x181E DUP9 DUP3 DUP10 ADD PUSH2 0x112C JUMP JUMPDEST SWAP6 POP POP PUSH1 0x20 PUSH2 0x182F DUP9 DUP3 DUP10 ADD PUSH2 0x112C JUMP JUMPDEST SWAP5 POP POP PUSH1 0x40 PUSH2 0x1840 DUP9 DUP3 DUP10 ADD PUSH2 0x118A JUMP JUMPDEST SWAP4 POP POP PUSH1 0x60 PUSH2 0x1851 DUP9 DUP3 DUP10 ADD PUSH2 0x118A JUMP JUMPDEST SWAP3 POP POP PUSH1 0x80 DUP7 ADD CALLDATALOAD PUSH8 0xFFFFFFFFFFFFFFFF DUP2 GT ISZERO PUSH2 0x1872 JUMPI PUSH2 0x1871 PUSH2 0x102F JUMP JUMPDEST JUMPDEST PUSH2 0x187E DUP9 DUP3 DUP10 ADD PUSH2 0x12AD JUMP JUMPDEST SWAP2 POP POP SWAP3 SWAP6 POP SWAP3 SWAP6 SWAP1 SWAP4 POP JUMP JUMPDEST PUSH0 PUSH1 0x60 DUP3 ADD SWAP1 POP PUSH2 0x189E PUSH0 DUP4 ADD DUP7 PUSH2 0x17D0 JUMP JUMPDEST PUSH2 0x18AB PUSH1 0x20 DUP4 ADD DUP6 PUSH2 0x161D JUMP JUMPDEST PUSH2 0x18B8 PUSH1 0x40 DUP4 ADD DUP5 PUSH2 0x17D0 JUMP JUMPDEST SWAP5 SWAP4 POP POP POP POP JUMP JUMPDEST PUSH0 DUP3 DUP3 MSTORE PUSH1 0x20 DUP3 ADD SWAP1 POP SWAP3 SWAP2 POP POP JUMP JUMPDEST PUSH32 0x43616C6C6572206973206E6F74206F776E657200000000000000000000000000 PUSH0 DUP3 ADD MSTORE POP JUMP JUMPDEST PUSH0 PUSH2 0x1904 PUSH1 0x13 DUP4 PUSH2 0x18C0 JUMP JUMPDEST SWAP2 POP PUSH2 0x190F DUP3 PUSH2 0x18D0 JUMP JUMPDEST PUSH1 0x20 DUP3 ADD SWAP1 POP SWAP2 SWAP1 POP JUMP JUMPDEST PUSH0 PUSH1 0x20 DUP3 ADD SWAP1 POP DUP2 DUP2 SUB PUSH0 DUP4 ADD MSTORE PUSH2 0x1931 DUP2 PUSH2 0x18F8 JUMP JUMPDEST SWAP1 POP SWAP2 SWAP1 POP JUMP JUMPDEST PUSH32 0x496E76616C696420696D706C656D656E746174696F6E20616464726573730000 PUSH0 DUP3 ADD MSTORE POP JUMP JUMPDEST PUSH0 PUSH2 0x196C PUSH1 0x1E DUP4 PUSH2 0x18C0 JUMP JUMPDEST SWAP2 POP PUSH2 0x1977 DUP3 PUSH2 0x1938 JUMP JUMPDEST PUSH1 0x20 DUP3 ADD SWAP1 POP SWAP2 SWAP1 POP JUMP JUMPDEST PUSH0 PUSH1 0x20 DUP3 ADD SWAP1 POP DUP2 DUP2 SUB PUSH0 DUP4 ADD MSTORE PUSH2 0x1999 DUP2 PUSH2 0x1960 JUMP JUMPDEST SWAP1 POP SWAP2 SWAP1 POP JUMP JUMPDEST PUSH32 0x4E487B7100000000000000000000000000000000000000000000000000000000 PUSH0 MSTORE PUSH1 0x11 PUSH1 0x4 MSTORE PUSH1 0x24 PUSH0 REVERT JUMPDEST PUSH0 PUSH2 0x19D7 DUP3 PUSH2 0x116B JUMP JUMPDEST SWAP2 POP PUSH32 0xFFFFFFFFFFFFFFFFFFFFFFFFFFFFFFFFFFFFFFFFFFFFFFFFFFFFFFFFFFFFFFFF DUP3 SUB PUSH2 0x1A09 JUMPI PUSH2 0x1A08 PUSH2 0x19A0 JUMP JUMPDEST JUMPDEST PUSH1 0x1 DUP3 ADD SWAP1 POP SWAP2 SWAP1 POP JUMP JUMPDEST PUSH32 0x4F6E6C792063616C6C206F7065726174696F6E732061726520737570706F7274 PUSH0 DUP3 ADD MSTORE PUSH32 0x6564000000000000000000000000000000000000000000000000000000000000 PUSH1 0x20 DUP3 ADD MSTORE POP JUMP JUMPDEST PUSH0 PUSH2 0x1A6E PUSH1 0x22 DUP4 PUSH2 0x18C0 JUMP JUMPDEST SWAP2 POP PUSH2 0x1A79 DUP3 PUSH2 0x1A14 JUMP JUMPDEST PUSH1 0x40 DUP3 ADD SWAP1 POP SWAP2 SWAP1 POP JUMP JUMPDEST PUSH0 PUSH1 0x20 DUP3 ADD SWAP1 POP DUP2 DUP2 SUB PUSH0 DUP4 ADD MSTORE PUSH2 0x1A9B DUP2 PUSH2 0x1A62 JUMP JUMPDEST SWAP1 POP SWAP2 SWAP1 POP JUMP JUMPDEST PUSH0 DUP2 SWAP1 POP SWAP3 SWAP2 POP POP JUMP JUMPDEST PUSH0 PUSH2 0x1AB7 DUP4 DUP6 PUSH2 0x1AA2 JUMP JUMPDEST SWAP4 POP PUSH2 0x1AC4 DUP4 DUP6 DUP5 PUSH2 0x125E JUMP JUMPDEST DUP3 DUP5 ADD SWAP1 POP SWAP4 SWAP3 POP POP POP JUMP JUMPDEST PUSH0 PUSH2 0x1ADC DUP3 DUP5 DUP7 PUSH2 0x1AAC JUMP JUMPDEST SWAP2 POP DUP2 SWAP1 POP SWAP4 SWAP3 POP POP POP JUMP JUMPDEST PUSH0 DUP2 MLOAD SWAP1 POP SWAP2 SWAP1 POP JUMP JUMPDEST PUSH0 PUSH2 0x1AFC DUP3 PUSH2 0x1AE8 JUMP JUMPDEST PUSH2 0x1B06 DUP2 DUP6 PUSH2 0x18C0 JUMP JUMPDEST SWAP4 POP PUSH2 0x1B16 DUP2 DUP6 PUSH1 0x20 DUP7 ADD PUSH2 0x1540 JUMP JUMPDEST PUSH2 0x1B1F DUP2 PUSH2 0x11A6 JUMP JUMPDEST DUP5 ADD SWAP2 POP POP SWAP3 SWAP2 POP POP JUMP JUMPDEST PUSH0 PUSH1 0x20 DUP3 ADD SWAP1 POP DUP2 DUP2 SUB PUSH0 DUP4 ADD MSTORE PUSH2 0x1B42 DUP2 DUP5 PUSH2 0x1AF2 JUMP JUMPDEST SWAP1 POP SWAP3 SWAP2 POP POP JUMP JUMPDEST PUSH0 DUP2 MLOAD SWAP1 POP PUSH2 0x1B58 DUP2 PUSH2 0x1116 JUMP JUMPDEST SWAP3 SWAP2 POP POP JUMP JUMPDEST PUSH0 PUSH1 0x20 DUP3 DUP5 SUB SLT ISZERO PUSH2 0x1B73 JUMPI PUSH2 0x1B72 PUSH2 0x102B JUMP JUMPDEST JUMPDEST PUSH0 PUSH2 0x1B80 DUP5 DUP3 DUP6 ADD PUSH2 0x1B4A JUMP JUMPDEST SWAP2 POP POP SWAP3 SWAP2 POP POP JUMP JUMPDEST PUSH32 0x43616E6E6F74206F776E20796F757273656C6600000000000000000000000000 PUSH0 DUP3 ADD MSTORE POP JUMP JUMPDEST PUSH0 PUSH2 0x1BBD PUSH1 0x13 DUP4 PUSH2 0x18C0 JUMP JUMPDEST SWAP2 POP PUSH2 0x1BC8 DUP3 PUSH2 0x1B89 JUMP JUMPDEST PUSH1 0x20 DUP3 ADD SWAP1 POP SWAP2 SWAP1 POP JUMP JUMPDEST PUSH0 PUSH1 0x20 DUP3 ADD SWAP1 POP DUP2 DUP2 SUB PUSH0 DUP4 ADD MSTORE PUSH2 0x1BEA DUP2 PUSH2 0x1BB1 JUMP JUMPDEST SWAP1 POP SWAP2 SWAP1 POP JUMP JUMPDEST PUSH32 0x546F6B656E20696E206F776E65727368697020636861696E0000000000000000 PUSH0 DUP3 ADD MSTORE POP JUMP JUMPDEST PUSH0 PUSH2 0x1C25 PUSH1 0x18 DUP4 PUSH2 0x18C0 JUMP JUMPDEST SWAP2 POP PUSH2 0x1C30 DUP3 PUSH2 0x1BF1 JUMP JUMPDEST PUSH1 0x20 DUP3 ADD SWAP1 POP SWAP2 SWAP1 POP JUMP JUMPDEST PUSH0 PUSH1 0x20 DUP3 ADD SWAP1 POP DUP2 DUP2 SUB PUSH0 DUP4 ADD MSTORE PUSH2 0x1C52 DUP2 PUSH2 0x1C19 JUMP JUMPDEST SWAP1 POP SWAP2 SWAP1 POP JUMP JUMPDEST PUSH0 DUP2 MLOAD SWAP1 POP PUSH2 0x1C67 DUP2 PUSH2 0x1174 JUMP JUMPDEST SWAP3 SWAP2 POP POP JUMP JUMPDEST PUSH0 DUP1 PUSH0 PUSH1 0x60 DUP5 DUP7 SUB SLT ISZERO PUSH2 0x1C84 JUMPI PUSH2 0x1C83 PUSH2 0x102B JUMP JUMPDEST JUMPDEST PUSH0 PUSH2 0x1C91 DUP7 DUP3 DUP8 ADD PUSH2 0x1C59 JUMP JUMPDEST SWAP4 POP POP PUSH1 0x20 PUSH2 0x1CA2 DUP7 DUP3 DUP8 ADD PUSH2 0x1B4A JUMP JUMPDEST SWAP3 POP POP PUSH1 0x40 PUSH2 0x1CB3 DUP7 DUP3 DUP8 ADD PUSH2 0x1C59 JUMP JUMPDEST SWAP2 POP POP SWAP3 POP SWAP3 POP SWAP3 JUMP JUMPDEST PUSH32 0x4F776E65727368697020636861696E20746F6F20646565700000000000000000 PUSH0 DUP3 ADD MSTORE POP JUMP JUMPDEST PUSH0 PUSH2 0x1CF1 PUSH1 0x18 DUP4 PUSH2 0x18C0 JUMP JUMPDEST SWAP2 POP PUSH2 0x1CFC DUP3 PUSH2 0x1CBD JUMP JUMPDEST PUSH1 0x20 DUP3 ADD SWAP1 POP SWAP2 SWAP1 POP JUMP JUMPDEST PUSH0 PUSH1 0x20 DUP3 ADD SWAP1 POP DUP2 DUP2 SUB PUSH0 DUP4 ADD MSTORE PUSH2 0x1D1E DUP2 PUSH2 0x1CE5 JUMP JUMPDEST SWAP1 POP SWAP2 SWAP1 POP JUMP JUMPDEST PUSH32 0x4E487B7100000000000000000000000000000000000000000000000000000000 PUSH0 MSTORE PUSH1 0x21 PUSH1 0x4 MSTORE PUSH1 0x24 PUSH0 REVERT JUMPDEST PUSH2 0x1D5B DUP2 PUSH2 0x1382 JUMP JUMPDEST DUP3 MSTORE POP POP JUMP JUMPDEST PUSH0 PUSH1 0x40 DUP3 ADD SWAP1 POP PUSH2 0x1D74 PUSH0 DUP4 ADD DUP6 PUSH2 0x1D52 JUMP JUMPDEST DUP2 DUP2 SUB PUSH1 0x20 DUP4 ADD MSTORE PUSH2 0x1D86 DUP2 DUP5 PUSH2 0x1568 JUMP JUMPDEST SWAP1 POP SWAP4 SWAP3 POP POP POP JUMP JUMPDEST PUSH0 PUSH2 0x1D99 DUP3 PUSH2 0x1526 JUMP JUMPDEST PUSH2 0x1DA3 DUP2 DUP6 PUSH2 0x1AA2 JUMP JUMPDEST SWAP4 POP PUSH2 0x1DB3 DUP2 DUP6 PUSH1 0x20 DUP7 ADD PUSH2 0x1540 JUMP JUMPDEST DUP1 DUP5 ADD SWAP2 POP POP SWAP3 SWAP2 POP POP JUMP JUMPDEST PUSH0 PUSH2 0x1DCA DUP3 DUP5 PUSH2 0x1D8F JUMP JUMPDEST SWAP2 POP DUP2 SWAP1 POP SWAP3 SWAP2 POP POP JUMP JUMPDEST PUSH0 DUP2 MLOAD SWAP1 POP PUSH2 0x1DE3 DUP2 PUSH2 0x138B JUMP JUMPDEST SWAP3 SWAP2 POP POP JUMP JUMPDEST PUSH0 PUSH1 0x20 DUP3 DUP5 SUB SLT ISZERO PUSH2 0x1DFE JUMPI PUSH2 0x1DFD PUSH2 0x102B JUMP JUMPDEST JUMPDEST PUSH0 PUSH2 0x1E0B DUP5 DUP3 DUP6 ADD PUSH2 0x1DD5 JUMP JUMPDEST SWAP2 POP POP SWAP3 SWAP2 POP POP JUMP JUMPDEST PUSH0 PUSH2 0x1E1E DUP3 PUSH2 0x10E6 JUMP JUMPDEST SWAP1 POP SWAP2 SWAP1 POP JUMP JUMPDEST PUSH2 0x1E2E DUP2 PUSH2 0x1E14 JUMP JUMPDEST DUP2 EQ PUSH2 0x1E38 JUMPI PUSH0 DUP1 REVERT JUMPDEST POP JUMP JUMPDEST PUSH0 DUP2 MLOAD SWAP1 POP PUSH2 0x1E49 DUP2 PUSH2 0x1E25 JUMP JUMPDEST SWAP3 SWAP2 POP POP JUMP JUMPDEST PUSH0 DUP1 PUSH0 PUSH1 0x60 DUP5 DUP7 SUB SLT ISZERO PUSH2 0x1E66 JUMPI PUSH2 0x1E65 PUSH2 0x102B JUMP JUMPDEST JUMPDEST PUSH0 PUSH2 0x1E73 DUP7 DUP3 DUP8 ADD PUSH2 0x1C59 JUMP JUMPDEST SWAP4 POP POP PUSH1 0x20 PUSH2 0x1E84 DUP7 DUP3 DUP8 ADD PUSH2 0x1E3B JUMP JUMPDEST SWAP3 POP POP PUSH1 0x40 PUSH2 0x1E95 DUP7 DUP3 DUP8 ADD PUSH2 0x1C59 JUMP JUMPDEST SWAP2 POP POP SWAP3 POP SWAP3 POP SWAP3 JUMP JUMPDEST PUSH2 0x1EA8 DUP2 PUSH2 0x146C JUMP JUMPDEST DUP3 MSTORE POP POP JUMP JUMPDEST PUSH0 PUSH1 0x80 DUP3 ADD SWAP1 POP PUSH2 0x1EC1 PUSH0 DUP4 ADD DUP8 PUSH2 0x1D52 JUMP JUMPDEST PUSH2 0x1ECE PUSH1 0x20 DUP4 ADD DUP7 PUSH2 0x1E9F JUMP JUMPDEST PUSH2 0x1EDB PUSH1 0x40 DUP4 ADD DUP6 PUSH2 0x1D52 JUMP JUMPDEST PUSH2 0x1EE8 PUSH1 0x60 DUP4 ADD DUP5 PUSH2 0x1D52 JUMP JUMPDEST SWAP6 SWAP5 POP POP POP POP POP JUMP INVALID LOG2 PUSH5 0x6970667358 0x22 SLT KECCAK256 0xF7 PUSH0 CREATE2 0x21 EXP SELFDESTRUCT EXTCODESIZE 0xE1 LOG4 SLOAD SIGNEXTEND BYTE LOG3 REVERT 0x5E PUSH17 0x189FFE3AC6D8F285E2A9D58A65B47AB864 PUSH20 0x6F6C63430008140033A264697066735822122014 0xA5 ADDRESS 0x5C CALLVALUE 0x2E SDIV AND 0x23 INVALID 0x4B PUSH28 0x12F5A4EFB15FE5A421A33D97191B2892EDA02F5F64736F6C63430008 EQ STOP CALLER "
		},
		"gasEstimates": {
			"creation": {
				"codeDepositCost": "4687800",
				"executionCost": "infinite",
				"totalCost": "infinite"
			},
			"external": {
				"UPGRADE_INTERFACE_VERSION()": "infinite",
				"account()": "infinite",
				"approve(address,uint256)": "infinite",
				"balanceOf(address)": "infinite",
				"baseURI()": "infinite",
				"burn(uint256)": "infinite",
				"getApproved(uint256)": "infinite",
				"initialize(address)": "infinite",
				"isApprovedForAll(address,address)": "infinite",
				"name()": "infinite",
				"owner()": "2612",
				"ownerOf(uint256)": "infinite",
				"pause()": "infinite",
				"paused()": "2570",
				"proxiableUUID()": "infinite",
				"registry()": "infinite",
				"renounceOwnership()": "infinite",
				"safeBurn(uint256)": "infinite",
				"safeMint(address,uint256)": "infinite",
				"safeTransferFrom(address,address,uint256)": "infinite",
				"safeTransferFrom(address,address,uint256,bytes)": "infinite",
				"setApprovalForAll(address,bool)": "infinite",
				"setURI(uint256,string,bool)": "infinite",
				"supportsInterface(bytes4)": "810",
				"symbol()": "infinite",
				"tokenURI(uint256)": "infinite",
				"transferFrom(address,address,uint256)": "infinite",
				"transferOwnership(address)": "infinite",
				"universal_uri()": "2555",
				"unpause()": "infinite",
				"upgradeToAndCall(address,bytes)": "infinite"
			},
			"internal": {
				"_authorizeUpgrade(address)": "infinite",
				"_createAccount(address,uint256)": "infinite",
				"_update(address,uint256,address)": "infinite"
			}
		},
		"methodIdentifiers": {
			"UPGRADE_INTERFACE_VERSION()": "ad3cb1cc",
			"account()": "5dab2420",
			"approve(address,uint256)": "095ea7b3",
			"balanceOf(address)": "70a08231",
			"baseURI()": "6c0360eb",
			"burn(uint256)": "42966c68",
			"getApproved(uint256)": "081812fc",
			"initialize(address)": "c4d66de8",
			"isApprovedForAll(address,address)": "e985e9c5",
			"name()": "06fdde03",
			"owner()": "8da5cb5b",
			"ownerOf(uint256)": "6352211e",
			"pause()": "8456cb59",
			"paused()": "5c975abb",
			"proxiableUUID()": "52d1902d",
			"registry()": "7b103999",
			"renounceOwnership()": "715018a6",
			"safeBurn(uint256)": "dbf51325",
			"safeMint(address,uint256)": "a1448194",
			"safeTransferFrom(address,address,uint256)": "42842e0e",
			"safeTransferFrom(address,address,uint256,bytes)": "b88d4fde",
			"setApprovalForAll(address,bool)": "a22cb465",
			"setURI(uint256,string,bool)": "2a9abcb9",
			"supportsInterface(bytes4)": "01ffc9a7",
			"symbol()": "95d89b41",
			"tokenURI(uint256)": "c87b56dd",
			"transferFrom(address,address,uint256)": "23b872dd",
			"transferOwnership(address)": "f2fde38b",
			"universal_uri()": "961a7eae",
			"unpause()": "3f4ba83a",
			"upgradeToAndCall(address,bytes)": "4f1ef286"
		}
	},
	"abi": [
		{
			"inputs": [],
			"stateMutability": "nonpayable",
			"type": "constructor"
		},
		{
			"inputs": [
				{
					"internalType": "address",
					"name": "target",
					"type": "address"
				}
			],
			"name": "AddressEmptyCode",
			"type": "error"
		},
		{
			"inputs": [
				{
					"internalType": "address",
					"name": "implementation",
					"type": "address"
				}
			],
			"name": "ERC1967InvalidImplementation",
			"type": "error"
		},
		{
			"inputs": [],
			"name": "ERC1967NonPayable",
			"type": "error"
		},
		{
			"inputs": [
				{
					"internalType": "address",
					"name": "sender",
					"type": "address"
				},
				{
					"internalType": "uint256",
					"name": "tokenId",
					"type": "uint256"
				},
				{
					"internalType": "address",
					"name": "owner",
					"type": "address"
				}
			],
			"name": "ERC721IncorrectOwner",
			"type": "error"
		},
		{
			"inputs": [
				{
					"internalType": "address",
					"name": "operator",
					"type": "address"
				},
				{
					"internalType": "uint256",
					"name": "tokenId",
					"type": "uint256"
				}
			],
			"name": "ERC721InsufficientApproval",
			"type": "error"
		},
		{
			"inputs": [
				{
					"internalType": "address",
					"name": "approver",
					"type": "address"
				}
			],
			"name": "ERC721InvalidApprover",
			"type": "error"
		},
		{
			"inputs": [
				{
					"internalType": "address",
					"name": "operator",
					"type": "address"
				}
			],
			"name": "ERC721InvalidOperator",
			"type": "error"
		},
		{
			"inputs": [
				{
					"internalType": "address",
					"name": "owner",
					"type": "address"
				}
			],
			"name": "ERC721InvalidOwner",
			"type": "error"
		},
		{
			"inputs": [
				{
					"internalType": "address",
					"name": "receiver",
					"type": "address"
				}
			],
			"name": "ERC721InvalidReceiver",
			"type": "error"
		},
		{
			"inputs": [
				{
					"internalType": "address",
					"name": "sender",
					"type": "address"
				}
			],
			"name": "ERC721InvalidSender",
			"type": "error"
		},
		{
			"inputs": [
				{
					"internalType": "uint256",
					"name": "tokenId",
					"type": "uint256"
				}
			],
			"name": "ERC721NonexistentToken",
			"type": "error"
		},
		{
			"inputs": [],
			"name": "EnforcedPause",
			"type": "error"
		},
		{
			"inputs": [],
			"name": "ExpectedPause",
			"type": "error"
		},
		{
			"inputs": [],
			"name": "FailedInnerCall",
			"type": "error"
		},
		{
			"inputs": [],
			"name": "InvalidInitialization",
			"type": "error"
		},
		{
			"inputs": [],
			"name": "NotInitializing",
			"type": "error"
		},
		{
			"inputs": [
				{
					"internalType": "address",
					"name": "owner",
					"type": "address"
				}
			],
			"name": "OwnableInvalidOwner",
			"type": "error"
		},
		{
			"inputs": [
				{
					"internalType": "address",
					"name": "account",
					"type": "address"
				}
			],
			"name": "OwnableUnauthorizedAccount",
			"type": "error"
		},
		{
			"inputs": [],
			"name": "UUPSUnauthorizedCallContext",
			"type": "error"
		},
		{
			"inputs": [
				{
					"internalType": "bytes32",
					"name": "slot",
					"type": "bytes32"
				}
			],
			"name": "UUPSUnsupportedProxiableUUID",
			"type": "error"
		},
		{
			"anonymous": false,
			"inputs": [
				{
					"indexed": true,
					"internalType": "address",
					"name": "owner",
					"type": "address"
				},
				{
					"indexed": true,
					"internalType": "address",
					"name": "approved",
					"type": "address"
				},
				{
					"indexed": true,
					"internalType": "uint256",
					"name": "tokenId",
					"type": "uint256"
				}
			],
			"name": "Approval",
			"type": "event"
		},
		{
			"anonymous": false,
			"inputs": [
				{
					"indexed": true,
					"internalType": "address",
					"name": "owner",
					"type": "address"
				},
				{
					"indexed": true,
					"internalType": "address",
					"name": "operator",
					"type": "address"
				},
				{
					"indexed": false,
					"internalType": "bool",
					"name": "approved",
					"type": "bool"
				}
			],
			"name": "ApprovalForAll",
			"type": "event"
		},
		{
			"anonymous": false,
			"inputs": [
				{
					"indexed": false,
					"internalType": "uint64",
					"name": "version",
					"type": "uint64"
				}
			],
			"name": "Initialized",
			"type": "event"
		},
		{
			"anonymous": false,
			"inputs": [
				{
					"indexed": true,
					"internalType": "address",
					"name": "inventory",
					"type": "address"
				},
				{
					"indexed": false,
					"internalType": "address",
					"name": "nft",
					"type": "address"
				},
				{
					"indexed": false,
					"internalType": "uint256",
					"name": "id",
					"type": "uint256"
				}
			],
			"name": "InventoryCreated",
			"type": "event"
		},
		{
			"anonymous": false,
			"inputs": [
				{
					"indexed": true,
					"internalType": "address",
					"name": "previousOwner",
					"type": "address"
				},
				{
					"indexed": true,
					"internalType": "address",
					"name": "newOwner",
					"type": "address"
				}
			],
			"name": "OwnershipTransferred",
			"type": "event"
		},
		{
			"anonymous": false,
			"inputs": [
				{
					"indexed": false,
					"internalType": "address",
					"name": "account",
					"type": "address"
				}
			],
			"name": "Paused",
			"type": "event"
		},
		{
			"anonymous": false,
			"inputs": [
				{
					"indexed": true,
					"internalType": "address",
					"name": "from",
					"type": "address"
				},
				{
					"indexed": true,
					"internalType": "address",
					"name": "to",
					"type": "address"
				},
				{
					"indexed": true,
					"internalType": "uint256",
					"name": "tokenId",
					"type": "uint256"
				}
			],
			"name": "Transfer",
			"type": "event"
		},
		{
			"anonymous": false,
			"inputs": [
				{
					"indexed": false,
					"internalType": "address",
					"name": "account",
					"type": "address"
				}
			],
			"name": "Unpaused",
			"type": "event"
		},
		{
			"anonymous": false,
			"inputs": [
				{
					"indexed": true,
					"internalType": "address",
					"name": "implementation",
					"type": "address"
				}
			],
			"name": "Upgraded",
			"type": "event"
		},
		{
			"inputs": [],
			"name": "UPGRADE_INTERFACE_VERSION",
			"outputs": [
				{
					"internalType": "string",
					"name": "",
					"type": "string"
				}
			],
			"stateMutability": "view",
			"type": "function"
		},
		{
			"inputs": [],
			"name": "account",
			"outputs": [
				{
					"internalType": "contract ERC6551AccountUpgradeable",
					"name": "",
					"type": "address"
				}
			],
			"stateMutability": "view",
			"type": "function"
		},
		{
			"inputs": [
				{
					"internalType": "address",
					"name": "to",
					"type": "address"
				},
				{
					"internalType": "uint256",
					"name": "tokenId",
					"type": "uint256"
				}
			],
			"name": "approve",
			"outputs": [],
			"stateMutability": "nonpayable",
			"type": "function"
		},
		{
			"inputs": [
				{
					"internalType": "address",
					"name": "owner",
					"type": "address"
				}
			],
			"name": "balanceOf",
			"outputs": [
				{
					"internalType": "uint256",
					"name": "",
					"type": "uint256"
				}
			],
			"stateMutability": "view",
			"type": "function"
		},
		{
			"inputs": [],
			"name": "baseURI",
			"outputs": [
				{
					"internalType": "string",
					"name": "",
					"type": "string"
				}
			],
			"stateMutability": "view",
			"type": "function"
		},
		{
			"inputs": [
				{
					"internalType": "uint256",
					"name": "tokenId",
					"type": "uint256"
				}
			],
			"name": "burn",
			"outputs": [],
			"stateMutability": "nonpayable",
			"type": "function"
		},
		{
			"inputs": [
				{
					"internalType": "uint256",
					"name": "tokenId",
					"type": "uint256"
				}
			],
			"name": "getApproved",
			"outputs": [
				{
					"internalType": "address",
					"name": "",
					"type": "address"
				}
			],
			"stateMutability": "view",
			"type": "function"
		},
		{
			"inputs": [
				{
					"internalType": "address",
					"name": "initialOwner",
					"type": "address"
				}
			],
			"name": "initialize",
			"outputs": [],
			"stateMutability": "nonpayable",
			"type": "function"
		},
		{
			"inputs": [
				{
					"internalType": "address",
					"name": "owner",
					"type": "address"
				},
				{
					"internalType": "address",
					"name": "operator",
					"type": "address"
				}
			],
			"name": "isApprovedForAll",
			"outputs": [
				{
					"internalType": "bool",
					"name": "",
					"type": "bool"
				}
			],
			"stateMutability": "view",
			"type": "function"
		},
		{
			"inputs": [],
			"name": "name",
			"outputs": [
				{
					"internalType": "string",
					"name": "",
					"type": "string"
				}
			],
			"stateMutability": "view",
			"type": "function"
		},
		{
			"inputs": [],
			"name": "owner",
			"outputs": [
				{
					"internalType": "address",
					"name": "",
					"type": "address"
				}
			],
			"stateMutability": "view",
			"type": "function"
		},
		{
			"inputs": [
				{
					"internalType": "uint256",
					"name": "tokenId",
					"type": "uint256"
				}
			],
			"name": "ownerOf",
			"outputs": [
				{
					"internalType": "address",
					"name": "",
					"type": "address"
				}
			],
			"stateMutability": "view",
			"type": "function"
		},
		{
			"inputs": [],
			"name": "pause",
			"outputs": [],
			"stateMutability": "nonpayable",
			"type": "function"
		},
		{
			"inputs": [],
			"name": "paused",
			"outputs": [
				{
					"internalType": "bool",
					"name": "",
					"type": "bool"
				}
			],
			"stateMutability": "view",
			"type": "function"
		},
		{
			"inputs": [],
			"name": "proxiableUUID",
			"outputs": [
				{
					"internalType": "bytes32",
					"name": "",
					"type": "bytes32"
				}
			],
			"stateMutability": "view",
			"type": "function"
		},
		{
			"inputs": [],
			"name": "registry",
			"outputs": [
				{
					"internalType": "contract ERC6551Registry",
					"name": "",
					"type": "address"
				}
			],
			"stateMutability": "view",
			"type": "function"
		},
		{
			"inputs": [],
			"name": "renounceOwnership",
			"outputs": [],
			"stateMutability": "nonpayable",
			"type": "function"
		},
		{
			"inputs": [
				{
					"internalType": "uint256",
					"name": "tokenId",
					"type": "uint256"
				}
			],
			"name": "safeBurn",
			"outputs": [],
			"stateMutability": "nonpayable",
			"type": "function"
		},
		{
			"inputs": [
				{
					"internalType": "address",
					"name": "to",
					"type": "address"
				},
				{
					"internalType": "uint256",
					"name": "tokenId",
					"type": "uint256"
				}
			],
			"name": "safeMint",
			"outputs": [],
			"stateMutability": "nonpayable",
			"type": "function"
		},
		{
			"inputs": [
				{
					"internalType": "address",
					"name": "from",
					"type": "address"
				},
				{
					"internalType": "address",
					"name": "to",
					"type": "address"
				},
				{
					"internalType": "uint256",
					"name": "tokenId",
					"type": "uint256"
				}
			],
			"name": "safeTransferFrom",
			"outputs": [],
			"stateMutability": "nonpayable",
			"type": "function"
		},
		{
			"inputs": [
				{
					"internalType": "address",
					"name": "from",
					"type": "address"
				},
				{
					"internalType": "address",
					"name": "to",
					"type": "address"
				},
				{
					"internalType": "uint256",
					"name": "tokenId",
					"type": "uint256"
				},
				{
					"internalType": "bytes",
					"name": "data",
					"type": "bytes"
				}
			],
			"name": "safeTransferFrom",
			"outputs": [],
			"stateMutability": "nonpayable",
			"type": "function"
		},
		{
			"inputs": [
				{
					"internalType": "address",
					"name": "operator",
					"type": "address"
				},
				{
					"internalType": "bool",
					"name": "approved",
					"type": "bool"
				}
			],
			"name": "setApprovalForAll",
			"outputs": [],
			"stateMutability": "nonpayable",
			"type": "function"
		},
		{
			"inputs": [
				{
					"internalType": "uint256",
					"name": "tokenId",
					"type": "uint256"
				},
				{
					"internalType": "string",
					"name": "_uri",
					"type": "string"
				},
				{
					"internalType": "bool",
					"name": "_all",
					"type": "bool"
				}
			],
			"name": "setURI",
			"outputs": [],
			"stateMutability": "nonpayable",
			"type": "function"
		},
		{
			"inputs": [
				{
					"internalType": "bytes4",
					"name": "interfaceId",
					"type": "bytes4"
				}
			],
			"name": "supportsInterface",
			"outputs": [
				{
					"internalType": "bool",
					"name": "",
					"type": "bool"
				}
			],
			"stateMutability": "view",
			"type": "function"
		},
		{
			"inputs": [],
			"name": "symbol",
			"outputs": [
				{
					"internalType": "string",
					"name": "",
					"type": "string"
				}
			],
			"stateMutability": "view",
			"type": "function"
		},
		{
			"inputs": [
				{
					"internalType": "uint256",
					"name": "tokenId",
					"type": "uint256"
				}
			],
			"name": "tokenURI",
			"outputs": [
				{
					"internalType": "string",
					"name": "",
					"type": "string"
				}
			],
			"stateMutability": "view",
			"type": "function"
		},
		{
			"inputs": [
				{
					"internalType": "address",
					"name": "from",
					"type": "address"
				},
				{
					"internalType": "address",
					"name": "to",
					"type": "address"
				},
				{
					"internalType": "uint256",
					"name": "tokenId",
					"type": "uint256"
				}
			],
			"name": "transferFrom",
			"outputs": [],
			"stateMutability": "nonpayable",
			"type": "function"
		},
		{
			"inputs": [
				{
					"internalType": "address",
					"name": "newOwner",
					"type": "address"
				}
			],
			"name": "transferOwnership",
			"outputs": [],
			"stateMutability": "nonpayable",
			"type": "function"
		},
		{
			"inputs": [],
			"name": "universal_uri",
			"outputs": [
				{
					"internalType": "bool",
					"name": "",
					"type": "bool"
				}
			],
			"stateMutability": "view",
			"type": "function"
		},
		{
			"inputs": [],
			"name": "unpause",
			"outputs": [],
			"stateMutability": "nonpayable",
			"type": "function"
		},
		{
			"inputs": [
				{
					"internalType": "address",
					"name": "newImplementation",
					"type": "address"
				},
				{
					"internalType": "bytes",
					"name": "data",
					"type": "bytes"
				}
			],
			"name": "upgradeToAndCall",
			"outputs": [],
			"stateMutability": "payable",
			"type": "function"
		}
	]
}